:020000040000FA
:100000000C948F000C94B7000C94B7000C94B700BC
:100010000C94B7000C94B7000C94B7000C94040B2C
:100020000C94B7000C94B7000C94B7000C94B70074
:100030000C94B7000C94B7000C94B7000C94B70064
:100040000C949F090C94B7000C94B7000C94B70063
:100050000C94B7000C94B7000C94B7000C94B70044
:100060000C94E9090C94B70008000000BE922449E2
:10007000123EABAAAA2ABECDCCCC4C3E00000080DA
:10008000BEABAAAAAA3E00000000BF000000803F4D
:100090000000000000084178D3BB4387D1133D190D
:1000A0000E3CC3BD4282AD2B3E68EC8276BED98F3A
:1000B000E1A93E4C80EFFFBE01C4FF7F3F0000007E
:1000C00000000000000023002600290000000008B6
:1000D000000201000003040700000000000000000F
:1000E00001020408102040800102040810200102CF
:1000F0000408102000000000240027002A0000004F
:100100000000250028002B00040404040404040457
:100110000202020202020303030303035C0B112425
:100120001FBECFEFD8E0DEBFCDBF12E0A0E0B1E050
:10013000E6E0F1E302C005900D92A63FB107D9F7C2
:1001400024E0A6EFB2E001C01D92A533B207E1F7AB
:1001500010E0CFE8D0E004C02197FE010E947B1898
:10016000CE38D107C9F70E94410D0C9481180C9428
:100170000000833081F028F4813099F08230A9F0BA
:1001800008958730A9F08830C9F08430B1F48091A7
:1001900080008F7D03C0809180008F7780938000E6
:1001A000089584B58F7784BD089584B58F7DFBCF86
:1001B0008091B0008F778093B00008958091B00057
:1001C0008F7DF9CFCF93DF93E3EDF0E08491E7EEFD
:1001D000F0E0D491EFE0F1E0C491CC23A1F08111E3
:1001E0000E94B900EC2FF0E0EE0FFF1FEE53FF4F1F
:1001F000A591B491EC91ED2381E090E009F480E0C9
:10020000DF91CF91089580E090E0FACF1F93CF93D4
:10021000DF93282F30E0F901E453FF4F8491F90177
:10022000E052FF4FD491F901E85FFE4FC491CC2317
:10023000A9F0162F81110E94B900EC2FF0E0EE0F0B
:10024000FF1FE250FF4FA591B4918FB7F894EC9146
:10025000111108C0D095DE23DC938FBFDF91CF91C1
:100260001F910895DE2BF8CF109210041092130402
:100270001092140410921504109216041092FB03AD
:100280001092FC031092FD031092FE0380910F0464
:10029000882371F010920F0480911104882341F09B
:1002A00060910E0481E068278091F6030E940601A8
:1002B0001092FB031092FC031092FD031092FE03B8
:1002C0000895CF93DF9390E0FC01E052FF4F24911B
:1002D000885F9E4FFC0184918823D1F090E0880FC5
:1002E000991FFC01EC50FF4FA591B491FC01E25025
:1002F000FF4FC591D491623071F49FB7F8943C914F
:10030000822F809583238C93E8812E2B28839FBF97
:10031000DF91CF9108958FB7F894EC912E2B2C9309
:100320008FBFF6CF3FB7F89480918E0390918F03E3
:10033000A0919003B091910326B5A89B05C02F3FD3
:1003400019F00196A11DB11D3FBFBA2FA92F982FFB
:100350008827BC01CD01620F711D811D911D42E0F6
:10036000660F771F881F991F4A95D1F708954F92FE
:100370005F926F927F928F929F92AF92BF92CF9235
:10038000DF92EF92FF92CF93DF93CDB7DEB72A973C
:100390000FB6F894DEBF0FBECDBF80911004882346
:1003A00009F42BC30E949201609307047093080420
:1003B0008093090490930A04809125049091260467
:1003C0009A878987892B09F070C180911F049091C9
:1003D0002004892B09F469C1409017045090180437
:1003E0006090190470901A0420E030E040EA50E474
:1003F000C301B2010E94841787FD57C18090070492
:1004000090900804A0900904B0900A04C090EE03F4
:10041000D090EF03E090F003F090F1036091E203DD
:100420007091E303072E000C880B990B8C189D0824
:10043000AE08BF0886169706A806B90608F435C1A7
:10044000C60ED71EE81EF91EC092EE03D092EF032F
:10045000E092F003F092F103809003049090040482
:10046000A0900504B0900604C090FF03D090000453
:10047000E0900104F09002048C189D08AE08BF08BB
:10048000C090FB03D090FC03E090FD03F090FE03CE
:100490000E94D4162091E4033091E5034091E603D5
:1004A0005091E7030E94D91769837A838B839C83D9
:1004B000A7019601C701B6010E94D9172091210416
:1004C0003091220440912304509124040E94D917B2
:1004D0006D837E838F839887C501B401B7FE07C003
:1004E00066277727CB01681979098A099B090E9439
:1004F000D4169B01AC016D817E818F8198850E940D
:10050000841787FD0EC020E030E0A901C701B601C5
:100510000E94841787FD07C020E030E040E85FEBD1
:1005200006C0B7FCF9CF20E030E040E85FE3698126
:100530007A818B819C810E94D917A70196010E9424
:10054000B9156B017C018090130490901404A09065
:100550001504B090160420E030E0A901C501B401F3
:100560000E94251681114AC053014201B7FAB09486
:10057000B7F8B094A5019401B601C7010E942516F1
:1005800087FD0CC09601A701C301B2010E94251688
:100590005301420187FD02C0460157018092FB03CF
:1005A0009092FC03A092FD03B092FE03C090FB0367
:1005B000D090FC03E090FD03F090FE0320E030E0DB
:1005C000A901C701B6010E9484171816D4F520E0CE
:1005D00030E040EA50E4C701B6010E9484171816C3
:1005E000D4F180E49DE0A3E0B0E08093DE0390933B
:1005F000DF03A093E003B093E1034BC02401350176
:1006000077FA709477F87094A3019201B601C7014C
:100610000E94251687FD0CC0A5019401B601C701F3
:100620000E94841724013501181614F026013701A1
:100630004092FB035092FC036092FD037092FE0314
:10064000B5CF20E030E040EA50ECC701B6010E948F
:10065000251687FFC6CFA701960160E074E284E704
:1006600099E40E942A164B015C0120E030E0A901C8
:100670000E94841718160CF0D9C0C501B4010E945D
:10068000A3166093DE037093DF038093E0039093DF
:10069000E10320E030E0A901C701B6010E94841700
:1006A00087FDC8C081E080930C04809112048823E8
:1006B00009F4F3C089859A85892B09F4EEC08091ED
:1006C000070490910804A0910904B0910A04809055
:1006D000E8039090E9034091EA035091EB036091A5
:1006E000EC037091ED03841B950BA60BB70B092C43
:1006F000000CAA08BB0888159905AA05BB0508F4D3
:10070000CCC08091070490910804A0910904B09195
:100710000A048093EA039093EB03A093EC03B09355
:10072000ED03C0901B04D0901C04E0901D04F090D9
:100730001E044090FB035090FC036090FD037090FA
:10074000FE03A3019201C701B6010E94B81520E083
:1007500030E0A9010E94841787FD6EC091E0998363
:10076000C501B4010E94D4162091E4033091E50341
:100770004091E6035091E7030E94D9174B015C01B9
:100780002981622F220F770B880B990B0E94D416B8
:100790009B01AC01C501B4010E94D917A3019201CC
:1007A0000E94B9154B015C018092FB039092FC03FF
:1007B000A092FD03B092FE0320E030E0A9010E9468
:1007C000841787FD3CC081E080930C0489818130CF
:1007D000C1F5A5019401C701B6010E94251618169E
:1007E000DCF52091FB033091FC034091FD03509117
:1007F000FE0360E074E284E799E40E942A166B012C
:100800007C0120E030E0A9010E94841718160CF04A
:10081000B4C0C701B6010E94A3166093DE037093B3
:10082000DF038093E0039093E10337C0C501B40177
:10083000905825CF8FEF37CF2FEF298391CF8FEFB0
:10084000C3CF99819F3F69F6A5019401C701B60105
:100850000E94841787FDC5CFC092FB03D092FC0392
:10086000E092FD03F092FE031092120420E030E0CB
:10087000A901C701B6010E94841718160CF072C0B6
:1008800024EB32EA41E959E3C701B6010E9425167B
:1008900018160CF4A6CF0E943401809107049091A1
:1008A0000804A0910904B0910A044091F703509103
:1008B000F8036091F9037091FA03841B950BA60B62
:1008C000B70B4091DE035091DF036091E00370911C
:1008D000E10384179507A607B70708F48EC0809137
:1008E000070490910804A0910904B0910A04809330
:1008F000F7039093F803A093F903B093FA034091A0
:10090000FF035091000460910104709102048091F2
:10091000250490912604892BA1F5809103049091E0
:100920000404A0910504B091060484179507A60756
:10093000B70739F50E94340180E02A960FB6F89483
:10094000DEBF0FBECDBFDF91CF91FF90EF90DF9064
:10095000CF90BF90AF909F908F907F906F905F905F
:100960004F90089524EB32EA41E959EBC701B601F3
:100970000E94841787FD35CF8ECFC701B6019058EE
:100980004ACF20910C04822F022E000C990BAA0B47
:10099000BB0B840F951FA61FB71F8093FF03909377
:1009A0000004A0930104B093020480910D04121678
:1009B00014F091E08927E0912D04F0912E04882312
:1009C000F9F0809134049081892B808380913304E5
:1009D000E0912B04F0912C049081892B808383E19A
:1009E00090E00197F1F780913304E0912B04F091AE
:1009F0002C049081809589238083809110049DCF61
:100A000080913404908180958923DFCFCF93C1E01A
:100A1000C093100410921304109214041092150441
:100A2000109216040E9492016093F7037093F803EA
:100A30008093F9039093FA036093EE037093EF03AE
:100A40008093F0039093F1036093EA037093EB03B8
:100A50008093EC039093ED0380910F0481110DC0FE
:100A6000C0930F0480911104882339F060910E0423
:100A70008091F603CF910C940601CF9108954F9287
:100A80005F926F927F928F929F92AF92BF92CF921E
:100A9000DF92EF92FF92CF93DF936B017C01C092C4
:100AA0001B04D0921C04E0921D04F0921E0420E06E
:100AB00030E0A9010E94841718160CF077C024EBCF
:100AC00032EA41E959E3C701B6010E94251687FDC4
:100AD00081C00E94060580911F0490912004892BFB
:100AE00009F48DC08090FB039090FC03A090FD035F
:100AF000B090FE03C0901B04D0901C04E0901D0435
:100B0000F0901E04A7019601C501B4010E942516AC
:100B10008823E9F181E080931204C501B4010E94A9
:100B20009C16EB0177FF04C0CC27DD27C61BD70B33
:100B3000C701B6010E949C16AB0177FF04C0442791
:100B40005527461B570B9E01C417D5070CF49A0175
:100B5000032E000C440B550B285E3340410951090C
:100B6000A0E5B9EC0E94821528E33AE440E050E0A9
:100B70000E9455152856354C4F4F5F4F28393A4340
:100B8000DCF588E99AE39093E9038093E803DF9129
:100B9000CF91FF90EF90DF90CF90BF90AF909F905C
:100BA0008F907F906F905F904F90089524EB32EA82
:100BB00041E959EBC701B6010E94841718160CF0E1
:100BC00088CF20E030E0A901C701B6010E94841758
:100BD00087FD0DC084EB92EAA1E9B9E380931B0481
:100BE00090931C04A0931D04B0931E0472CF84EB59
:100BF00092EAA1E9B9EBF2CF88EE93E0C4CF20E00E
:100C000030E0A901C701B6010E942516811110C06C
:100C1000DF91CF91FF90EF90DF90CF90BF90AF909A
:100C20009F908F907F906F905F904F900C943401C5
:100C3000C0901B04D0901C04E0901D04F0901E0492
:100C4000C092FB03D092FC03E092FD03F092FE03FE
:100C500020E030E0A901C701B6010E9484171816F0
:100C6000C4F4A701960160E074E284E799E40E946D
:100C70002A164B015C0120E030E0A9010E94841794
:100C800087FF2DC020E030E040E05FE3C501B40104
:100C900023C046015701B7FAB094B7F8B094A50144
:100CA000940160E074E284E799E40E942A162B0123
:100CB0003C0120E030E0A9010E94841787FF2EC08C
:100CC000A501940160E074E284E799E40E942A1689
:100CD00020E030E040E05FE30E94B81508C020E06B
:100CE00030E040E05FE3C501B4010E94B9150E9405
:100CF0009C166093DE037093DF038093E003909370
:100D0000E10320E030E0A901C701B6010E94841789
:100D100018165CF481E080930C0439CF20E030E0B9
:100D200040E05FE3C301B201E0CF8FEFF4CF8F92D9
:100D30009F92AF92BF92CF92DF92EF92FF924B01C0
:100D40005C010E9492016B017C010E9492016C196E
:100D50007D098E099F09683E734081059105A8F3BE
:100D600021E0821A9108A108B10888EEC80E83E03C
:100D7000D81EE11CF11C81149104A104B10429F7CF
:100D8000FF90EF90DF90CF90BF90AF909F908F90AB
:100D900008952FB7F89460918A0370918B03809126
:100DA0008C0390918D032FBF089520911D03260F72
:100DB0003327331F21323105ECF420914103FC012C
:100DC00090E080E0243069F082E00895A0911D0356
:100DD0002191AC0143505D4FA40FB52FB11D2C9351
:100DE0000196861798F380911D03680F60931D0389
:100DF00080E0089581E0089508958FEF9FEF0895B2
:100E00008FEF9FEF08958091F60290E09195819584
:100E100091090895CF93DF93CB01EA01642F0E94DB
:100E2000D506CE01DF91CF910895CF93DF931F9226
:100E3000CDB7DEB7698361E0CE0101960E94D50689
:100E400081E090E00F90DF91CF91089590E080E0F5
:100E500008950E94C9066856754C8F4F9F4F609346
:100E60009203709393038093940390939503089552
:100E70008F929F92AF92BF92CF92DF92EF92FF92AA
:100E80000F931F93CF93DF93EC014A015B0168013D
:100E900079018091D50381FF5EC085E090E02091CB
:100EA000D703322F3F703230A1F4207F2093D70335
:100EB000488159816A817B818C01092E000C220BAB
:100EC000330B400F511F621F731F488359836A837E
:100ED0007B832091D703322F3F70313099F4207FEC
:100EE0002093D703092E000CAA0BBB0B4881598114
:100EF0006A817B81481B590B6A0B7B0B48835983A2
:100F00006A837B830E94290788819981AA81BB819A
:100F100088159905AA05BB0524F488829982AA82BE
:100F2000BB8288819981AA81BB81C816D906EA064D
:100F3000FB0624F4C882D982EA82FB82DF91CF913A
:100F40001F910F91FF90EF90DF90CF90BF90AF90E7
:100F50009F908F90089581E090E0A1CF4F925F9293
:100F60006F927F928F929F92AF92BF92CF92DF92B9
:100F7000EF92FF92161617061806190654F50E94EE
:100F8000D41620E030E040E251E40E942A1624EA20
:100F900035E141E25CE30E942A160E949C160E9401
:100FA000D4162091F2033091F3034091F403509151
:100FB000F5030E94D917FF90EF90DF90CF90BF907C
:100FC000AF909F908F907F906F905F904F900C9418
:100FD0003F05672B682B692B09F0E9C0809110044D
:100FE000882309F4D3C00E9492016093F7037093A1
:100FF000F8038093F9039093FA036093EE037093E0
:10100000EF038093F0039093F1036093EA037093EE
:10101000EB038093EC039093ED0380912504909172
:101020002604892B09F0BFC060910C04062E000C29
:10103000770B880B990B0E94D4166B017C01609191
:10104000DE037091DF038091E0039091E1030E9441
:10105000D2169B01AC0160E074E284E799E40E943F
:101060002A16A70196010E94D9176093FB0370937B
:10107000FC038093FD039093FE038090FF03909008
:101080000004A0900104B09002049B01AC010E94F6
:10109000D9172091210430912204409123045091CA
:1010A00024040E94D917A70196010E94D9176B0149
:1010B0007C01C501B4010E94D4169B01AC01C7019B
:1010C000B6010E94B9150E949C166B017C01C0926A
:1010D0000304D0920404E0920504F09206048C14F8
:1010E0009D04AE04BF04A9F1409017045090180469
:1010F0006090190470901A0480911F04909120044C
:10110000892B51F020E030E040EA50E4C301B20105
:101110000E94251687FF1BC0A301920160E074E2C4
:1011200084E799E40E942A160E94A3166093DE03C6
:101130007093DF038093E0039093E10381E08C14CC
:101140009D04AE04BF040CF08FEF80930C040E944A
:101150000605C090FB03D090FC03E090FD03F090E7
:10116000FE0320E030E0A901C701B6010E94841708
:10117000181624F0F7FAF094F7F8F094C0921304DC
:10118000D0921404E0921504F0921604FF90EF90B0
:10119000DF90CF90BF90AF909F908F907F906F9097
:1011A0005F904F90089560E070E0CB0104CFFF9016
:1011B000EF90DF90CF90BF90AF909F908F907F90F7
:1011C0006F905F904F900C94340161E08DE00E942D
:1011D000060162E370E080E090E00E94970660E024
:1011E0008DE00E94060162E370E080E090E00C94E4
:1011F0009706CF93DF93D62F682F81E10E940601D7
:1012000060E080E10E940601C8E06D2F661F66273E
:10121000661F82E10E940601DD0F61E083E10E940A
:10122000060160E083E10E940601C15071F761E0B0
:1012300080E1DF91CF910C940601CF93DF93C8EF4B
:10124000D1E060E081E00E94F9082197D1F7DF91B9
:10125000CF9108951F93CF93DF9385ED8093BC00CA
:101260008091F9029091FA02A091FB02B091FC02E8
:101270000796A11DB11D23E0B695A7959795879573
:101280002A95D1F72091BC0024FD03C010924103A0
:1012900052C04091F9025091FA026091FB027091A4
:1012A000FC02452B462B472B69F30097A105B1059E
:1012B00041F02AE22A95F1F700C00197A109B1098E
:1012C000E1CF8091F802C1E0C093F702882399F141
:1012D000D091B8001091BA008091BC008A7B8093B5
:1012E000BC0060E082E10E94060160E083E10E94B0
:1012F000060110924103C09343031092420361E040
:1013000082E10E94060161E083E10E940601809172
:10131000B9008E7F8093B9008091B9008D7F809352
:10132000B90088E48093B80085E48093BC001093F2
:10133000BA00D093B800DF91CF911F9108951F920A
:101340000F920FB60F9211242F933F938F939F9379
:10135000AF93BF9380918A0390918B03A0918C03EC
:10136000B0918D033091890323E0230F2D3758F579
:101370000196A11DB11D2093890380938A03909348
:101380008B03A0938C03B0938D0380918E03909177
:101390008F03A0919003B09191030196A11DB11DFF
:1013A00080938E0390938F03A0939003B093910347
:1013B000BF91AF919F918F913F912F910F900FBE51
:1013C0000F901F90189526E8230F0296A11DB11DBE
:1013D000D2CF1F920F920FB60F9211242F933F93EB
:1013E0004F935F936F937F938F939F93AF93BF932D
:1013F000EF93FF938091B900887F803609F44AC04B
:10140000F0F5883209F4A5C018F5803109F499C0C7
:10141000B8F4882309F4F5C0883009F492C0FF912C
:10142000EF91BF91AF919F918F917F916F915F915C
:101430004F913F912F910F900FBE0F901F901895D5
:10144000883109F486C0803251F78093400314C07C
:10145000803409F49BC040F48033B9F38833F9F643
:101460008093400385ECAEC0803509F483C0883595
:1014700009F494C0883499F60E942A09D0CF88399B
:1014800009F48AC038F5883729F050F4883611F00D
:10149000803729F683E08093410310923F0355C0C3
:1014A000883809F479C0803919F0803809F0B7CF4D
:1014B00080913F03803208F06FC0E0913F0381E0EC
:1014C0008E0F80933F038091BB00F0E0E15EFC4F04
:1014D00080833BC0803B39F0D0F4803A09F477C078
:1014E000883A09F09CCF84E08093410310921E0358
:1014F00010921D03F0E0E0E0099580911D03811139
:101500000FC081E080931D031092FD0209C0803C52
:1015100009F4A8CF883C09F4A5CF883B09F07FCF18
:10152000E0911E0381E08E0F80931E03F0E0E350F4
:10153000FD4F80818093BB0090911E0380911D031D
:1015400029C0809166038093BB0085EC8093BC002A
:1015500066CF9091650380916403981758F5E091E8
:10156000650381E08E0F80936503F0E0EC5BFC4F38
:101570008081E9CFE091650381E08E0F8093650360
:101580008091BB00F0E0EC5BFC4F808390916503A1
:10159000809164039817C8F285E8D8CFE09165037D
:1015A00081E08E0F809365038091BB00F0E0EC5BDF
:1015B000FC4F80838091430381115ECF81E0809353
:1015C000420384EA8093BC001092410328CF85EC4B
:1015D0008093BC001092410380913F03803230F42D
:1015E000E0913F03F0E0E15EFC4F108260913F0329
:1015F00070E08FE193E0F0E0E0E0099510923F03A6
:101600000ECF1092400338CF1F920F920FB60F9259
:1016100011242F933F934F935F936F937F938F93F7
:101620009F93AF93BF93EF93FF930E94B701FF91F6
:10163000EF91BF91AF919F918F917F916F915F914A
:101640004F913F912F910F900FBE0F901F901895C3
:1016500070E09B01285F3E4FF9014491E42FF0E0D8
:10166000EE0FFF1FE250FF4FA591B491AC01440F64
:10167000551F42525C4FFA01E35BFF4FB183A083D9
:10168000F9012491E22FF0E0EE0FFF1FEC50FF4F25
:10169000A591B4914F5A5F4FFA01B183A083605274
:1016A0007F4FFB016491FC01ED5CFB4F6083808107
:1016B0009C91892B8C930895CF92DF92EF92FF92A9
:1016C00080E197E2A0E0B0E08093DE039093DF0337
:1016D000A093E003B093E10388E99AE39093E303D6
:1016E0008093E2031092E4031092E5031092E60364
:1016F0001092E7039093E9038093E8031092EA03C2
:101700001092EB031092EC031092ED031092EE0393
:101710001092EF031092F0031092F10384EE98E31D
:10172000AEE0B1E48093F2039093F303A093F4034B
:10173000B093F5038FEF8093F6031092F7031092A6
:10174000F8031092F9031092FA031092FB0310921F
:10175000FC031092FD031092FE031092FF031092FF
:1017600000041092010410920204109203041092DB
:1017700004041092050410920604109207041092BB
:1017800008041092090410920A0410920B0481E0DC
:1017900080930C0410920D0410920E0410920F040A
:1017A000109210041092110410921204109213045B
:1017B000109214041092150410921604C12CD12C0E
:1017C00086E9E82E83E4F82EC0921704D09218041C
:1017D000E0921904F0921A0410921B0410921C0457
:1017E00010921D0410921E041092200410921F04E7
:1017F00010922104109222041092230410922404C7
:1018000010922604109225041092280410922704A6
:1018100010922A041092290462E090E080E00E9475
:10182000280B63E081E090E00E94280B8AE080931F
:10183000F60361E00E946101C0921704D09218047F
:10184000E0921904F0921A0480911F0490912004F0
:10185000892B61F485E09DE0A0E0B0E08093DE0399
:101860009093DF03A093E003B093E10388EE93E04D
:101870009093E3038093E2038CE291E09093200441
:1018800080931F048EE094E7AAEDBAE380932104CD
:1018900090932204A0932304B093240482E599E456
:1018A000ADE9B9E38093E4039093E503A093E603E5
:1018B000B093E7031092D3031092D2031092D40393
:1018C0001092D6031092D5031092DB031092DD0321
:1018D0001092DC0362E084E00E94610162E08BE030
:1018E0000E94610162E089E00E9461018091D5035C
:1018F0009091D60398609093D6038093D5038091FE
:10190000D8038F778093D8038091DA0380788F6033
:101910008093DA038091D90380788F608093D90314
:101920001092C7031092C6031092C8031092CA0304
:101930001092C9031092CF031092D1031092D003DA
:1019400062E08BE00E9461018091C9039091CA031B
:1019500098609093CA038093C9038091CC038F77DA
:101960008093CC038091CE0380788F608093CE03E8
:101970008091CD0380788F608093CD031092960381
:1019800010929703109298031092990310929A0361
:1019900010929B0310929C0310929D0310929E0341
:1019A00010929F031092A0031092A1031092AE0315
:1019B0001092AF031092B0031092B1031092B803CB
:1019C0001092B9031092BB031092BA038FEF90E00C
:1019D0009093BD038093BC031092BE031092BF038B
:1019E0001092C0031092C1031092C2031092C3035D
:1019F0001092C4031092C5038DEC9CECACE4BEE3E2
:101A00008093B4039093B503A093B603B093B70348
:101A100088EC90E09093B3038093B2038DE39AE057
:101A2000ABE4B1E48093A2039093A303A093A40337
:101A3000B093A5038FE892ECA5E3BFE38093A603E0
:101A40009093A703A093A803B093A90384EA90E717
:101A5000A4E6B2E48093AA039093AB03A093AC03F3
:101A6000B093AD030E94C9066093920370939303F1
:101A70008093940390939503FF90EF90DF90CF9025
:101A80000895CF93DF93CDB7DEB72C970FB6F894B8
:101A9000DEBF0FBECDBF789484B5826084BD84B5AF
:101AA000816084BD85B5826085BD85B5816085BD59
:101AB00080916E00816080936E0010928100809111
:101AC0008100826080938100809181008160809399
:101AD0008100809180008160809380008091B100BE
:101AE00084608093B1008091B00081608093B000E9
:101AF00080917A00846080937A0080917A0082607D
:101B000080937A0080917A00816080937A0080913E
:101B10007A00806880937A001092C10061E08DE0C5
:101B20000E94610162E089E00E94610162E08BE055
:101B30000E94610162E087E00E94610161E086E04D
:101B40000E94610181E090E0909326048093250437
:101B50000E9492016093F7037093F8038093F90356
:101B60009093FA036093EE037093EF038093F00376
:101B70009093F1036093EA037093EB038093EC037B
:101B80009093ED0381E080930D04809311048CE227
:101B900091E09093200480931F048EE094E7AAEDD7
:101BA000BAE38093210490932204A0932304B0937A
:101BB000240482E599E4ADE9B9E38093E4039093CA
:101BC000E503A093E603B093E70320E030EA4EEB91
:101BD00054E46091F2037091F3038091F4039091C7
:101BE000F5030E94D9170E943F058091250490912A
:101BF0002604019709F099C080901B0490901C0462
:101C0000A0901D04B0901E0420E030E0A901C501A1
:101C1000B4010E948417181624F0B7FAB094B7F8EC
:101C2000B094C090FB03D090FC03E090FD03F090D3
:101C3000FE0320E030E0A901C701B6010E9484172D
:101C4000181624F0F7FAF094F7F8F094A70196012B
:101C5000C501B4010E94251687FD02C0750164010B
:101C6000A701960160E074E284E799E40E942A16D5
:101C70000E94A316DC01CB01B695A7959795879591
:101C80000097A105B10509F459C0813020E49207FD
:101C9000A105B10520F080E090E4A0E0B0E0BC0137
:101CA000CD01E4E0660F771F881F991FEA95D1F7F1
:101CB0006F3F71058105910509F008F444C0611575
:101CC00048E074078105910508F4D2C120E230E0B4
:101CD00013E0611550E2750781059105F0F020E4ED
:101CE00030E014E06115A0E47A0781059105A8F0C1
:101CF00020E830E015E06115B0E87B07810591052B
:101D000060F020E031E016E061157105E1E08E073A
:101D1000910518F020E034E017E061157105F4E05A
:101D20008F07910599F420E015C0C0901704D0905A
:101D30001804E0901904F0901A0492CF81E090E02A
:101D4000A0E0B0E0ACCF11E021E030E050E040E0B6
:101D50000E9487158091B000807F82608093B000E0
:101D60001093B10021502093B3008091B10087708F
:101D7000809367030E943401809170008260809399
:101D800070000E9434011092FF0310920004109220
:101D90000104109202041092FB031092FC031092B3
:101DA000FD031092FE0361E080E10E94610161E0A9
:101DB0008FE00E94610161E081E10E94610161E0C8
:101DC00082E10E94610161E083E10E94610160E0C3
:101DD0008FE00E94060161E08FE00E94060161E24F
:101DE00080E00E94F90865E280E00E94F90864E062
:101DF00080E00E94F90864E080E00E94F90860E257
:101E000080E00E94F9086CE080E00E94F90880916F
:101E1000D80380648093D8038091D903807884604C
:101E20008093D9030E94E5080E941D091092BB030C
:101E30001092BA038FEF90E09093BD038093BC03A0
:101E40008091040190910501A0910601B0910701D4
:101E50008093960390939703A0939803B09399036C
:101E60008091DB03811140C181E08093DB0329B1C4
:101E700083B190E09695879596958795827099277E
:101E800022952170282B4091D803842F829583704E
:101E900090E0622F022E000C770B8617970709F44B
:101EA000A0C0322F33703295307F4F7C342B30936B
:101EB000D803880F991F880F991F822B880F41E63E
:101EC00056E164E979E404C075956795579547959F
:101ED0008A95D2F7CA0183709091D703492F45950F
:101EE0004595459545954150840F8295807F9F701B
:101EF000892B8093D703233021F037FF72C0211143
:101F000070C08091D703807F09F46BC00E94C9061E
:101F10006B018091D70321E087FF22E08091D703F6
:101F2000807F822B8093D7039091D80396FF07C0C0
:101F300093E0921B9F70807F892B8093D7038091C1
:101F4000D7038F708093D7038091D5039091D603E8
:101F500084FD0FC02091D90327FD02C090FF09C066
:101F60002091D70332E0320F3F70207F232B209344
:101F7000D7032091D703622F6F703091DA0360FB93
:101F800037F93093DA034091D2035091D30320FF05
:101F900073C02FEF3FEF240F351F3093D3032093EF
:101FA000D203633008F06BC081609093D6038093B6
:101FB000D5038091D5039091D6032091DC03309115
:101FC000DD03B601621B730B6E31710508F05CC056
:101FD00082609093D6038093D503D092DD03C092A4
:101FE000DC0383B1869581702091D5033091D603AF
:101FF00033FB992790F9592F58274091D90350FB6B
:1020000047F94093D903981302C037FF6BC00E9471
:10201000C9066B018091DC039091DD039601281BBA
:10202000390B4091D9038091D5039091D60347FF96
:102030009EC1FC01F068F093D603E093D50383FDC5
:102040003FC096FF23C02333310508F44BC088609E
:1020500090689093D6038093D5038091D703807FB7
:1020600088608093D703D092DD03C092DC033AC02E
:1020700012E028E030E06ACE21E030E08CCF65301D
:1020800008F097CF926091CF8D7FA3CF4091D70377
:10209000407F4093D703AC01506C5093D6034093DC
:1020A000D5032139314010F485FFDDCF1092D403E0
:1020B0008F719F7C906C9093D6038093D503D3CF80
:1020C00084FD42C14F77A0E44A9FA0011124241748
:1020D000350708F02EC12091D703277084609068DF
:1020E00021116DC11092DB030E94B70180E480933F
:1020F0007C0080917A00806480937A0080917A00DD
:1021000086FDFCCF6091780070917900072E000C5D
:10211000880B990B0E94D4169B01AC0160E070EC17
:102120008FE794E40E942A1620E030E040E85FE365
:102130000E94B8159B01AC0160E078E98EE196E45D
:102140000E942A1620E030E543EC57E40E942A164C
:102150000E94911720E030E249E855E40E942A16D7
:102160002FE03FEC4BE55BE30E94B9159B01AC010E
:1021700060E070E080E89FE30E942A1623E333E9E1
:1021800048E853E40E94B8156B017C01809170030C
:1021900081110FC04DEC5CEC6CE47FE340936C0369
:1021A00050936D0360936E0370936F0381E080938F
:1021B000700340906C0350906D0360906E037090BC
:1021C0006F032DEC3CEC4CE45FE3C301B2010E94D1
:1021D000B9159B01AC01C301B2010E942A1669879F
:1021E0007A878B879C878090680390906903A09082
:1021F0006A03B0906B03A5019401C701B6010E9468
:10220000B81529853A854B855C850E94D917A501AB
:1022100094010E94B9156B017C01AC019B01C501C1
:10222000B4010E94B8159F772AE037ED43EA5CE3DA
:102230000E94D9174B015C0129853A854B855C8545
:1022400060E070E080E89FE30E94B815A30192016E
:102250000E94D9179B01AC01C501B4010E94B915B8
:1022600060936C0370936D0380936E0390936F0380
:10227000C0926803D0926903E0926A03F0926B0304
:10228000C0928503D0928603E0928703F092880380
:10229000C0929A03D0929B03E0929C03F0929D031C
:1022A0000E94C9060091810310918203209183034B
:1022B00030918403601B710B820B930B6C32714065
:1022C0008105910508F4A0C00E94C90660938103AE
:1022D0007093820380938303909384030E941D096B
:1022E00088EEE82E82E0F82ED7010D917D010023C3
:1022F00009F47BC060E081E00E94F908B5E00B02C0
:1023000080011124D12CC12CF601E00FF11FE859F6
:10231000FF4F608181E00E94F908EFEFCE1ADE0ADC
:10232000F5E0CF16D10481F760E081E00E94F90862
:10233000DBCF82FDD7CE2091D703207F266020936C
:10234000D70380639068B7CE4091DA034F77B0E24D
:102350004B9FA00111244217530708F0C3CE2091D0
:10236000D703207F27602093D703906AA4CE83FFF2
:102370002FC023333105E0F09C0124713327232B38
:1023800059F42091D703207F25602093D703209113
:10239000D4032F5F2093D403D092DD03C092DC03DB
:1023A00095FD12C0837E94609093D6038093D503ED
:1023B0008091D5039091D60396FF94CE9F7B909306
:1023C000D6038093D5038ECE837E9F7D9461ECCF20
:1023D0004091D403442311F085FF02C09F77E4CFDE
:1023E0002139314028F3806EDFCF60ED77E080E067
:1023F00090E00E94970680917F0390918003019660
:102400009093800380937F0380917F03909180035A
:10241000813A9F4034F040EA5FE05093800340935C
:102420007F038090040190900501A0900601B09078
:102430000701C501B4010E949C166D837E838F83C2
:102440009887C0900001D0900101E0900201F090C7
:102450000301C982DA82EB82FC820E94C9060091E4
:102460009203109193032091940330919503601788
:1024700071078207930720F010927E0310927D036C
:102480008091D703982F9F70953001F5807F8093BE
:10249000D7030E94290780917D0390917E030196C6
:1024A000843091050CF0EAC190937E0380937D0304
:1024B00080917B0390917C03039741F40E94E2009A
:1024C000892B21F010927C0310927B039091D7030B
:1024D000892F8F70863011F580917A03907F9093C9
:1024E000D70320917D0330917E032230310509F41A
:1024F000CCC12330310509F4E2C12130310571F43A
:1025000091E0892780937A03882341F08092960393
:1025100090929703A0929803B09299038091D5036B
:102520009091D60380FF10C08E7F9093D603809346
:10253000D50380917D0390917E038130910509F44C
:10254000C5C1029709F4CFC169817A818B819C81D1
:10255000C616D706E806F90669F060930001709385
:1025600001018093020190930301209179032111CD
:102570000E94AE076D817E818F8198850E94D4165E
:102580006B017C01AC019B01C501B4010E942516C1
:10259000882381F0C0920401D0920501E0920601E7
:1025A000F0920701C0929603D0929703E0929803AD
:1025B000F092990380917A03882309F452C20E9411
:1025C000C9060091C2031091C3032091C403309146
:1025D000C503AB01BC01401B510B620B730B809117
:1025E000B2039091B303092E000CAA0BBB0B481742
:1025F00059076A077B0708F42BC10E94C90660933C
:10260000C2037093C3038093C4039093C503809067
:102610009A0390909B03A0909C03B0909D03A5010A
:102620009401609196037091970380919803909123
:1026300099030E94B8156B017C01A501940160917A
:10264000BE037091BF038091C0039091C1030E94AB
:10265000B81569877A878B879C878092BE03909292
:10266000BF03A092C003B092C1038091B903882335
:1026700069F0F7FAF094F7F8F09489859A85AB85BC
:10268000BC85B05889879A87AB87BC871091B803FF
:10269000412C512C320111110EC02091A203309116
:1026A000A3034091A4035091A503C701B6010E9462
:1026B000D9172B013C018090B4039090B503A090F2
:1026C000B603B090B7032091AA033091AB034091B9
:1026D000AC035091AD0369857A858B859C850E94FA
:1026E000D917A50194010E942A16A30192010E9404
:1026F000B9152B013C012091A6033091A70340910D
:10270000A8035091A903C701B6010E94D917A501DA
:1027100094010E94D9172091AE033091AF034091EC
:10272000B0035091B1030E94B9156B017C01C092B6
:10273000AE03D092AF03E092B003F092B103112345
:10274000D1F02091A2033091A3034091A4035091B2
:10275000A50369857A858B859C850E94D917A70179
:1027600096010E94B9156093AE037093AF038093F6
:10277000B0039093B103C090AE03D090AF03E0904C
:10278000B003F090B1036091BA037091BB03072EC0
:10279000000C880B990B0E94D4164B015C019B0125
:1027A000AC01B601C7010E94251687FDA6C0609145
:1027B000BC037091BD03072E000C880B990B0E947F
:1027C000D4161B018C019B01AC01B601C7010E940C
:1027D0008417181614F461017801C601D70180939B
:1027E000AE039093AF03A093B003B093B1039601EF
:1027F000A701C301B2010E94B9157B018C019B01A5
:10280000AC01B401C5010E94841718160CF478C0FD
:102810006091BC037091BD03072E000C880B990BCF
:102820000E94D4165B016C019B01AC01B701C80189
:102830000E948417181614F475018601C701D80187
:1028400080939E0390939F03A093A003B093A10352
:1028500060919E0370919F038091A0039091A103CA
:102860000E949C166B018B0161E085E00E94610172
:10287000C114D10409F047C060E049C061E070E0D4
:1028800070937E0360937D0313CE8091790391E072
:10289000892780937903882329F0C701B6010E9414
:1028A000AE073CCE80917B0390917C03049721F48A
:1028B00010927C0310927B030E9434012FCE8091F2
:1028C000780391E089278093780328CE08E111E00E
:1028D00020E030E048E750E060E070E0CE0105968F
:1028E0000E94380731CE06E910E020E030E040E0F9
:1028F00050E0BA01CE010196F3CF640175016DCFAE
:10290000740185019BCF0F3F110529F461E085E03B
:102910000E94060126C0E1EDF0E08491833009F4C5
:1029200086C048F48130C9F0823009F47BC0003899
:10293000110564F7A1CF873009F483C0883009F40A
:1029400088C08430A1F780918000806280938000ED
:10295000D0928B00C0928A0004C084B5806884BD88
:10296000C7BC0E94E200892BF1F443E050E0509391
:102970007C0340937B0380917903882361F08091ED
:102980007A03882341F00E94E5080E94E5080E942E
:10299000E5080E94E508109279030E943401109224
:1029A0007A031092780380917F0390918003893B92
:1029B0009B400CF473C0C0908503D0908603E090D8
:1029C0008703F090880320E030E04CE853E4C7012F
:1029D000B6010E94841718160CF048C061E070E040
:1029E00070937C0360937B03109279030E943401FF
:1029F00010927A031092780320E030E040E251EC2C
:102A0000C701B6010E94251687FD3AC060E086E046
:102A10000E94060180E090E0892B09F421CA0E94FF
:102A200000001ECA84B5806284BDC8BC9ACF809164
:102A30008000806880938000D0928900C0928800D6
:102A400090CF8091B00080688093B000C092B300B6
:102A500088CF8091B00080628093B000C092B400B3
:102A600080CF61E085E00E94610106CF20E030E088
:102A700040E251ECC701B6010E94251687FF0EC047
:102A800082E090E090937C0380937B031092790323
:102A90000E94340110927A03109278038091780397
:102AA000882309F4B3CF61E0B2CF052E97FB1EF463
:102AB00000940E946C1557FD07D00E94871507FCF3
:102AC00003D04EF40C946C1550954095309521959B
:102AD0003F4F4F4F5F4F089590958095709561954A
:102AE0007F4F8F4F9F4F08950E94A915A59F900D6E
:102AF000B49F900DA49F800D911D11240895B7FFE0
:102B00000C9474150E947415821B930B0895A1E216
:102B10001A2EAA1BBB1BFD010DC0AA1FBB1FEE1F57
:102B2000FF1FA217B307E407F50720F0A21BB30BA2
:102B3000E40BF50B661F771F881F991F1A9469F71E
:102B400060957095809590959B01AC01BD01CF017A
:102B50000895A29FB001B39FC001A39F700D811D76
:102B60001124911DB29F700D811D1124911D089596
:102B70005058BB27AA270E94D0150C944A170E94D0
:102B80003C1738F00E94431720F039F49F3F19F4A6
:102B900026F40C9439170EF4E095E7FB0C943317E8
:102BA000E92F0E945B1758F3BA176207730784076F
:102BB000950720F079F4A6F50C947D170EF4E095B6
:102BC0000B2EBA2FA02D0B01B90190010C01CA01E7
:102BD000A0011124FF27591B99F0593F50F4503E92
:102BE00068F11A16F040A22F232F342F4427585F84
:102BF000F3CF469537952795A795F0405395C9F79C
:102C00007EF41F16BA0B620B730B840BBAF0915053
:102C1000A1F0FF0FBB1F661F771F881FC2F70EC0F2
:102C2000BA0F621F731F841F48F4879577956795C5
:102C3000B795F7959E3F08F0B0CF9395880F08F0B1
:102C40009927EE0F9795879508950E940F1708F41E
:102C500081E008950E943E160C944A170E94431783
:102C600058F00E943C1740F029F45F3F29F00C9483
:102C7000331751110C947E170C9439170E945B176F
:102C800068F39923B1F3552391F3951B550BBB279B
:102C9000AA2762177307840738F09F5F5F4F220FE0
:102CA000331F441FAA1FA9F335D00E2E3AF0E0E8D7
:102CB00032D091505040E695001CCAF72BD0FE2F21
:102CC00029D0660F771F881FBB1F261737074807B5
:102CD000AB07B0E809F0BB0B802DBF01FF2793586D
:102CE0005F4F3AF09E3F510578F00C9433170C94E7
:102CF0007E175F3FE4F3983ED4F38695779567950A
:102D0000B795F7959F5FC9F7880F911D96958795A1
:102D100097F90895E1E0660F771F881FBB1F6217C0
:102D200073078407BA0720F0621B730B840BBA0B7E
:102D3000EE1F88F7E09508950E94A3166894B111DC
:102D40000C947E1708950E94631788F09F5798F09F
:102D5000B92F9927B751B0F0E1F0660F771F881FA0
:102D6000991F1AF0BA95C9F714C0B13091F00E94BA
:102D70007D17B1E008950C947D17672F782F882771
:102D8000B85F39F0B93FCCF3869577956795B395E1
:102D9000D9F73EF490958095709561957F4F8F4F50
:102DA0009F4F0895E89409C097FB3EF49095809555
:102DB000709561957F4F8F4F9F4F9923A9F0F92F01
:102DC00096E9BB279395F695879577956795B7957F
:102DD000F111F8CFFAF4BB0F11F460FF1BC06F5F65
:102DE0007F4F8F4F9F4F16C0882311F096E911C077
:102DF000772321F09EE8872F762F05C0662371F098
:102E000096E8862F70E060E02AF09A95660F771FAB
:102E1000881FDAF7880F9695879597F90895990F87
:102E20000008550FAA0BE0E8FEEF16161706E80794
:102E3000F907C0F012161306E407F50798F0621BB5
:102E4000730B840B950B39F40A2661F0232B242B8A
:102E5000252B21F408950A2609F4A140A6958FEFA9
:102E6000811D811D089597F99F6780E870E060E0FB
:102E700008959FEF80EC089500240A941616170613
:102E800018060906089500240A941216130614065B
:102E900005060895092E0394000C11F4882352F0BE
:102EA000BB0F40F4BF2B11F460FF04C06F5F7F4F76
:102EB0008F4F9F4F089557FD9058440F551F59F05D
:102EC0005F3F71F04795880F97FB991F61F09F3F17
:102ED00079F087950895121613061406551FF2CF40
:102EE0004695F1DF08C0161617061806991FF1CF90
:102EF00086957105610508940895E894BB276627B7
:102F00007727CB0197F908950E940F1708F48FEFE8
:102F1000089516F00C9446180C94391768940C9484
:102F200033170E946317A8F39923C1F3AEF3DF931D
:102F3000CF931F930F93FF92C92FDD2788232AF089
:102F40002197660F771F881FDAF720E030E040E80E
:102F50005FEB9FE3883920F0803E38F021968F7731
:102F60000E94B915E8E6F0E004C00E94B915E5E951
:102F7000F0E00E9454188B01BE01EC01FB2E6F574C
:102F800071097595771F880B990B0E94D41628E15B
:102F900032E741E35FE30E94EC17AF2D9801AE01E9
:102FA000FF900F911F91CF91DF910E94D0150C944B
:102FB0004A170E94EC170C944A170E943C1738F0ED
:102FC0000E94431720F0952311F00C9433170C94B2
:102FD000391711240C947E170E945B1770F3959F8C
:102FE000C1F3950F50E0551F629FF001729FBB2700
:102FF000F00DB11D639FAA27F00DB11DAA1F649F9C
:103000006627B00DA11D661F829F2227B00DA11D4E
:10301000621F739FB00DA11D621F839FA00D611DD4
:10302000221F749F3327A00D611D231F849F600DF5
:10303000211D822F762F6A2F11249F5750409AF01E
:10304000F1F088234AF0EE0FFF1FBB1F661F771FAA
:10305000881F91505040A9F79E3F510580F00C9475
:1030600033170C947E175F3FE4F3983ED4F38695B4
:1030700077956795B795F795E7959F5FC1F7FE2B15
:10308000880F911D9695879597F908959F3F31F088
:10309000915020F4879577956795B795880F911D86
:1030A0009695879597F90895DF93CF931F930F9384
:1030B000FF92EF92DF927B018C01689406C0DA2EBA
:1030C000EF010E94EC17FE01E894A591259135913E
:1030D00045915591A6F3EF010E94D015FE0197018D
:1030E000A801DA9469F7DF90EF90FF900F911F919C
:1030F000CF91DF910895EE0FFF1F0590F491E02D21
:103100000994F894FFCF1900000000003443000038
:1031100000000000005F00000007000700147F149B
:103120007F14242A7F2A1223130864623649552209
:10313000500005030000001C2241000041221C0039
:1031400014083E081408083E080800503000000823
:1031500008080808006060000020100804023E51C2
:1031600049453E00427F4000426151494621414568
:103170004B311814127F1027454545393C4A4949BF
:103180003001710905033649494936064949291E66
:1031900000363600000056360000081422410014A4
:1031A0001414141400412214080201510906324972
:1031B00079413E7E1111117E7F494949363E414198
:1031C00041227F4141221C7F494949417F09090928
:1031D000013E4149497A7F0808087F00417F41004C
:1031E0002040413F017F081422417F404040407F02
:1031F000020C027F7F0408107F3E4141413E7F095F
:103200000909063E4151215E7F091929464649496F
:10321000493101017F01013F4040403F1F204020D4
:103220001F3F4038403F63140814630708700807C5
:103230006151494543007F414100020408102000CC
:1032400041417F000402010204404040404000012F
:1032500002040020545454787F484444383844448D
:103260004420384444487F3854545418087E090197
:10327000020C5252523E7F0804047800447D400004
:103280002040443D007F1028440000417F40007CE6
:10329000041804787C0804047838444444387C14C6
:1032A000141408081414187C7C08040408485454A6
:1032B0005420043F4440203C4040207C1C204020BF
:1032C0001C3C4030403C44281028440C5050503C9A
:1032D0004464544C44000836410000007F00000064
:1032E00041360800100808100878464146784865BD
:0C32F0006C6C6F20576F726C6421000042
:107E0000112484B714BE81FFF0D085E080938100F7
:107E100082E08093C00088E18093C10086E0809377
:107E2000C20080E18093C4008EE0C9D0259A86E02C
:107E300020E33CEF91E0309385002093840096BBD3
:107E4000B09BFECF1D9AA8958150A9F7CC24DD24C4
:107E500088248394B5E0AB2EA1E19A2EF3E0BF2EE7
:107E6000A2D0813461F49FD0082FAFD0023811F036
:107E7000013811F484E001C083E08DD089C08234E0
:107E800011F484E103C0853419F485E0A6D080C0E4
:107E9000853579F488D0E82EFF2485D0082F10E0AE
:107EA000102F00270E291F29000F111F8ED06801E7
:107EB0006FC0863521F484E090D080E0DECF843638
:107EC00009F040C070D06FD0082F6DD080E0C81688
:107ED00080E7D80618F4F601B7BEE895C0E0D1E017
:107EE00062D089930C17E1F7F0E0CF16F0E7DF06D8
:107EF00018F0F601B7BEE89568D007B600FCFDCFD4
:107F0000A601A0E0B1E02C9130E011968C91119780
:107F100090E0982F8827822B932B1296FA010C0160
:107F200087BEE89511244E5F5F4FF1E0A038BF0790
:107F300051F7F601A7BEE89507B600FCFDCF97BE46
:107F4000E89526C08437B1F42ED02DD0F82E2BD052
:107F50003CD0F601EF2C8F010F5F1F4F84911BD097
:107F6000EA94F801C1F70894C11CD11CFA94CF0C13
:107F7000D11C0EC0853739F428D08EE10CD085E9AC
:107F80000AD08FE07ACF813511F488E018D01DD067
:107F900080E101D065CF982F8091C00085FFFCCF94
:107FA0009093C60008958091C00087FFFCCF809118
:107FB000C00084FD01C0A8958091C6000895E0E648
:107FC000F0E098E1908380830895EDDF803219F02E
:107FD00088E0F5DFFFCF84E1DECF1F93182FE3DFCA
:107FE0001150E9F7F2DF1F91089580E0E8DFEE27F6
:047FF000FF270994CA
:027FFE00040479
:00000001FF
