:020000040000FA
:100000000C9415030C943D030C943D030C943D0398
:100010000C943D030C943D030C943D030C943A174F
:100020000C943D030C943D030C943D030C943D0350
:100030000C943D030C943D030C943D030C943D0340
:100040000C94D5150C943D030C943D030C943D0386
:100050000C943D030C943D030C943D030C943D0320
:100060000C941F160C943D0308000000BE92244916
:10007000123EABAAAA2ABECDCCCC4C3E00000080DA
:10008000BEABAAAAAA3E00000000BF000000803F4D
:100090000000000000084178D3BB4387D1133D190D
:1000A0000E3CC3BD4282AD2B3E68EC8276BED98F3A
:1000B000E1A93E4C80EFFFBE01C4FF7F3F0000007E
:1000C000000000000000003E5B4F5B3E3E6B4F6B4C
:1000D0003E1C3E7C3E1C183C7E3C181C577D571C29
:1000E0001C5E7F5E1C00183C1800FFE7C3E7FF00A2
:1000F00018241800FFE7DBE7FF30483A060E2629F0
:10010000792926407F050507407F05253F5A3CE7B2
:100110003C5A7F3E1C1C08081C1C3E7F14227F2278
:10012000145F5F005F5F06097F017F006689956A43
:10013000606060606094A2FFA29408047E040810CE
:10014000207E201008082A1C08081C2A08081E10F7
:100150001010100C1E0C1E0C30383E3830060E3EAF
:100160000E06000000000000005F0000000700070E
:1001700000147F147F14242A7F2A12231308646238
:1001800036495620500008070300001C2241000099
:1001900041221C002A1C7F1C2A08083E08080080F7
:1001A000703000080808080800006060002010088F
:1001B00004023E5149453E00427F40007249494990
:1001C000462141494D331814127F102745454539C2
:1001D0003C4A4949314121110907364949493646C6
:1001E0004949291E000014000000403400000008A6
:1001F0001422411414141414004122140802015949
:1002000009063E415D594E7C1211127C7F494949D5
:10021000363E414141227F4141413E7F494949416A
:100220007F090909013E414151737F0808087F0099
:10023000417F41002040413F017F081422417F401F
:100240004040407F021C027F7F0408107F3E4141F6
:10025000413E7F090909063E4151215E7F09192966
:1002600046264949493203017F01033F4040403F50
:100270001F2040201F3F4038403F63140814630391
:10028000047804036159494D43007F414141020410
:10029000081020004141417F040201020440404017
:1002A0004040000307080020545478407F2844440D
:1002B000383844444428384444287F385454541827
:1002C00000087E090218A4A49C787F080404780022
:1002D000447D40002040403D007F10284400004104
:1002E0007F40007C047804787C0804047838444417
:1002F0004438FC1824241818242418FC7C0804040E
:1003000008485454542404043F44243C4040207C76
:100310001C2040201C3C4030403C44281028444CC9
:100320009090907C4464544C440008364100000096
:10033000770000004136080002010204023C262337
:10034000263C1EA1A161123A4040207A38545455EF
:1003500059215555794122545478422155547840B9
:1003600020545579400C1E52721239555555593941
:100370005454545939555454580000457C41000296
:10038000457D420001457C407D1211127DF02825FB
:1003900028F07C545545002054547C547C0A097F35
:1003A0004932494949323A4444443A324A48483049
:1003B0003A4141217A3A42402078009DA0A07D3DFB
:1003C0004242423D3D4040403D3C24FF2424487E83
:1003D0004943662B2FFC2F2BFF0929F620C0887E6E
:1003E000090320545479410000447D413048484A73
:1003F00032384040227A007A0A0A727D0D19317D26
:100400002629292F28262929292630484D402038F9
:100410000808080808080808382F10C8ACBA2F10B8
:100420002834FA00007B000008142A142222142A1F
:1004300014085500550055AA55AA55AAFF55FF5551
:10044000FF000000FF00101010FF00141414FF0044
:100450001010FF00FF1010F010F0141414FC001422
:1004600014F700FF0000FF00FF1414F404FC141440
:1004700017101F10101F101F1414141F001010103D
:10048000F0000000001F101010101F10101010F0CE
:1004900010000000FF101010101010101010FF10AE
:1004A000000000FF140000FF00FF00001F101700F5
:1004B00000FC04F414141710171414F404F40000CE
:1004C000FF00F714141414141414F700F714141480
:1004D000171410101F101F141414F4141010F0101F
:1004E000F000001F101F0000001F14000000FC148B
:1004F0000000F010F01010FF10FF141414FF14107F
:1005000010101F00000000F010FFFFFFFFFFF0F0D1
:10051000F0F0F0FFFFFF0000000000FFFF0F0F0FE3
:100520000F0F3844443844FC4A4A4A347E020206DB
:1005300006027E027E0263554941633844443C040E
:10054000407E201E2006027E020299A5E7A5991C86
:100550002A492A1C4C7201724C304A4D4D303048A9
:10056000784830BC625A463D3E494949007E010107
:10057000017E2A2A2A2A2A44445F444440514A449C
:100580004040444A51400000FF0103E080FF00006A
:1005900008086B6B083612362436060F090F060062
:1005A0000018180000001010003040FF0101001F6B
:1005B00001011E00191D1712003C3C3C3C000000CC
:1005C000000060909060000002068CD8702000004F
:1005D0000008000201000003040700000000000002
:1005E000000000000000240027002A000000000096
:1005F0002300260029000102040810204080010287
:10060000040810200102040810200000000025004A
:1006100028002B000404040404040404020202025F
:100620000202030303030303921711241FBECFEF3B
:10063000D8E0DEBFCDBF13E0A0E0B1E0EEECFFE418
:1006400002C005900D92A835B107D9F724E0A8E5BE
:10065000B3E001C01D92A33CB207E1F713E0C5E18E
:10066000D3E004C02197FE010E94B526C431D10712
:10067000C9F70E942E1A0C94E5270C940000FC0187
:1006800020812EBD0DB407FEFDCF2EB5FC012083C9
:10069000089508958230910538F0880F991F880FCA
:1006A000991F05970197F1F708959F92AF92BF9216
:1006B000CF92DF92EF92FF920F931F93CF93DF932E
:1006C000EC016B018885998511E0892B09F010E810
:1006D000F601A0808A2D8123992493948111912C75
:1006E0002C813D814E815F8160E271EA87E090E07C
:1006F0000E949423022FB12CE22EF12C002319F03A
:10070000C7010E944A038A85877F09F04FC08D8503
:100710008F3F89F09A2D912381E009F480E08915BB
:1007200051F0EF85F8898F899923D1F19081892B38
:10073000808399249394E989FA898081998D892B02
:100740008083002319F0C7010E944A038E858F3FE2
:1007500039F0EB89FC898081988D892309F0B12AD1
:10076000E989FA899081898D8095892380838E8596
:100770008F3F11F0F601B08288859985892B09F0A9
:1007800044C0110F1111BACFDF91CF911F910F917A
:10079000FF90EF90DF90CF90BF90AF909F90089523
:1007A0009081809589238083912CC5CFE989FA892E
:1007B0008081998D892B8083002319F0C7010E94C5
:1007C0004A038D858F3F49F0EF85F8898F899A2DEF
:1007D0009123B9F09081892B8083E989FA899081EE
:1007E000898D8095892380838E858F3F09F4BFCFC3
:1007F000EB89FC898081988D892309F4B8CFB12ACF
:10080000B6CF908180958923E7CF1695BBCF8330F3
:1008100081F028F4813099F08230A9F00895873072
:10082000A9F08830C9F08430B1F4809180008F7DC8
:1008300003C0809180008F7780938000089584B5F5
:100840008F7784BD089584B58F7DFBCF8091B000F4
:100850008F778093B00008958091B0008F7DF9CF9D
:10086000CF93DF93E5EDF5E08491EDEFF5E0D491E2
:10087000EBE1F6E0C491CC23A1F081110E940704C2
:10088000EC2FF0E0EE0FFF1FE451FA4FA591B49169
:10089000EC91ED2381E090E009F480E0DF91CF91CD
:1008A000089580E090E0FACF1F93CF93DF93282F35
:1008B00030E0F901E253FA4F8491F901EA50FA4F1E
:1008C000D491F901EC5EF94FC491CC23A9F0162F15
:1008D00081110E940704EC2FF0E0EE0FFF1FE65F8E
:1008E000F94FA591B4918FB7F894EC91111108C00C
:1008F000D095DE23DC938FBFDF91CF911F910895B8
:10090000DE2BF8CFAF92BF92CF92DF92EF92FF92A1
:100910000F931F93CF93DF931F92CDB7DEB78C0158
:100920005B016A01DC018D919C911197892B39F053
:100930001296ED91FC91908181819CBD8DBDF80155
:1009400083858F3F19F060E00E9454047501CA0C42
:10095000DB1CCE14DF04A9F0D7018D917D018983C2
:10096000F80180819181892B29F0CE0101960E94A6
:100970003F03EFCFBE016F5F7F4FC8010E94550359
:10098000E8CFD8011B968C918F3F19F061E00E944F
:10099000540481E00F90DF91CF911F910F91FF9050
:1009A000EF90DF90CF90BF90AF90089510929A048F
:1009B00010929D0410929E0410929F041092A00425
:1009C0001092850410928604109287041092880475
:1009D00080919904882371F01092990480919B046E
:1009E000882341F06091980481E068278091800419
:1009F0000E94540410928504109286041092870479
:100A0000109288040895CF93DF9390E0FC01EA50A0
:100A1000FA4F24918C5E994FFC0184918823C9F090
:100A200090E0880F991FFC01EE51FA4FA591B49107
:100A3000FC01E65FF94FC591D49161110DC09FB7DC
:100A4000F8948C91209582238C9388812823288385
:100A50009FBFDF91CF910895623051F49FB7F89412
:100A60003C91822F809583238C93E8812E2BEFCFAE
:100A70008FB7F894EC912E2B2C938FBFEACF3FB712
:100A8000F8948091F1039091F203A091F303B09157
:100A9000F40326B5A89B05C02F3F19F00196A11DB0
:100AA000B11D3FBFBA2FA92F982F8827BC01CD01B8
:100AB000620F711D811D911D42E0660F771F881F17
:100AC000991F4A95D1F708954F925F926F927F9246
:100AD0008F929F92AF92BF92CF92DF92EF92FF924E
:100AE000CF93DF93CDB7DEB72A970FB6F894DEBF6A
:100AF0000FBECDBF80919A04882309F42BC30E94B6
:100B00003F056093910470939204809393049093B3
:100B100094048091AF049091B0049A878987892BBF
:100B200009F070C18091A9049091AA04892B09F45D
:100B300069C14090A1045090A2046090A3047090F9
:100B4000A40420E030E040EA50E4C301B2010E9476
:100B5000912587FD57C18090910490909204A090B8
:100B60009304B0909404C0907804D0907904E090FD
:100B70007A04F0907B0460916C0470916D04072EF0
:100B8000000C880B990B8C189D08AE08BF088616C0
:100B90009706A806B90608F435C1C60ED71EE81E8A
:100BA000F91EC0927804D0927904E0927A04F0920F
:100BB0007B0480908D0490908E04A0908F04B09060
:100BC0009004C0908904D0908A04E0908B04F09047
:100BD0008C048C189D08AE08BF08C0908504D09086
:100BE0008604E0908704F09088040E94E12420911C
:100BF0006E0430916F0440917004509171040E9412
:100C0000E62569837A838B839C83A7019601C701BC
:100C1000B6010E94E6252091AB043091AC044091CE
:100C2000AD045091AE040E94E6256D837E838F83D0
:100C30009887C501B401B7FE07C066277727CB01A7
:100C4000681979098A099B090E94E1249B01AC017A
:100C50006D817E818F8198850E94912587FD0EC0D0
:100C600020E030E0A901C701B6010E94912587FD6F
:100C700007C020E030E040E85FEB06C0B7FCF9CFEA
:100C800020E030E040E85FE369817A818B819C81DC
:100C90000E94E625A70196010E94C6236B017C01F4
:100CA00080909D0490909E04A0909F04B090A0041A
:100CB00020E030E0A901C501B4010E943224811175
:100CC0004AC053014201B7FAB094B7F8B094A501F5
:100CD0009401B601C7010E94322487FD0CC0960121
:100CE000A701C301B2010E9432245301420187FDD2
:100CF00002C0460157018092850490928604A0921A
:100D00008704B0928804C0908504D0908604E09057
:100D10008704F090880420E030E0A901C701B60103
:100D20000E9491251816D4F520E030E040EA50E406
:100D3000C701B6010E9491251816D4F180E49DE008
:100D4000A3E0B0E08093680490936904A0936A04E0
:100D5000B0936B044BC02401350177FA709477F897
:100D60007094A3019201B601C7010E94322487FD4D
:100D70000CC0A5019401B601C7010E949125240170
:100D80003501181614F0260137014092850450925F
:100D900086046092870470928804B5CF20E030E02A
:100DA00040EA50ECC701B6010E94322487FFC6CF4B
:100DB000A701960160E074E284E799E40E94372479
:100DC0004B015C0120E030E0A9010E94912518163A
:100DD0000CF0D9C0C501B4010E94B024609368042E
:100DE0007093690480936A0490936B0420E030E070
:100DF000A901C701B6010E94912587FDC8C081E005
:100E00008093960480919C04882309F4F3C089851B
:100E10009A85892B09F4EEC08091910490919204F7
:100E2000A0919304B0919404809072049090730404
:100E30004091740450917504609176047091770428
:100E4000841B950BA60BB70B092C000CAA08BB083A
:100E500088159905AA05BB0508F4CCC080919104BA
:100E600090919204A0919304B0919404809374049F
:100E700090937504A0937604B0937704C090A50472
:100E8000D090A604E090A704F090A80440908504B8
:100E9000509086046090870470908804A3019201AA
:100EA000C701B6010E94C52320E030E0A9010E94DD
:100EB000912587FD6EC091E09983C501B4010E9420
:100EC000E12420916E0430916F04409170045091A0
:100ED00071040E94E6254B015C012981622F220FDB
:100EE000770B880B990B0E94E1249B01AC01C50193
:100EF000B4010E94E625A30192010E94C6234B0182
:100F00005C018092850490928604A0928704B0923E
:100F1000880420E030E0A9010E94912587FD3CC0B3
:100F200081E08093960489818130C1F5A501940107
:100F3000C701B6010E9432241816DCF52091850401
:100F400030918604409187045091880460E074E2F7
:100F500084E799E40E9437246B017C0120E030E0B3
:100F6000A9010E94912518160CF0B4C0C701B60162
:100F70000E94B024609368047093690480936A04AB
:100F800090936B0437C0C501B401905825CF8FEF03
:100F900037CF2FEF298391CF8FEFC3CF99819F3F19
:100FA00069F6A5019401C701B6010E94912587FD4C
:100FB000C5CFC0928504D0928604E0928704F09257
:100FC000880410929C0420E030E0A901C701B6011A
:100FD0000E94912518160CF072C024EB32EA41E908
:100FE00059E3C701B6010E94322418160CF4A6CFAB
:100FF0000E94D6048091910490919204A091930450
:10100000B0919404409181045091820460918304D2
:1010100070918404841B950BA60BB70B4091680458
:101020005091690460916A0470916B04841795076C
:10103000A607B70708F48EC080919104909192049E
:10104000A0919304B09194048093810490938204BE
:10105000A0938304B09384044091890450918A043E
:1010600060918B0470918C048091AF049091B004D6
:10107000892BA1F580918D0490918E04A0918F040D
:10108000B091900484179507A607B70739F50E9419
:10109000D60480E02A960FB6F894DEBF0FBECDBF0F
:1010A000DF91CF91FF90EF90DF90CF90BF90AF9006
:1010B0009F908F907F906F905F904F90089524EB5A
:1010C00032EA41E959EBC701B6010E94912587FD3B
:1010D00035CF8ECFC701B60190584ACF20919604E4
:1010E000822F022E000C990BAA0BBB0B840F951FAD
:1010F000A61FB71F8093890490938A04A0938B0442
:10110000B0938C0480919704121614F091E0892713
:10111000E091B704F091B8048823F9F08091BE04FF
:101120009081892B80838091BD04E091B504F0917A
:10113000B6049081892B808383E190E00197F1F7D9
:101140008091BD04E091B504F091B6049081809542
:101150008923808380919A049DCF8091BE049081E1
:1011600080958923DFCFCF93C1E0C0939A0410927A
:101170009D0410929E0410929F041092A0040E945D
:101180003F0560938104709382048093830490935D
:101190008404609378047093790480937A04909324
:1011A0007B04609374047093750480937604909329
:1011B00077048091990481110DC0C09399048091A6
:1011C0009B04882339F06091980480918004CF912A
:1011D0000C945404CF9108954F925F926F927F9236
:1011E0008F929F92AF92BF92CF92DF92EF92FF9237
:1011F000CF93DF936B017C01C092A504D092A6042B
:10120000E092A704F092A80420E030E0A9010E9437
:10121000912518160CF077C024EB32EA41E959E326
:10122000C701B6010E94322487FD81C00E94B30825
:101230008091A9049091AA04892B09F48DC0809013
:10124000850490908604A0908704B0908804C09094
:10125000A504D090A604E090A704F090A804A701EC
:101260009601C501B4010E9432248823E9F181E08E
:1012700080939C04C501B4010E94A924EB0177FF6F
:1012800004C0CC27DD27C61BD70BC701B6010E94BF
:10129000A924AB0177FF04C044275527461B570BF1
:1012A0009E01C417D5070CF49A01032E000C440BC1
:1012B000550B285E334041095109A0E5B9EC0E9465
:1012C0008F2328E33AE440E050E00E94622328564E
:1012D000354C4F4F5F4F28393A43DCF588E99AE3A4
:1012E0009093730480937204DF91CF91FF90EF90FD
:1012F000DF90CF90BF90AF909F908F907F906F9036
:101300005F904F90089524EB32EA41E959EBC70111
:10131000B6010E94912518160CF088CF20E030E02D
:10132000A901C701B6010E94912587FD0DC084EB7C
:1013300092EAA1E9B9E38093A5049093A604A0934F
:10134000A704B093A80472CF84EB92EAA1E9B9EBA9
:10135000F2CF88EE93E0C4CF20E030E0A901C701CE
:10136000B6010E943224811110C0DF91CF91FF900D
:10137000EF90DF90CF90BF90AF909F908F907F9035
:101380006F905F904F900C94D604C090A504D090BD
:10139000A604E090A704F090A804C0928504D0921F
:1013A0008604E0928704F092880420E030E0A901EE
:1013B000C701B6010E9491251816C4F4A701960131
:1013C00060E074E284E799E40E9437244B015C01F9
:1013D00020E030E0A9010E94912587FF2DC020E088
:1013E00030E040E05FE3C501B40123C0460157018E
:1013F000B7FAB094B7F8B094A501940160E074E234
:1014000084E799E40E9437242B013C0120E030E07E
:10141000A9010E94912587FF2EC0A501940160E0DB
:1014200074E284E799E40E94372420E030E040E051
:101430005FE30E94C52308C020E030E040E05FE3A6
:10144000C501B4010E94C6230E94A92460936804C8
:101450007093690480936A0490936B0420E030E0F9
:10146000A901C701B6010E94912518165CF481E01C
:101470008093960439CF20E030E040E05FE3C30181
:10148000B201E0CF8FEFF4CF8F929F92AF92BF92D5
:10149000CF92DF92EF92FF924B015C010E943F05D9
:1014A0006B017C010E943F056C197D098E099F0923
:1014B000683E734081059105A8F321E0821A9108E6
:1014C000A108B10888EEC80E83E0D81EE11CF11C0B
:1014D00081149104A104B10429F7FF90EF90DF90EB
:1014E000CF90BF90AF909F908F9008952FB7F894B2
:1014F0006091ED037091EE038091EF039091F00302
:101500002FBF0895AF92BF92CF92DF92EF92FF92DA
:101510000F931F93CF93DF936C017B018B01040F1B
:10152000151FEB015E01AE18BF08C017D10759F0B7
:101530006991D601ED91FC910190F081E02DC601F9
:101540000995892B79F7C501DF91CF911F910F91F3
:10155000FF90EF90DF90CF90BF90AF9008950F93E2
:101560001F93CF93DF931F92CDB7DEB78C016983B2
:1015700060E0FC01868D0E94540441E050E0BE0111
:101580006F5F7F4FF801838D948D0E9482040F90CE
:10159000DF91CF911F910F910895CF93C82F87FDB1
:1015A000CFE7C093140461E285EF93E00E94AF0A95
:1015B0006C2F606885EF93E00E94AF0A60E285EFD0
:1015C00093E0CF910C94AF0ACF93C82F883008F0E6
:1015D000C7E0C093150461E285EF93E00E94AF0A73
:1015E0006C2F606185EF93E00E94AF0A60E285EFA7
:1015F00093E0CF910C94AF0A8091120487FD13C041
:1016000061E00E94030560E0809112040E9454048E
:1016100061E070E080E090E00E94440A61E0809127
:1016200012040E945404809115040E94E40A8091DF
:1016300014040E94CD0A60E285EF93E00E94AF0A95
:101640006CE085EF93E00C94AF0AFF920F931F9329
:10165000CF93DF9390911604992339F0809117046A
:101660008F5F8917E8F580931704D0911A04D695F7
:10167000D695D69584E5D89F8001112480911B04CE
:101680008695869586958D1780F16D2F606485EF20
:1016900093E00E94AF0AC0911804F09019046C2FD7
:1016A000606885EF93E00E94AF0A61E080911304C7
:1016B0000E9454044F2D50E06C2F70E0461B570BD6
:1016C0004F5F5F4F600F711F685F7E4F8091100406
:1016D000909111040E948204DF5F0C5A1F4FCECFFD
:1016E000109217040E94FC0AC0CF60E485EF93E0DB
:1016F0000E94AF0A83E580931804109219048FE2C8
:1017000080931A0410921B04DF91CF911F910F91C7
:10171000FF9008951F93CF93DF93EC01162F60E2A3
:101720000E94AF0A6CE011116DE0CE01DF91CF9104
:101730001F910C94AF0AFC0177FD55C080859185FF
:10174000681779070CF04FC057FD4DC0828593850F
:10175000481759070CF047C08689823009F444C005
:10176000833009F44EC0813031F48FE290E0861B63
:10177000970BBA01AC01842FA62F93A1691708F427
:10178000962F93A394A19A1708F49A2F94A395A146
:10179000891708F4982F95A396A1981708F4982F05
:1017A00096A3CA0157FD0796E3E095958795EA95BC
:1017B000E1F7A4E5A89FF001A99FF00D1124E60F21
:1017C000F71FE85FFE4FCA0168E070E00E948D26B7
:1017D00041E050E001C0440F8A95EAF78081232B55
:1017E000B9F0842B8083089583E590E0DC01A61B8B
:1017F000B70BBD018FE290E0DC01A41BB50BAD017E
:10180000BACF83E590E0841B950BAB01BC01B3CF4D
:1018100040958423E7CF0895FC016370668B848133
:10182000958126813781613039F0633029F09187C5
:10183000808733872287089531872087938782871F
:1018400008952F923F924F925F926F927F928F9264
:101850009F92AF92BF92CF92DF92EF92FF920F933F
:101860001F93CF93DF93CDB7DEB76A970FB6F89487
:10187000DEBF0FBECDBF9A8F898F7A8369834A01FD
:10188000D22E18870F833701BC2CDC0159962D917D
:101890003C915A972115310509F015C118968D9183
:1018A0009C911997681779070CF0D7C11A968D91FA
:1018B0009C91481759070CF0D0C14C2C512CB6E024
:1018C000CB9E600D711D11247C876B871616170641
:1018D0000CF0C3C1EA2DF0E0FA87E98793E0EE0F40
:1018E000FF1F9A95E1F7F88BEF87CF01840F951FC3
:1018F000181619060CF0B1C1A98DBA8D58968C91A5
:10190000811104C0BFEABD1508F4D394A98DBA8D26
:10191000ED91FC9111970284F385E02DCD0109959D
:10192000B5E0DB9EC0011124E981FA81FC83EB83E1
:10193000312C212C9C012E533F4F388F2F8B4A2D59
:1019400050E05E8B4D8BEF89F88DE20DF31D4491D5
:101950009E828D82D12CC12C69817A81620D731D8A
:101960007A8B698B842F90E09C8B8B8BE98DFA8D21
:10197000A081B18140FF82C0F1E0BF126FC0AF1201
:101980006DC01C96ED91FC912F813885A4014C0D02
:101990005D1D69897A89898D9A8D0995EB89FC8904
:1019A000F595E7954E2F5FEFC51AD50A6D817E81BB
:1019B0008D899E89680F791F7E836D8398E0C91693
:1019C000D10481F6AFEF2A1A3A0AEB81FC81E40DCB
:1019D000F51DFC83EB83F5E02F16310409F0B3CF3E
:1019E0002F81388526153705B9F0A98DBA8DED916F
:1019F000FC91B1E0BB1257C0AB1255C069817A812E
:101A00006B5F7F4F0088F189E02D830128E030E093
:101A1000A401898D9A8D0995A98DBA8DED91FC91BE
:101A200011970688F789E02DCD016A960FB6F894D4
:101A3000DEBF0FBECDBFDF91CF911F910F91FF9001
:101A4000EF90DF90CF90BF90AF909F908F907F905E
:101A50006F905F904F903F902F9009941E96ED915C
:101A6000FC91EF80F88409851A8592014D815E8191
:101A70006B817C81898D9A8D099590CF2F813885D6
:101A80002615370509F48ACF31E0B31207C0A31237
:101A900005C01C96ED91FC91930178CF1E96ED91B7
:101AA000FC917301E0CF6B857C8564197509068410
:101AB000F785E02D73010F8518899201A401898DA6
:101AC0009A8D0995A9CFF901349694913297459151
:101AD0005491D91AB7E0DB9E400D511D1124F90134
:101AE000259134913C8B2B8BFA0125903490FA018F
:101AF0003296749031963491398B32966490319647
:101B0000449041E04C1518F04A1508F07FC0662D4E
:101B1000062C000C770B7C836B83842D042C000C2B
:101B2000990B9E838D83A98DBA8DED91FC911197B0
:101B30000284F385E02DCD010995512CD12CC12CC7
:101B4000EA2DF0E0FA87E9872B2D30E03C872B87E0
:101B5000A401440D511D47FC5A95588F4F8B698144
:101B60007A81660D711D67FC7A957E876D8779890C
:101B7000C71608F051CF2C2D30E04D815E81420F09
:101B8000531FA985BA854A9FC0014B9F900D5A9F4C
:101B9000900D1124FC01E80DF91DF88BEF87852DC0
:101BA000612C4F89588D420F531F5E8B4D8B6714EC
:101BB00008F050C044244394480E877041F4C1019A
:101BC0000196EB89FC89E20DF31DD4901C01D7FE30
:101BD00019C0A98DBA8DED91FC91662D70E0B1E030
:101BE000BB1219C0AB1217C02D853E85620F731F43
:101BF0000484F585E02D2F8138854D895E89898D96
:101C00009A8D0995DD0C6394842DD1CF1E821D829F
:101C10001C821B8288CF4B815C81640F751FAB8552
:101C2000BC856A9FC0016B9F900D7A9F900D112417
:101C300069817A81680F791F0684F785E02DEF802E
:101C4000F88409851A859D014F855889898D9A8D5B
:101C50000995D8CF570CC3948ACF6A960FB6F894DB
:101C6000DEBF0FBECDBFDF91CF911F910F91FF90CF
:101C7000EF90DF90CF90BF90AF909F908F907F902C
:101C80006F905F904F903F902F9008958F929F920A
:101C9000AF92CF92EF92FF920F931F93CF93DF9368
:101CA000EC01262F898D9A8D009709F051C06A307A
:101CB000D1F41D861C868D8948E0849F90011124F3
:101CC0008E859F85820F931F9F878E8781E090E08E
:101CD000DF91CF911F910F91FF90EF90CF90AF9038
:101CE0009F908F9008956D3089F3CC88AD888F894F
:101CF0008823C1F08C859D8536E0C39E800D911DA3
:101D00001124488559854817590764F44E855F8525
:101D10001D861C8638E0A39EC0011124840F951FE8
:101D20009F878E87EA88FB88088919894E855F8599
:101D30006C857D85CE010E94210C2C898C859D852A
:101D400046E0249F800D911D11249D878C87BECF76
:101D50006A3069F41D861C86FC013896E4912D8951
:101D60008E859F85E29F800D911D1124ADCF6D3032
:101D700009F4ACCFFC0134963491631708F4A6CF74
:101D80003296E491E61708F4A1CFFC0132968590D3
:101D90009490462F431B342F47E0349F800C911CB6
:101DA0001124F401329634913196E4913323A9F150
:101DB000EE2399F1CC88F4013596E491AD884F89F2
:101DC000442301F10E2E000CFF0BE30FF11DCE9EFC
:101DD000A001CF9E500D11246C857D85460F571FA5
:101DE00068857985641775076CF44E855F851D8657
:101DF0001C86FC013896E491AE9E400D511D1124C5
:101E00005F874E87EA88FB88088919894E855F8538
:101E10006C857D85CE010E94210CF4013496E491FD
:101E20002C898C859D85E29F800D911D11248DCF7D
:101E30006F927F928F929F92AF92BF92CF92DF92DA
:101E4000EF92FF920F931F93CF93DF93EC016B01FF
:101E50005A0139014801E881F9810284F385E02DB6
:101E60000995E881F9810288F389E02D87019301C2
:101E7000A501B601CE010995A501480D591D415096
:101E80005109E881F9810288F389E02D9301B601B7
:101E9000CE010995E881F9810088F189E02D94014E
:101EA000A501B601CE010995C60CD71CB60161503B
:101EB0007109E881F9810088F189E02D9401A5017B
:101EC000CE010995E881F9810688F789E02DCE01D8
:101ED000DF91CF911F910F91FF90EF90DF90CF9006
:101EE000BF90AF909F908F907F906F9009946F926A
:101EF0007F928F929F92AF92BF92CF92DF92EF929A
:101F0000FF920F931F93CF93DF935C01EB016A0164
:101F1000490138018701DC01ED91FC9162177307DB
:101F200019F5641675062CF0962D872D3A01C92EE9
:101F3000D82E9601261937092F5F3F4F048CF58D57
:101F4000E02DA301BE01C5010995DF91CF911F913D
:101F50000F91FF90EF90DF90CF90BF90AF909F9048
:101F60008F907F906F9008954615570591F426172E
:101F7000370724F0892D4B01C22FD82F9E01281935
:101F800039092F5F3F4F068CF78DE02DA601B40174
:101F9000DACF0284F385E02D0995D501ED91FC910E
:101FA0000488F589E02D83019401A601BE01C501D5
:101FB0000995D501ED91FC910688F789E02DC501C1
:101FC000DF91CF911F910F91FF90EF90DF90CF9015
:101FD000BF90AF909F908F907F906F900994EF92F9
:101FE000FF920F931F93DC011A960D911C911B9782
:101FF00018962D913C911997ED91FC9100A0F1A1BB
:10200000E02D7B0150E040E070E060E009951F9119
:102010000F91FF90EF9008954F925F926F927F9291
:102020008F929F92AF92BF92CF92DF92EF92FF92E8
:102030000F931F93CF93DF936C012B015A0139014A
:102040004801DC01ED91FC910284F385E02D0995B6
:10205000E201640C751CD601ED91FC91C615D70503
:102060005CF40088F189E02D87019401A501BE018F
:10207000C60109952196EFCF0688F789E02DC601A4
:10208000DF91CF911F910F91FF90EF90DF90CF9054
:10209000BF90AF909F908F907F906F905F904F9088
:1020A00009948F929F92AF92BF92CF92DF92EF925C
:1020B000FF920F931F93CF93DF93EC015B014A01D3
:1020C0006901E881F9810284F385E02D0995950184
:1020D0002C0D3D1D21503109E881F9810488F589D5
:1020E000E02D78018401A401B501CE010995E881B4
:1020F000F9810688F789E02DCE01DF91CF911F91FC
:102100000F91FF90EF90DF90CF90BF90AF909F9096
:102110008F9009948F929F92AF92BF92CF92DF924D
:10212000EF92FF920F931F93CF93DF93EC015B012C
:102130004A0169017801E881F9810284F385E02D83
:102140000995C80CD91C860101501109E881F98153
:102150000488F589E02D9501A401B501CE0109950A
:10216000E881F9810688F789E02DCE01DF91CF91D2
:102170001F910F91FF90EF90DF90CF90BF90AF90A5
:102180009F908F900994EF92FF920F931F93DC0121
:10219000ED91FC9100A0F1A1E02D09951F910F9107
:1021A000FF90EF9008950F931F93DC01ED91FC9148
:1021B000068CF78DE02D09951F910F9108950F93CF
:1021C0001F93DC01ED91FC91048CF58DE02D0995B8
:1021D0001F910F910895DC01ED91FC910084F18530
:1021E000E02D09945F926F927F928F929F92AF92AF
:1021F000BF92CF92DF92EF92FF920F931F93CF93F4
:10220000DF936C0159013A01600E711EEA01512CF5
:102210007B01E41AF50A47018C0E9D1E10E000E0D8
:10222000550C0115110511F4FE01549057FE0AC01A
:1022300021E030E0A401B601600F711F85EF93E04B
:102240000E94EB100F5F1F4FA016B10649F72196B1
:10225000C615D70501F7DF91CF911F910F91FF9020
:10226000EF90DF90CF90BF90AF909F908F907F9036
:102270006F905F9008952F923F924F925F926F926E
:102280007F928F929F92AF92BF92CF92DF92EF9206
:10229000FF920F931F93CF93DF9300D000D000D015
:1022A000CDB7DEB73C016A013E832D83FC82EB8211
:1022B0005801A41AB50AB7FE03C0B194A194B1089D
:1022C0008D809E80861A970A97FE03C09194819410
:1022D00091088A149B045CF0902F812F0D811E8140
:1022E0009D838E839C2D8D2D6B01692F782F0C156E
:1022F0001D055CF09D818E817E836D83692F782F13
:10230000902F812F8601C92ED82E1601201A310A4E
:102310002B012D813E81421A530A57FE03C051946E
:1023200041945108710137FE03C03FEFE31AF30AED
:10233000F594E7948D819E81861797075CF5A1E05F
:10234000B0E0BA83A983C016D1064CF1D301ED9158
:10235000FC910484F585E02D2B813C81A8016D81E1
:102360007E818A149B041CF04D815E81B801C301FB
:102370000995E418F508F7FE0AC02D813E81898190
:102380009A81280F391F3E832D83E20CF31C0F5FC7
:102390001F4FD9CF2FEF3FEF3A832983D4CF269613
:1023A0000FB6F894DEBF0FBECDBFDF91CF911F9166
:1023B0000F91FF90EF90DF90CF90BF90AF909F90E4
:1023C0008F907F906F905F904F903F902F900895E7
:1023D00020917F03260F3327331F21323105ECF480
:1023E0002091A303FC0190E080E0243069F082E0BA
:1023F0000895A0917F032191AC01415A5C4FA40F35
:10240000B52FB11D2C930196861798F380917F0309
:10241000680F60937F0380E0089581E008958FEF57
:102420009FEF08958FEF9FEF08958091580390E0FC
:102430009195819591090895CF93DF93CB01EA019E
:10244000642F0E94E811CE01DF91CF910895CF93C0
:10245000DF931F92CDB7DEB7698361E0CE010196AD
:102460000E94E81181E090E00F90DF91CF910895F4
:10247000089590E080E008950E94760A6856754CB1
:102480008F4F9F4F60931C0470931D0480931E0414
:1024900090931F0408958F929F92AF92BF92CF9214
:1024A000DF92EF92FF920F931F93CF93DF93EC0194
:1024B0004A015B016801790180915F0481FF5EC080
:1024C00085E090E020916104322F3F703230A1F41A
:1024D000207F20936104488159816A817B818C012E
:1024E000092E000C220B330B400F511F621F731F6C
:1024F000488359836A837B8320916104322F3F7024
:10250000313099F4207F20936104092E000CAA0B2E
:10251000BB0B488159816A817B81481B590B6A0B2F
:102520007B0B488359836A837B830E943C1288819A
:102530009981AA81BB8188159905AA05BB0524F458
:1025400088829982AA82BB8288819981AA81BB8173
:10255000C816D906EA06FB0624F4C882D982EA82A4
:10256000FB82DF91CF911F910F91FF90EF90DF9051
:10257000CF90BF90AF909F908F90089581E090E0B2
:10258000A1CF4F925F926F927F928F929F92AF9264
:10259000BF92CF92DF92EF92FF921616170618069F
:1025A000190654F50E94E12420E030E040E251E4B5
:1025B0000E94372424EA35E141E25CE30E9437249B
:1025C0000E94A9240E94E12420917C0430917D0482
:1025D00040917E0450917F040E94E625FF90EF9089
:1025E000DF90CF90BF90AF909F908F907F906F9033
:1025F0005F904F900C94EC08672B682B692B09F0C7
:10260000E9C080919A04882309F4D3C00E943F0551
:102610006093810470938204809383049093840474
:10262000609378047093790480937A0490937B0488
:102630006093740470937504809376049093770488
:102640008091AF049091B004892B09F0BFC06091D4
:102650009604062E000C770B880B990B0E94E12440
:102660006B017C01609168047091690480916A0437
:1026700090916B040E94DF249B01AC0160E074E246
:1026800084E799E40E943724A70196010E94E62579
:1026900060938504709386048093870490938804E4
:1026A0008090890490908A04A0908B04B0908C0450
:1026B0009B01AC010E94E6252091AB043091AC0453
:1026C0004091AD045091AE040E94E625A701960109
:1026D0000E94E6256B017C01C501B4010E94E12442
:1026E0009B01AC01C701B6010E94C6230E94A92428
:1026F0006B017C01C0928D04D0928E04E0928F0415
:10270000F09290048C149D04AE04BF04A9F1409093
:10271000A1045090A2046090A3047090A40480913E
:10272000A9049091AA04892B51F020E030E040EAFE
:1027300050E4C301B2010E94322487FF1BC0A301F1
:10274000920160E074E284E799E40E9437240E94D9
:10275000B024609368047093690480936A04909332
:102760006B0481E08C149D04AE04BF040CF08FEF69
:10277000809396040E94B308C0908504D09086048C
:10278000E0908704F090880420E030E0A901C701C0
:10279000B6010E949125181624F0F7FAF094F7F884
:1027A000F094C0929D04D0929E04E0929F04F09217
:1027B000A004FF90EF90DF90CF90BF90AF909F90DC
:1027C0008F907F906F905F904F90089560E070E0E1
:1027D000CB0104CFFF90EF90DF90CF90BF90AF90F0
:1027E0009F908F907F906F905F904F900C94D60445
:1027F00061E08DE00E94540462E370E080E090E0CC
:102800000E94440A60E08DE00E94540462E370E09C
:1028100080E090E00C94440AE8E0F1E088EF91E079
:10282000DF019C011D9221503040E1F71092180405
:1028300080911904833508F483E58093190410927C
:102840001A0480911B048F3208F48FE280931B04DA
:1028500010920204109201041092040410920304D6
:102860000895FC0101900020E9F73197AF01481B62
:10287000590BBC0185EF93E00C94820A8F929F92D2
:10288000AF92BF920F931F93CF93DF93CDB7DEB775
:10289000A1970FB6F894DEBF0FBECDBF19A242308C
:1028A00008F44AE08E010F5D1F4F842E912CB12C4D
:1028B000A12CA50194010E949423E62FB901CA011D
:1028C000EA30F4F4E05DD801EE938D01232B242B44
:1028D000252B79F790E080E0109719F0CD010E9448
:1028E0003114A1960FB6F894DEBF0FBECDBFDF91B5
:1028F000CF911F910F91BF90AF909F908F900895AF
:10290000E95CE1CF4F925F926F927F928F929F929C
:10291000AF92BF92CF92DF92EF92FF920F931F93ED
:10292000CF936B017C01742EAC019B010E94532656
:10293000882399F082E393E0CF911F910F91FF904C
:10294000EF90DF90CF90BF90AF909F908F907F904F
:102950006F905F904F900C94311446015701E894AA
:10296000B7F82FEF3FEF4FE75FE7C501B4010E94D3
:10297000532681110DC02FEF3FEF4FE75FE7C501F1
:10298000B4010E94322418161CF486E393E0D4CFDD
:102990002FEF3FEF4FE75FE4C701B6010E9491259B
:1029A00018161CF48AE393E0C7CF2FEF3FEF4FE7F1
:1029B0005FECC701B6010E94322487FDF3CF20E00F
:1029C00030E0A901C701B6010E94322410E000E006
:1029D00087FF0AC06DE285EF93E00E94460E8C01EE
:1029E000F7FAF094F7F8F094C0E060E070E080E06F
:1029F0009FE37C1641F020E030E040E251E40E9489
:102A00003724CF5FF6CFA70196010E94C6232B0182
:102A10003C010E94B0244B015C014AE00E943E143C
:102A20007C01E00EF11ECC23C1F1C501B4010E946E
:102A3000DF249B01AC01C301B2010E94C5234B01FD
:102A40005C016EE285EF93E00E94460EE80EF91EEF
:102A5000C15018F120E030E040E251E4C501B4017A
:102A60000E94E6252B013C010E94B0244B01B12CB1
:102A7000A12C4AE0C501B4010E943E14E80EF91EE3
:102A8000C501B4010E94DF249B01AC01C301B20166
:102A90000E94C5234B015C01DBCFC701CF911F9181
:102AA0000F91FF90EF90DF90CF90BF90AF909F90ED
:102AB0008F907F906F905F904F9008950E94E027D5
:102AC0001F93CF93DF9385ED8093BC0080915B03D0
:102AD00090915C03A0915D03B0915E030796A11DE8
:102AE000B11D23E0B695A795979587952A95D1F7BF
:102AF0002091BC0024FD03C01092A30352C040915A
:102B00005B0350915C0360915D0370915E03452B04
:102B1000462B472B69F30097A105B10541F02AE246
:102B20002A95F1F700C00197A109B109E1CF809181
:102B30005A03C1E0C0935903882399F1D091B8009A
:102B40001091BA008091BC008A7B8093BC0060E049
:102B500082E10E94540460E083E10E9454041092D8
:102B6000A303C093A5031092A40361E082E10E9435
:102B7000540461E083E10E9454048091B9008E7F87
:102B80008093B9008091B9008D7F8093B90088E46B
:102B90008093B80085E48093BC001093BA00D09372
:102BA000B800DF91CF911F9108951F920F920FB639
:102BB0000F9211242F933F938F939F93AF93BF93C3
:102BC0008091ED039091EE03A091EF03B091F0039B
:102BD0003091EC0323E0230F2D3758F50196A11D0A
:102BE000B11D2093EC038093ED039093EE03A0932B
:102BF000EF03B093F0038091F1039091F203A09161
:102C0000F303B091F4030196A11DB11D8093F1036C
:102C10009093F203A093F303B093F403BF91AF91A9
:102C20009F918F913F912F910F900FBE0F901F900A
:102C3000189526E8230F0296A11DB11DD2CF1F9231
:102C40000F920FB60F9211242F933F934F935F93E0
:102C50006F937F938F939F93AF93BF93EF93FF9364
:102C60008091B900887F803609F44AC0F0F5883237
:102C700009F4A5C018F5803109F499C0B8F4882387
:102C800009F4F5C0883009F492C0FF91EF91BF912B
:102C9000AF919F918F917F916F915F914F913F91F4
:102CA0002F910F900FBE0F901F901895883109F447
:102CB00086C0803251F78093A20314C0803409F497
:102CC0009BC040F48033B9F38833F9F68093A203B4
:102CD00085ECAEC0803509F483C0883509F494C012
:102CE000883499F60E946015D0CF883909F48AC0DB
:102CF00038F5883729F050F4883611F0803729F6F6
:102D000083E08093A3031092A10355C0883809F48F
:102D100079C0803919F0803809F0B7CF8091A103CC
:102D2000803208F06FC0E091A10381E08E0F8093A4
:102D3000A1038091BB00F0E0EF57FC4F80833BC0C4
:102D4000803B39F0D0F4803A09F477C0883A09F032
:102D50009CCF84E08093A3031092800310927F03A2
:102D6000F0E0E0E0099580917F0381110FC081E0E0
:102D700080937F0310925F0309C0803C09F4A8CFC1
:102D8000883C09F4A5CF883B09F07FCFE091800310
:102D900081E08E0F80938003F0E0E15AFC4F808148
:102DA0008093BB009091800380917F0329C0809124
:102DB000C8038093BB0085EC8093BC0066CF9091E4
:102DC000C7038091C603981758F5E091C70381E0C7
:102DD0008E0F8093C703F0E0EA55FC4F8081E9CF66
:102DE000E091C70381E08E0F8093C7038091BB0001
:102DF000F0E0EA55FC4F80839091C7038091C603B1
:102E00009817C8F285E8D8CFE091C70381E08E0F0C
:102E10008093C7038091BB00F0E0EA55FC4F8083AC
:102E20008091A50381115ECF81E08093A40384EAA1
:102E30008093BC001092A30328CF85EC8093BC0044
:102E40001092A3038091A103803230F4E091A1039A
:102E5000F0E0EF57FC4F10826091A10370E081E831
:102E600093E0F0E0E0E009951092A1030ECF1092FC
:102E7000A20338CF1F920F920FB60F9211242F93F7
:102E80003F934F935F936F937F938F939F93AF93F2
:102E9000BF93EF93FF930E946405FF91EF91BF9161
:102EA000AF919F918F917F916F915F914F913F91E2
:102EB0002F910F900FBE0F901F90189570E09B01FF
:102EC0002C5E394FF9014491E42FF0E0EE0FFF1F23
:102ED000E65FF94FA591B491AC01440F551F4859D5
:102EE0005B4FFA01E35BFF4FB183A083F9012491AB
:102EF000E22FF0E0EE0FFF1FEE51FA4FA591B491D3
:102F00004F5A5F4FFA01B183A0836A507A4FFB0199
:102F10006491FC01E354FB4F608380819C91892B79
:102F20008C930895CF92DF92EF92FF9280E197E227
:102F3000A0E0B0E08093680490936904A0936A04D1
:102F4000B0936B0488E99AE390936D0480936C04CA
:102F500010926E0410926F0410927004109271041B
:102F60009093730480937204109274041092750409
:102F700010927604109277041092780410927904DB
:102F800010927A0410927B0484EE98E3AEE0B1E4F0
:102F900080937C0490937D04A0937E04B0937F047F
:102FA0008FEF80938004109281041092820410921B
:102FB0008304109284041092850410928604109267
:102FC0008704109288041092890410928A04109247
:102FD0008B0410928C0410928D0410928E04109227
:102FE0008F04109290041092910410929204109207
:102FF0009304109294041092950481E080939604B7
:1030000010929704109298041092990410929A04C6
:1030100010929B0410929C0410929D0410929E04A6
:1030200010929F041092A004C12CD12C36E9E32EFB
:1030300033E4F32EC092A104D092A204E092A30440
:10304000F092A4041092A5041092A6041092A70472
:103050001092A8041092AA041092A9041092AB0432
:103060001092AC041092AD041092AE041092B00411
:103070001092AF041092B2041092B1041092B404F2
:103080001092B30462E090E080E00E945E1763E07B
:1030900081E090E00E945E178AE08093800461E006
:1030A0000E940305C092A104D092A204E092A3045E
:1030B000F092A4048091A9049091AA04892B61F450
:1030C00085E09DE0A0E0B0E08093680490936904FF
:1030D000A0936A04B0936B0488EE93E090936D0420
:1030E00080936C048CE291E09093AA048093A904ED
:1030F0008EE094E7AAEDBAE38093AB049093AC041E
:10310000A093AD04B093AE0482E599E4ADE9B9E3D0
:1031100080936E0490936F04A0937004B093710435
:1031200010925D0410925C0410925E041092600490
:1031300010925F0410926504109267041092660466
:1031400062E084E00E94030562E08BE00E940305D8
:1031500062E089E00E94030580915F049091600421
:1031600098609093600480935F04809162048F77ED
:10317000809362048091640480788F6080936404FB
:103180008091630480788F6080936304109251046F
:10319000109250041092520410925404109253044E
:1031A0001092590410925B0410925A0462E08BE072
:1031B0000E94030580915304909154049860909369
:1031C000540480935304809156048F77809356045F
:1031D0008091580480788F608093580480915704C0
:1031E00080788F60809357041092200410922104FD
:1031F00010922204109223041092240410922504A9
:103200001092260410922704109228041092290488
:1032100010922A0410922B04109238041092390450
:1032200010923A0410923B0410924204109243040C
:1032300010924504109244048FEF90E0909347045D
:1032400080934604109248041092490410924A0454
:1032500010924B0410924C0410924D0410924E04A4
:1032600010924F048DEC9CECACE4BEE380933E04E2
:1032700090933F04A0934004B093410488EC90E005
:1032800090933D0480933C048DE39AE0ABE4B1E479
:1032900080932C0490932D04A0932E04B0932F04BC
:1032A0008FE892ECA5E3BFE3809330049093310460
:1032B000A0933204B093330484EA90E7A4E6B2E426
:1032C0008093340490933504A0933604B09337046C
:1032D0000E94760A60931C0470931D0480931E0460
:1032E00090931F041092F8031092F70324E530E046
:1032F0003093FA032093F90380E390E09093FC036A
:103300008093FB033093FE032093FD03909300040E
:103310008093FF0310920B04109202041092010498
:10332000109204041092030481E080930A048093B5
:1033300009042FEF3FEF30930804209307043093E4
:1033400006042093050480930C0410920D0410923F
:103350000F0410920E048AE093E09093F60380939A
:10336000F5038CE190E00E94BB26DC0111961C92D3
:103370001E9213961C921E92129780E11B968C93BC
:103380001B9783E11C968C931C978FEF1E968C9352
:103390001E9782E11D968C931D97E4E2F6E0E4917E
:1033A000F0E0EE0FFF1FE65FF94F8591949156967E
:1033B0009C938E935597E6E0F6E0E4915A96EC9351
:1033C0005A97E6E2F6E0E491F0E0EE0FFF1FE65FC9
:1033D000F94F8591949150969C938E931F97E8E0B6
:1033E000F6E0E4915796EC935797E7E2F6E0E49124
:1033F000F0E0EE0FFF1FE65FF94F85919491529632
:103400009C938E935197E9E0F6E0E4915996EC9302
:10341000599740E059E06DE370E014964D935D9349
:103420006D937C93179781E090E019969C938E930F
:1034300018971A961C921A975B961C925B97B093FA
:103440001104A093100481E1809313048FE0809312
:103450001204FF90EF90DF90CF900895CF93DF9309
:10346000CDB7DEB72D970FB6F894DEBF0FBECDBF38
:10347000789484B5826084BD84B5816084BD85B54F
:10348000826085BD85B5816085BD80916E0081605B
:1034900080936E0010928100809181008260809301
:1034A0008100809181008160809381008091800003
:1034B0008160809380008091B10084608093B1002E
:1034C0008091B00081608093B00080917A00846028
:1034D00080937A0080917A00826080937A00809154
:1034E0007A00816080937A0080917A00806880936E
:1034F0007A001092C10061E08DE00E94030562E055
:1035000089E00E94030562E08BE00E94030562E00F
:1035100087E00E94030561E086E00E94030581E0E8
:1035200090E09093B0048093AF040E943F056093B5
:103530008104709382048093830490938404609345
:1035400078047093790480937A0490937B04609359
:10355000740470937504809376049093770481E0EB
:103560008093970480939B048CE291E09093AA044B
:103570008093A9048EE094E7AAEDBAE38093AB04AC
:103580009093AC04A093AD04B093AE0482E599E4AB
:10359000ADE9B9E380936E0490936F04A093700437
:1035A000B093710420E030EA4EEB54E460917C0467
:1035B00070917D0480917E0490917F040E94E625A5
:1035C0000E94EC088091AF049091B004019709F03B
:1035D00099C08090A5049090A604A090A704B090F4
:1035E000A80420E030E0A901C501B4010E949125A2
:1035F000181624F0B7FAB094B7F8B094C0908504C8
:10360000D0908604E0908704F090880420E030E0B9
:10361000A901C701B6010E949125181624F0F7FAF6
:10362000F094F7F8F094A7019601C501B4010E9447
:10363000322487FD02C075016401A701960160E094
:1036400074E284E799E40E9437240E94B024DC01EC
:10365000CB01B695A795979587950097A105B105DC
:1036600009F459C0813020E49207A105B10520F08A
:1036700080E090E4A0E0B0E0BC01CD01E4E0660FA2
:10368000771F881F991FEA95D1F76F3F7105810554
:10369000910509F008F444C0611548E074078105FC
:1036A000910508F424C220E230E013E0611550E2F5
:1036B000750781059105F0F020E430E014E0611514
:1036C000A0E47A0781059105A8F020E830E015E034
:1036D0006115B0E87B078105910560F020E031E0DD
:1036E00016E061157105E1E08E07910518F020E004
:1036F00034E017E061157105F4E08F07910599F446
:1037000020E015C0C090A104D090A204E090A304D2
:10371000F090A40492CF81E090E0A0E0B0E0ACCFC4
:1037200011E021E030E050E040E00E9494238091DD
:10373000B000807F82608093B0001093B100215070
:103740002093B3008091B10087708093CA030E94D8
:10375000D604809170008260809370000E94D6042D
:103760001092890410928A0410928B0410928C0497
:103770001092850410928604109287041092880497
:103780000091100410911104D8011B968C918F3F69
:1037900041F061E00E94030561E0F80183850E9429
:1037A0005404D8018D919C91892B09F4A4C1FFB6D2
:1037B000F8948091C903811127C0EEE1F6E084916D
:1037C000E0E0F6E09491E82FF0E0EE0FFF1FEE51FD
:1037D000FA4FA591B491EC91E92321F461E08AE0DC
:1037E0000E94540461E08AE00E9403058CB5806168
:1037F0008CBD8CB580648CBD61E08DE00E940305BA
:1038000061E08BE00E9403058091C9038F5F809384
:10381000C903FFBE81E0F801838F61E0809113044A
:103820000E9403058091120487FD03C061E00E949D
:10383000030584E08093150488E2809314041092B9
:103840001604109217040E94FC0A1092180480912A
:103850001904833508F483E58093190410921A043F
:1038600080911B048F3208F48FE280931B040E9426
:10387000250B85E20E94CD0A84E00E94E40A0E94A2
:10388000250B0E940C148091620480648093620472
:103890008091630480788460809363040E94F813AD
:1038A0000E940C1410924504109244048FEF90E093
:1038B0009093470480934604809104019091050100
:1038C000A0910601B09107018093200490932104F8
:1038D000A0932204B093230422242394312C8091BA
:1038E000650481116BC181E08093650429B183B1C6
:1038F00090E0969587959695879582709927229561
:103900002170282B40916204842F8295837090E06F
:10391000622F022E000C770B8617970709F4A0C0C0
:10392000322F33703295307F4F7C342B30936204CA
:10393000880F991F880F991F822B880F41E656E147
:1039400064E979E404C075956795579547958A951C
:10395000D2F7CA01837090916104492F459545952E
:10396000459545954150840F8295807F9F70892BA6
:1039700080936104233021F037FF72C0211170C0A1
:1039800080916104807F09F46BC00E94760A6B010C
:103990008091610421E087FF22E080916104807FB3
:1039A000822B809361049091620496FF07C093E09C
:1039B000921B9F70807F892B8093610480916104AA
:1039C0008F708093610480915F049091600484FD06
:1039D0000FC02091630427FD02C090FF09C0209111
:1039E000610432E0320F3F70207F232B209361046B
:1039F00020916104622F6F703091640460FB37F98D
:103A00003093640440915C0450915D0420FF9EC09B
:103A10002FEF3FEF240F351F30935D0420935C049C
:103A2000633008F096C081609093600480935F04D7
:103A300080915F0490916004209166043091670446
:103A4000B601621B730B6E31710508F087C082608E
:103A50009093600480935F04D0926704C0926604E0
:103A600083B18695817020915F043091600433FBAF
:103A7000992790F9592F58274091630450FB47F933
:103A800040936304981302C037FF96C00E94760AE1
:103A90006B0180916604909167049601281B390B95
:103AA0004091630480915F049091600447FFB9C422
:103AB000FC01F068F0936004E0935F0483FD6AC04A
:103AC00096FF4EC02333310508F476C088609068B5
:103AD0009093600480935F0480916104807F88608C
:103AE00080936104D0926704C092660465C012E0BE
:103AF00028E030E018CE61E0F80184850E940305DB
:103B0000D8011A968C911A978B7FE1F460E01C968D
:103B10008C910E945404D8011D968C918F3F41F0E6
:103B200061E00E94030561E0F80185850E9454046C
:103B3000D8011E968C918F3F09F46CCE60E00E94F4
:103B4000030568CE61E0F8018485E3CF21E030E031
:103B500061CF653008F06CCF926066CF8D7F78CFF3
:103B600040916104407F40936104AC01506C5093DC
:103B7000600440935F042139314010F485FFB2CFD7
:103B800010925E048F719F7C906C90936004809380
:103B90005F04A8CF84FD32C44F77A0E44A9FA00100
:103BA00011242417350708F01EC4209161042770E2
:103BB0008460906821115DC4109265040E946405C0
:103BC00080E480937C0080917A00806480937A0006
:103BD00080917A0086FDFCCF609178007091790029
:103BE000072E000C880B990B0E94E1249B01AC016D
:103BF00060E070EC8FE794E40E94372420E030E02E
:103C000040E85FE30E94C5239B01AC0160E078E9D6
:103C10008EE196E40E94372420E030E543EC57E43F
:103C20000E9437240E949E2520E030E249E855E4B6
:103C30000E9437242FE03FEC4BE55BE30E94C62354
:103C40009B01AC0160E070E080E89FE30E943724B4
:103C500023E333E948E853E40E94C5236B017C0168
:103C60008091D30381110FC04DEC5CEC6CE47FE3D9
:103C70004093CF035093D0036093D1037093D2034A
:103C800081E08093D3034090CF035090D0036090A5
:103C9000D1037090D2032DEC3CEC4CE45FE3C30104
:103CA000B2010E94C6239B01AC01C301B2010E9474
:103CB000372469877A878B879C878090CB03909085
:103CC000CC03A090CD03B090CE03A5019401C70111
:103CD000B6010E94C52329853A854B855C850E94E3
:103CE000E625A50194010E94C6236B017C01AC016D
:103CF0009B01C501B4010E94C5239F772AE037EDDF
:103D000043EA5CE30E94E6254B015C0129853A8584
:103D10004B855C8560E070E080E89FE30E94C523EE
:103D2000A30192010E94E6259B01AC01C501B401EB
:103D30000E94C6236093CF037093D0038093D10376
:103D40009093D203C092CB03D092CC03E092CD03E8
:103D5000F092CE03C092E803D092E903E092EA0326
:103D6000F092EB03C0922404D0922504E092260442
:103D7000F09227040E94760A0091E4031091E50373
:103D80002091E6033091E703601B710B820B930BCC
:103D90006C3271408105910508F4E9C00E94760AF1
:103DA0006093E4037093E5038093E6039093E70345
:103DB00062E578E588E693E46093E8037093E903AD
:103DC0008093EA039093EB0380E090E0AAE7B3E4EA
:103DD0008093040190930501A0930601B09307011D
:103DE0000E940C1481E08093090480930A043092AD
:103DF000080420920704309206042092050408E08B
:103E000010E028E030E046EC55E062E070E090E041
:103E100080E00E94F210A9E0B0E0B0930204A09309
:103E2000010482E0E82EF12CF0920404E0920304F5
:103E30006091E8037091E9038091EA039091EB03AC
:103E400041E00E948214ECE3F0E0F0930204E0937E
:103E50000104F0920404E092030460910401709163
:103E60000501809106019091070140E00E948214B3
:103E700004E010E024E030E042EC55E062E070E065
:103E80008AE290E00E94F21040E350E05093020476
:103E900040930104F0920404E09203048EE393E063
:103EA0000E94311408E010E028E030E046EC55E0D4
:103EB0006EE070E090E080E00E94F21069E070E057
:103EC00070930204609301048EE090E090930404E8
:103ED0008093030441E066E676E686E391E40E947F
:103EE000821480E493E00E94311483E090E0909388
:103EF0000204809301048AE190E09093040480938B
:103F0000030441E06BE17FE285E291E40E948214C8
:103F100086E493E00E94311428E030E046EC55E05E
:103F200066E270E090E080E00E94F210A9E0B0E06C
:103F3000B0930204A093010486E290E090930404FD
:103F4000809303048EE493E00E9431140E94250BB9
:103F500060ED77E080E090E00E94440A8091E20307
:103F60009091E30301969093E3038093E2038091A1
:103F7000E2039091E303813A9F4034F080EA9FE0AE
:103F80009093E3038093E2038090040190900501F5
:103F9000A0900601B0900701C501B4010E94A924B8
:103FA0006D837E838F839887C0900001D09001013C
:103FB000E0900201F0900301C982DA82EB82FC8278
:103FC0000E94760A00911C0410911D0420911E0489
:103FD00030911F04601771078207930720F0109239
:103FE000E1031092E00380916104982F9F70953057
:103FF00001F5807F809361040E943C128091E00370
:104000009091E1030196843091050CF048C29093A1
:10401000E1038093E0038091DE039091DF03039737
:1040200041F40E943004892B21F01092DF0310929A
:10403000DE0390916104892F8F70863011F5809195
:10404000DD03907F909361042091E0033091E103C0
:104050002230310509F428C22330310509F43EC26B
:104060002130310571F491E089278093DD038823A5
:1040700041F08092200490922104A0922204B092F8
:10408000230480915F049091600480FF10C08E7FB4
:104090009093600480935F048091E0039091E1032A
:1040A0008130910509F421C2029709F42BC269817C
:1040B0007A818B819C81C616D706E806F90669F0DD
:1040C00060930001709301018093020190930301BA
:1040D0002091DC0321110E94C1126D817E818F81AC
:1040E00098850E94E1246B017C01AC019B01C50114
:1040F000B4010E943224882381F0C0920401D0923E
:104100000501E0920601F0920701C0922004D092CE
:104110002104E0922204F09223048091DD0388239D
:1041200009F4ACC20E94760A00914C0410914D042F
:1041300020914E0430914F04AB01BC01401B510B48
:10414000620B730B80913C0490913D04092E000C8E
:10415000AA0BBB0B481759076A077B0708F42DC148
:104160000E94760A60934C0470934D0480934E0431
:1041700090934F048090240490902504A0902604EE
:10418000B0902704A501940160912004709121044E
:1041900080912204909123040E94C5236B017C012D
:1041A000A5019401609148047091490480914A04EA
:1041B00090914B040E94C52369877A878B879C87DF
:1041C0008092480490924904A0924A04B0924B0411
:1041D00080914304882369F0F7FAF094F7F8F0949B
:1041E00049855A856B857C85705849875A876B87C6
:1041F0007C8710914204412C512C320111110EC0C8
:1042000020912C0430912D0440912E0450912F04C4
:10421000C701B6010E94E6252B013C0180903E04B7
:1042200090903F04A0904004B09041042091340449
:1042300030913504409136045091370469857A8570
:104240008B859C850E94E625A50194010E94372458
:10425000A30192010E94C6232B013C01209130044E
:10426000309131044091320450913304C701B601BA
:104270000E94E625A50194010E94E62520913804BC
:104280003091390440913A0450913B040E94C62376
:104290006B017C01C0923804D0923904E0923A0458
:1042A000F0923B041123D1F020912C0430912D0485
:1042B00040912E0450912F0469857A858B859C85C9
:1042C0000E94E625A70196010E94C6236093380448
:1042D0007093390480933A0490933B04C09038045F
:1042E000D0903904E0903A04F0903B04609144048B
:1042F00070914504072E000C880B990B0E94E12455
:104300004B015C019B01AC01B601C7010E94322444
:1043100087FD02C16091460470914704072E000C8E
:10432000880B990B0E94E12469877D878C019B0192
:10433000AC01B601C7010E94912518161CF4C9846E
:10434000DD847801C601D701809338049093390445
:10435000A0933A04B0933B049601A701C301B201B4
:104360000E94C6237B018C019B01AC01B401C501F5
:104370000E94912518160CF4D2C0609146047091E9
:104380004704072E000C880B990B0E94E1245B0167
:104390006C019B01AC01B701C8010E949125181660
:1043A00014F475018601C701D80180932804909305
:1043B0002904A0932A04B0932B04609128047091DF
:1043C000290480912A0490912B040E94A9246B0156
:1043D0008B0161E085E00E940305C114D10409F05E
:1043E000A1C060E0A3C082FDE7CB20916104207FE3
:1043F00026602093610480639068C7CB4091640479
:104400004F77B0E24B9FA00111244217530708F0E9
:10441000D3CB20916104207F276020936104906AB0
:10442000B4CB83FF2FC023333105E0F09C0124710E
:104430003327232B59F420916104207F256020939A
:10444000610420915E042F5F20935E04D092670484
:10445000C092660495FD12C0837E946090936004C0
:1044600080935F0480915F049091600496FFA4CBD9
:104470009F7B9093600480935F049ECB837E9F7D9F
:104480009461ECCF40915E04442311F085FF02C09B
:104490009F77E4CF2139314028F3806EDFCF30920F
:1044A000E1032092E003B7CD8091DC0391E08927FE
:1044B0008093DC03882329F0C701B6010E94C11252
:1044C000E0CD8091DE039091DF03049721F41092F8
:1044D000DF031092DE030E94D604D3CD8091DB036C
:1044E00091E089278093DB03CCCD08E111E020E047
:1044F00030E048E750E060E070E0CE0105960E94B1
:104500004B12D5CD06E910E020E030E040E050E06D
:10451000BA01CE010196F3CF6401750113CF740186
:10452000850141CF0F3F110529F461E085E00E942C
:10453000540426C0E3EDF5E0E491E33009F484C0CF
:1045400048F4E130C9F0E23009F479C000381105CF
:1045500064F747CFE73009F481C0E83009F486C03A
:10456000E430A1F780918000806280938000D09237
:104570008B00C0928A0004C084B5806884BDC7BC2B
:104580000E943004892BF1F463E070E07093DF0344
:104590006093DE038091DC03882361F08091DD036A
:1045A000882341F00E94F8130E94F8130E94F81328
:1045B0000E94F8131092DC030E94D6041092DD03CF
:1045C0001092DB038091E2039091E303893B9B40CF
:1045D0000CF471C0C090E803D090E903E090EA03C6
:1045E000F090EB0320E030E04CE853E4C701B60163
:1045F0000E94912518160CF046C03092DF032092DD
:10460000DE031092DC030E94D6041092DD031092A8
:10461000DB0320E030E040E251ECC701B6010E942C
:10462000322487FD3AC060E086E00E94540480E0B6
:1046300090E0892B09F453C90E9400004DC984B54C
:10464000806284BDC8BC9CCF8091800080688093CC
:104650008000D0928900C092880092CF8091B000F3
:1046600080688093B000C092B3008ACF8091B00080
:1046700080628093B000C092B40082CF61E085E098
:104680000E940305AECE20E030E040E251ECC701CD
:10469000B6010E94322487FF0EC082E090E0909322
:1046A000DF038093DE031092DC030E94D604109295
:1046B000DD031092DB038091DB03882309F4B3CF81
:1046C00061E0B2CF052E97FB1EF400940E9479237F
:1046D00057FD07D00E94942307FC03D04EF40C949E
:1046E000792350954095309521953F4F4F4F5F4F1F
:1046F000089590958095709561957F4F8F4F9F4F4E
:1047000008950E94B623A59F900DB49F900DA49F7D
:10471000800D911D11240895B7FF0C9481230E94F0
:104720008123821B930B0895A1E21A2EAA1BBB1BA7
:10473000FD010DC0AA1FBB1FEE1FFF1FA217B3076D
:10474000E407F50720F0A21BB30BE40BF50B661F83
:10475000771F881F991F1A9469F760957095809547
:1047600090959B01AC01BD01CF010895A29FB001BE
:10477000B39FC001A39F700D811D1124911DB29F95
:10478000700D811D1124911D08955058BB27AA2733
:104790000E94DD230C9457250E94492538F00E9481
:1047A000502520F039F49F3F19F426F40C94462547
:1047B0000EF4E095E7FB0C944025E92F0E94682554
:1047C00058F3BA17620773078407950720F079F446
:1047D000A6F50C948A250EF4E0950B2EBA2FA02D89
:1047E0000B01B90190010C01CA01A0011124FF279E
:1047F000591B99F0593F50F4503E68F11A16F04099
:10480000A22F232F342F4427585FF3CF4695379597
:104810002795A795F0405395C9F77EF41F16BA0B5C
:10482000620B730B840BBAF09150A1F0FF0FBB1F0A
:10483000661F771F881FC2F70EC0BA0F621F731F53
:10484000841F48F4879577956795B795F7959E3FB0
:1048500008F0B0CF9395880F08F09927EE0F979541
:10486000879508950E941C2508F481E008950E9410
:104870004B240C9457250E94502558F00E9449253E
:1048800040F029F45F3F29F00C94402551110C941D
:104890008B250C9446250E94682568F39923B1F373
:1048A000552391F3951B550BBB27AA276217730756
:1048B000840738F09F5F5F4F220F331F441FAA1FEA
:1048C000A9F335D00E2E3AF0E0E832D091505040A6
:1048D000E695001CCAF72BD0FE2F29D0660F771F54
:1048E000881FBB1F261737074807AB07B0E809F03A
:1048F000BB0B802DBF01FF2793585F4F3AF09E3FBF
:10490000510578F00C9440250C948B255F3FE4F31F
:10491000983ED4F3869577956795B795F7959F5F01
:10492000C9F7880F911D9695879597F90895E1E04D
:10493000660F771F881FBB1F621773078407BA07AC
:1049400020F0621B730B840BBA0BEE1F88F7E09507
:1049500008950E94B0246894B1110C948B25089599
:104960000E94702588F09F5798F0B92F9927B7516A
:10497000B0F0E1F0660F771F881F991F1AF0BA9503
:10498000C9F714C0B13091F00E948A25B1E00895B2
:104990000C948A25672F782F8827B85F39F0B93FA4
:1049A000CCF3869577956795B395D9F73EF49095B6
:1049B0008095709561957F4F8F4F9F4F0895E89434
:1049C00009C097FB3EF490958095709561957F4F57
:1049D0008F4F9F4F9923A9F0F92F96E9BB27939505
:1049E000F695879577956795B795F111F8CFFAF415
:1049F000BB0F11F460FF1BC06F5F7F4F8F4F9F4F46
:104A000016C0882311F096E911C0772321F09EE8A3
:104A1000872F762F05C0662371F096E8862F70E009
:104A200060E02AF09A95660F771F881FDAF7880FE3
:104A30009695879597F90895990F0008550FAA0B39
:104A4000E0E8FEEF16161706E807F907C0F01216A1
:104A50001306E407F50798F0621B730B840B950BA4
:104A600039F40A2661F0232B242B252B21F40895F9
:104A70000A2609F4A140A6958FEF811D811D089596
:104A800097F99F6780E870E060E008959FEF80EC01
:104A9000089500240A9416161706180609060895A4
:104AA00000240A9412161306140605060895092E0A
:104AB0000394000C11F4882352F0BB0F40F4BF2B79
:104AC00011F460FF04C06F5F7F4F8F4F9F4F0895B9
:104AD00057FD9058440F551F59F05F3F71F04795AF
:104AE000880F97FB991F61F09F3F79F08795089594
:104AF000121613061406551FF2CF4695F1DF08C0B3
:104B0000161617061806991FF1CF869571056105CF
:104B100008940895E894BB2766277727CB0197F977
:104B200008950E941C2508F48FEF089516F00C9448
:104B300058260C94462568940C9440250E947025B4
:104B4000A8F39923C1F3AEF3DF93CF931F930F9391
:104B5000FF92C92FDD2788232AF02197660F771F40
:104B6000881FDAF720E030E040E85FEB9FE3883908
:104B700020F0803E38F021968F770E94C623E8E629
:104B8000F0E004C00E94C623E5E9F0E00E9466263A
:104B90008B01BE01EC01FB2E6F5771097595771FD4
:104BA000880B990B0E94E12428E132E741E35FE39F
:104BB0000E94F925AF2D9801AE01FF900F911F9132
:104BC000CF91DF910E94DD230C9457250E94F92597
:104BD0000C9457250E94492538F00E94502520F05A
:104BE000952311F00C9440250C94462511240C9427
:104BF0008B250E94682570F3959FC1F3950F50E0B7
:104C0000551F629FF001729FBB27F00DB11D639F7E
:104C1000AA27F00DB11DAA1F649F6627B00DA11D24
:104C2000661F829F2227B00DA11D621F739FB00DCA
:104C3000A11D621F839FA00D611D221F749F33273A
:104C4000A00D611D231F849F600D211D822F762FD3
:104C50006A2F11249F5750409AF0F1F088234AF0B0
:104C6000EE0FFF1FBB1F661F771F881F915050401C
:104C7000A9F79E3F510580F00C9440250C948B259C
:104C80005F3FE4F3983ED4F3869577956795B795A3
:104C9000F795E7959F5FC1F7FE2B880F911D9695BD
:104CA000879597F908950E941C25880B990B089504
:104CB0009F3F31F0915020F4879577956795B79590
:104CC000880F911D9695879597F90895DF93CF9357
:104CD0001F930F93FF92EF92DF927B018C016894F8
:104CE00006C0DA2EEF010E94F925FE01E894A59195
:104CF0002591359145915591A6F3EF010E94DD2351
:104D0000FE019701A801DA9469F7DF90EF90FF9018
:104D10000F911F91CF91DF91089597FB072E16F405
:104D2000009407D077FD09D00E94A12607FC05D08A
:104D30003EF4909581959F4F0895709561957F4FB2
:104D40000895AA1BBB1B51E107C0AA1FBB1FA617D2
:104D5000B70710F0A61BB70B881F991F5A95A9F724
:104D600080959095BC01CD010895EE0FFF1F059031
:104D7000F491E02D09940F931F93CF93DF9382302A
:104D8000910510F482E090E0E091C104F091C2043A
:104D900030E020E0B0E0A0E0309799F42115310533
:104DA00009F44AC0281B390B24303105D8F58A8113
:104DB0009B816115710589F1FB0193838283FE015B
:104DC00011C0408151810281138148175907E0F0D9
:104DD0004817590799F4109761F012960C9312979F
:104DE00013961C933296CF01DF91CF911F910F91B3
:104DF00008950093C1041093C204F4CF2115310526
:104E000051F04217530738F0A901DB019A01BD01A7
:104E1000DF01F801C1CFEF01F9CF9093C204809375
:104E2000C104CDCFFE01E20FF31F81939193225075
:104E3000310939832883D7CF2091BF043091C00432
:104E4000232B41F420910203309103033093C004DB
:104E50002093BF04209100033091010321153105F7
:104E600041F42DB73EB74091040350910503241B34
:104E7000350BE091BF04F091C004E217F307A0F4F2
:104E80002E1B3F0B2817390778F0AC014E5F5F4FA0
:104E90002417350748F04E0F5F1F5093C00440930E
:104EA000BF04819391939FCFF0E0E0E09CCFCF933C
:104EB000DF930097E9F0FC01329713821282A091F0
:104EC000C104B091C204ED0130E020E01097A1F4DC
:104ED00020813181820F931F2091BF043091C00443
:104EE0002817390709F061C0F093C004E093BF04AC
:104EF000DF91CF910895EA01CE17DF07E8F54A81E7
:104F00005B819E0141155105B1F7E901FB83EA83FD
:104F100049915991C40FD51FEC17FD0761F48081A9
:104F200091810296840F951FE9019983888382817C
:104F300093819B838A83F0E0E0E012968D919C91AF
:104F400013970097B9F52D913C911197CD010296D9
:104F5000820F931F2091BF043091C0042817390796
:104F600039F6309751F51092C2041092C104B093F3
:104F7000C004A093BF04BCCFD383C28340815181BE
:104F8000840F951FC817D90761F44E5F5F4F888162
:104F90009981480F591F518340838A819B81938354
:104FA00082832115310509F0B0CFF093C204E0935C
:104FB000C1049ECFFD01DC01C0CF13821282D7CF86
:104FC00081E090E0F8940C94E527F894FFCF190065
:104FD000000000003443000000000000000000005A
:104FE00000000000000000000000000000000000C1
:104FF000000000000000000000000000C0E0F0F829
:10500000FCFCFEFFFCE000000000000000000000CF
:105010000000000000000000000000000000000090
:105020000000000000000000000000000000000080
:105030000000000000000000000000F8F8F8F8F898
:10504000F8F8F8F8F8F8F8F0F0E0E0C080C0FCFFFD
:10505000FFFFFF7F3F7FFFFFFFFFFF00000000001B
:105060000000000000000000000000000000000040
:105070000000000000000000000000000000000030
:105080000000000000000000000000000000000020
:105090000F1F3F7FFFFFFFFFFFFFFFFFE7C7C78730
:1050A0008F9F9FFFFFFFC1C0E0FCFFFFFFFFFFFCE2
:1050B000FCFCFCFEFEFEFCFCF8F8F0E0C0C00000CA
:1050C00000000000000000000000000000000000E0
:1050D00000000000000000000000000000000000D0
:1050E0000000000000000080C0E0F1FBFFFFFFFFB8
:1050F000FF7F1F0F0F87E7FFFFFF1F1F3FF9F8F824
:10510000F8F8F8F8FDFFFFFFFFFFFFFFFFFF7F3F0D
:105110000F07010000000000000000000000000078
:10512000000000000000000000000000000000007F
:10513000000000000000000000F0FEFFFFFFFFFF86
:10514000FFFFFFFFFFFE7E3F3F0F1FFFFFFFFCF053
:10515000E0F1FFFFFFFFFFFCF00101010101010190
:10516000010000000000000000000000000000003E
:10517000000000000000000000000000000000002F
:105180000000000000000000000000000003030316
:1051900003030303030101010100000000000000FC
:1051A000030F1F3F7F7FFFFFFFFF7F7F1F03000075
:1051B00000000000000000000000000000000000EF
:1051C00000000000000000000000000000000000DF
:1051D000C304800000000000460E820A3912381213
:1051E0009B0B4903EB10C310DF10D3103B11490395
:1051F0000C0C8A0B8A1051100C10EF0F770F180F40
:105200006E616E00696E66006F7666004300206D09
:105210006D2F7300206D6574657273004578742E70
:06522000204C6F616400E8
:107E0000112484B714BE81FFF0D085E080938100F7
:107E100082E08093C00088E18093C10086E0809377
:107E2000C20080E18093C4008EE0C9D0259A86E02C
:107E300020E33CEF91E0309385002093840096BBD3
:107E4000B09BFECF1D9AA8958150A9F7CC24DD24C4
:107E500088248394B5E0AB2EA1E19A2EF3E0BF2EE7
:107E6000A2D0813461F49FD0082FAFD0023811F036
:107E7000013811F484E001C083E08DD089C08234E0
:107E800011F484E103C0853419F485E0A6D080C0E4
:107E9000853579F488D0E82EFF2485D0082F10E0AE
:107EA000102F00270E291F29000F111F8ED06801E7
:107EB0006FC0863521F484E090D080E0DECF843638
:107EC00009F040C070D06FD0082F6DD080E0C81688
:107ED00080E7D80618F4F601B7BEE895C0E0D1E017
:107EE00062D089930C17E1F7F0E0CF16F0E7DF06D8
:107EF00018F0F601B7BEE89568D007B600FCFDCFD4
:107F0000A601A0E0B1E02C9130E011968C91119780
:107F100090E0982F8827822B932B1296FA010C0160
:107F200087BEE89511244E5F5F4FF1E0A038BF0790
:107F300051F7F601A7BEE89507B600FCFDCF97BE46
:107F4000E89526C08437B1F42ED02DD0F82E2BD052
:107F50003CD0F601EF2C8F010F5F1F4F84911BD097
:107F6000EA94F801C1F70894C11CD11CFA94CF0C13
:107F7000D11C0EC0853739F428D08EE10CD085E9AC
:107F80000AD08FE07ACF813511F488E018D01DD067
:107F900080E101D065CF982F8091C00085FFFCCF94
:107FA0009093C60008958091C00087FFFCCF809118
:107FB000C00084FD01C0A8958091C6000895E0E648
:107FC000F0E098E1908380830895EDDF803219F02E
:107FD00088E0F5DFFFCF84E1DECF1F93182FE3DFCA
:107FE0001150E9F7F2DF1F91089580E0E8DFEE27F6
:047FF000FF270994CA
:027FFE00040479
:00000001FF
