:100000000C940F030C9437030C9437030C943703B0
:100010000C9437030C9437030C9437030C94D115CC
:100020000C9437030C9437030C9437030C94370368
:100030000C9437030C9437030C9437030C94370358
:100040000C946C140C9437030C9437030C94370302
:100050000C9437030C9437030C9437030C94370338
:100060000C94B6140C94370308000000BE92244987
:10007000123EABAAAA2ABECDCCCC4C3E00000080DA
:10008000BEABAAAAAA3E00000000BF000000803F4D
:100090000000000000084178D3BB4387D1133D190D
:1000A0000E3CC3BD4282AD2B3E68EC8276BED98F3A
:1000B000E1A93E4C80EFFFBE01C4FF7F3F0000007E
:1000C000000000000000003E5551553E3E6B6F6B36
:1000D0003E0C1E3C1E0C081C3E1C081C4A7F4A1C81
:1000E000185C7F5C18001C1C1C007F6363637F002E
:1000F0001C141C007F636B637F30484D3307062957
:1001000079290620503F020C607F05353F2A1C7775
:100110001C2A007F3E1C08081C3E7F0014227F2200
:1001200014005F005F0006097F017F4A555555297D
:10013000606060606054627F625408047E04080856
:10014000103F100808082A1C08081C2A08081C1060
:100150001010101C3E083E1C303C3F3C30061E7EFA
:100160001E06000000000000005F000000070007FE
:1001700000147F147F14242A7F2A12231308646238
:1001800036495620500000070000001C22410000A4
:1001900041221C0014083E081408083E080800A06C
:1001A00060000008080808080060600000201008CF
:1001B00004023E5149453E44427F4040426151491C
:1001C000462141454B311814127F102745454539CA
:1001D0003C4A494930017109050336494949360607
:1001E0004949291E006C6C000000AC6C000008142A
:1001F0002241001414141414004122140802015165
:1002000009063E415D555E7C1211127C7F494949C9
:10021000363E414141227F4141221C7F49494941AB
:100220007F090909013E4149497A7F0808087F0092
:10023000417F41002040413F017F081422417F401F
:100240004040607F020C027F7F0408107F3E4141E6
:10025000413E7F090909063E4151215E7F09192966
:1002600046464949493103017F01033F4040403F31
:100270001F2040201F3F403C403F63140814630789
:10028000087008076151494543007F41410002045D
:100290000810200041417F00040201020440404058
:1002A0004040000102040020545454787F484444E4
:1002B000383844444448384444487F3854545418E7
:1002C000087E090102085454583C7F080404780051
:1002D000447D40002040443D007F101028440041F0
:1002E0007F40007C047804787C0804047838444417
:1002F00044387C141414080814140C7C7C0804047E
:10030000084854545424043F4440203C4040207C3E
:100310001C2040201C3C4038403C44281028440C01
:100320005050503C4464544C440008364100000096
:100330007F000000413608000201020402704844B8
:100340004870000E110E0000121F10000012191646
:10035000000011150B000007041F0000171509000D
:10036000000E15090000011D0300000A150A000017
:1003700012150E000004040400FFFFFFFFFF3E0003
:100380000000003E3E0000003E3E003E003E3E00BB
:100390003E3E58640464587F3E1C087F7F081C3E24
:1003A0007F7F7F007F7F083E2222222222223E087A
:1003B000400040004060004000406000700040602D
:1003C000007000787C004000407C007E00407C0093
:1003D0007E007F1C774141414141414141414141C2
:1003E0007F001C77415D5D4141415D5D5D5D415D2B
:1003F0005D5D5D417F00221C141C2200081C08006A
:100400000000770000465D555D317C555455440829
:10041000082A0808001408140008142208147F4150
:1004200071311F03057F050322147F552202557D7C
:100430000502060909060044445F44441C141C22BA
:100440007F203E613E2020503F020C807C203C40BB
:10045000443C047C44000008000038555455187E84
:1004600008107F01081008040214082214080E0660
:100470000A102020100A060E383028040202042830
:1004800030387E1111117E7F494949317F494949F0
:10049000367F01010103C07F417FC07F4949494147
:1004A00077087F087741494949367F1008047F7CE7
:1004B0002112097C7F08142241403E01017F7F0206
:1004C0000C027F7F0808087F3E4141413E7F0101C9
:1004D000017F7F090909063E4141412201017F0157
:1004E00001074848483F0E117F110E63140814633A
:1004F0007F40407FC0070808087F7F407F407F7FA4
:10050000407F40FF017F4848307F4848307F7F4828
:10051000484830224149493E7F083E413E4629191C
:10052000097F20545454783C4A4A49317C545454ED
:10053000287C0404040CC078447CC03854545418FB
:100540006C107C106C44545454287C2010087C7C23
:100550004026107C7C10102844403804047C7C0821
:1005600010087C7C1010107C38444444387C04040F
:10057000047C7C14141408384444444804047C0467
:10058000040C5050503C1824FC24184428102844D3
:100590007C40407CC00C1010107C7C407C407C7CFB
:1005A000407C40FC047C5050207C5050207C7C508F
:1005B00050502028445454387C103844384834145F
:1005C000147C000000080002010000030407000082
:1005D00000000000000000000000240027002A00A6
:1005E000000000002300260029000102040810205A
:1005F00040800102040810200102040810200000BD
:100600000000250028002B00040404040404040452
:100610000202020202020303030303032916112448
:100620001FBECFEFD8E0DEBFCDBF13E0A0E0B1E04A
:10063000EAE6FBE402C005900D92AA33B107D9F7B0
:1006400024E0AAE3B3E001C01D92A53AB207E1F7A6
:1006500013E0CFE0D3E004C02197FE010E94832481
:10066000CE30D107C9F70E94B2180C94B3250C9470
:100670000000FC0120812EBD0DB407FEFDCF2EB57C
:10068000FC01208308958230910538F0880F991F6E
:10069000880F991F05970197F1F708959F92AF92E0
:1006A000BF92CF92DF92EF92FF920F931F93CF935F
:1006B000DF93EC016B018885998511E0892B09F0A6
:1006C00010E8F601A0808A2D81239924939481114A
:1006D000912C2C813D814E815F8160E271EA87E03F
:1006E00090E00E946721022FB12CE22EF12C002312
:1006F00019F0C7010E9443038A85877F09F04FC024
:100700008D858F3F89F09A2D912381E009F480E057
:10071000891551F0EF85F8898F899923D1F190815E
:10072000892B808399249394E989FA898081998D12
:10073000892B8083002319F0C7010E9443038E8513
:100740008F3F39F0EB89FC898081988D892309F0EE
:10075000B12AE989FA899081898D809589238083DE
:100760008E858F3F11F0F601B08288859985892B9F
:1007700009F044C0110F1111BACFDF91CF911F9131
:100780000F91FF90EF90DF90CF90BF90AF909F9030
:1007900008959081809589238083912CC5CFE98924
:1007A000FA898081998D892B8083002319F0C701F4
:1007B0000E9443038D858F3F49F0EF85F8898F892B
:1007C0009A2D9123B9F09081892B8083E989FA8948
:1007D0009081898D8095892380838E858F3F09F450
:1007E000BFCFEB89FC898081988D892309F4B8CF2C
:1007F000B12AB6CF908180958923E7CF1695BBCFDC
:10080000AF92BF92CF92DF92EF92FF920F931F931E
:10081000CF93DF936C017B018B01040F151FEB015C
:100820005E01AE18BF08C017D10759F06991D60113
:10083000ED91FC910190F081E02DC6010995892B85
:1008400079F7C501DF91CF911F910F91FF90EF9044
:10085000DF90CF90BF90AF900895833081F028F45F
:10086000813099F08230A9F008958730A9F088305E
:10087000C9F08430B1F4809180008F7D03C08091F5
:1008800080008F7780938000089584B58F7784BD32
:10089000089584B58F7DFBCF8091B0008F778093D2
:1008A000B00008958091B0008F7DF9CFCF93DF9392
:1008B000E9ECF5E08491E1EFF5E0D491EFE0F6E0CA
:1008C000C491CC23A1F081110E942D04EC2FF0E003
:1008D000EE0FFF1FE052FA4FA591B491EC91ED237A
:1008E00081E090E009F480E0DF91CF91089580E00D
:1008F00090E0FACF1F93CF93DF93282F30E0F901D8
:10090000EE53FA4F8491F901E651FA4FD491F9016F
:10091000E85FF94FC491CC23A9F0162F81110E94F2
:100920002D04EC2FF0E0EE0FFF1FE250FA4FA591DF
:10093000B4918FB7F894EC91111108C0D095DE23D3
:10094000DC938FBFDF91CF911F910895DE2BF8CFFD
:10095000AF92BF92CF92DF92EF92FF920F931F93CD
:10096000CF93DF931F92CDB7DEB78C015B016A0195
:10097000DC018D919C911197892B39F01296ED91A4
:10098000FC91908181819CBD8DBD60E0F8018385E3
:100990000E947A047501CA0CDB1CCE14DF04A9F096
:1009A000D7018D917D018983F80180819181892B07
:1009B00029F0CE0101960E943903EFCFBE016F5F8F
:1009C0007F4FC8010E944E03E8CF61E0D8011B961B
:1009D0008C910E947A0481E00F90DF91CF911F915A
:1009E0000F91FF90EF90DF90CF90BF90AF90089560
:1009F00010927C0410927F04109280041092810463
:100A00001092820410926704109268041092690494
:100A100010926A0480917B04882371F010927B0409
:100A200080917D04882341F060917A0481E06827F9
:100A3000809162040E947A04109267041092680404
:100A40001092690410926A040895CF93DF9390E0A6
:100A5000FC01E651FA4F2491885F994FFC01849183
:100A60008823C9F090E0880F991FFC01EA52FA4FE1
:100A7000A591B491FC01E250FA4FC591D491611156
:100A80000DC09FB7F8948C91209582238C93888118
:100A9000282328839FBFDF91CF910895623051F4BE
:100AA0009FB7F8943C91822F809583238C93E881A3
:100AB0002E2BEFCF8FB7F894EC912E2B2C938FBF6A
:100AC000EACF3FB7F8948091B0039091B103A09121
:100AD000B203B091B30326B5A89B05C02F3F19F010
:100AE0000196A11DB11D3FBFBA2FA92F982F8827AE
:100AF000BC01CD01620F711D811D911D42E0660F89
:100B0000771F881F991F4A95D1F708954F925F92DA
:100B10006F927F928F929F92AF92BF92CF92DF920D
:100B2000EF92FF92CF93DF93CDB7DEB72A970FB640
:100B3000F894DEBF0FBECDBF80917C04882309F4FA
:100B40002BC30E94610560937304709374048093B7
:100B500075049093760480919104909192049A8701
:100B60008987892B09F070C180918B0490918C0446
:100B7000892B09F469C140908304509084046090EB
:100B800085047090860420E030E040EA50E4C30120
:100B9000B2010E94642387FD57C180907304909036
:100BA0007404A0907504B0907604C0905A04D0905C
:100BB0005B04E0905C04F0905D0460914E047091E1
:100BC0004F04072E000C880B990B8C189D08AE085B
:100BD000BF0886169706A806B90608F435C1C60EE2
:100BE000D71EE81EF91EC0925A04D0925B04E09210
:100BF0005C04F0925D0480906F0490907004A0906B
:100C00007104B0907204C0906B04D0906C04E090BA
:100C10006D04F0906E048C189D08AE08BF08C0905B
:100C20006704D0906804E0906904F0906A040E9420
:100C3000B4222091500430915104409152045091BB
:100C400053040E94B92369837A838B839C83A70111
:100C50009601C701B6010E94B92320918D043091FD
:100C60008E0440918F04509190040E94B9236D83AB
:100C70007E838F839887C501B401B7FE07C06627BE
:100C80007727CB01681979098A099B090E94B42248
:100C90009B01AC016D817E818F8198850E946423C8
:100CA00087FD0EC020E030E0A901C701B6010E9417
:100CB000642387FD07C020E030E040E85FEB06C01A
:100CC000B7FCF9CF20E030E040E85FE369817A814A
:100CD0008B819C810E94B923A70196010E949921D2
:100CE0006B017C0180907F0490908004A09081042F
:100CF000B090820420E030E0A901C501B4010E9457
:100D0000052281114AC053014201B7FAB094B7F8E5
:100D1000B094A5019401B601C7010E94052287FD88
:100D20000CC09601A701C301B2010E940522530124
:100D3000420187FD02C046015701809267049092EC
:100D40006804A0926904B0926A04C0906704D090CD
:100D50006804E0906904F0906A0420E030E0A901A2
:100D6000C701B6010E9464231816D4F520E030E0D4
:100D700040EA50E4C701B6010E9464231816D4F17A
:100D800080E49DE0A3E0B0E080934A0490934B049C
:100D9000A0934C04B0934D044BC02401350177FA65
:100DA000709477F87094A3019201B601C7010E9474
:100DB000052287FD0CC0A5019401B601C7010E9460
:100DC000642324013501181614F0260137014092DE
:100DD0006704509268046092690470926A04B5CF07
:100DE00020E030E040EA50ECC701B6010E94052245
:100DF00087FFC6CFA701960160E074E284E799E41B
:100E00000E940A224B015C0120E030E0A9010E940F
:100E1000642318160CF0D9C0C501B4010E948322C6
:100E200060934A0470934B0480934C0490934D0458
:100E300020E030E0A901C701B6010E94642387FDCC
:100E4000C8C081E08093780480917E04882309F4EF
:100E5000F3C089859A85892B09F4EEC080917304CB
:100E600090917404A0917504B0917604809054041C
:100E70009090550440915604509157046091580445
:100E800070915904841B950BA60BB70B092C000C11
:100E9000AA08BB0888159905AA05BB0508F4CCC0AB
:100EA0008091730490917404A0917504B0917604BC
:100EB0008093560490935704A0935804B093590418
:100EC000C0908704D0908804E0908904F0908A0450
:100ED00040906704509068046090690470906A04C0
:100EE000A3019201C701B6010E94982120E030E0E1
:100EF000A9010E94642387FD6EC091E09983C5011A
:100F0000B4010E94B42220915004309151044091C8
:100F10005204509153040E94B9234B015C01298172
:100F2000622F220F770B880B990B0E94B4229B0132
:100F3000AC01C501B4010E94B923A30192010E9432
:100F400099214B015C018092670490926804A09201
:100F50006904B0926A0420E030E0A9010E94642391
:100F600087FD3CC081E08093780489818130C1F5A0
:100F7000A5019401C701B6010E9405221816DCF5EF
:100F800020916704309168044091690450916A048B
:100F900060E074E284E799E40E940A226B017C011C
:100FA00020E030E0A9010E94642318160CF0B4C0C0
:100FB000C701B6010E94832260934A0470934B04D8
:100FC00080934C0490934D0437C0C501B4019058F0
:100FD00025CF8FEF37CF2FEF298391CF8FEFC3CF5F
:100FE00099819F3F69F6A5019401C701B6010E944E
:100FF000642387FDC5CFC0926704D0926804E09255
:101000006904F0926A0410927E0420E030E0A901A5
:10101000C701B6010E94642318160CF072C024EBBD
:1010200032EA41E959E3C701B6010E9405221816C8
:101030000CF4A6CF0E94F80480917304909174047C
:10104000A0917504B09176044091630450916404BA
:101050006091650470916604841B950BA60BB70B19
:1010600040914A0450914B0460914C0470914D049E
:1010700084179507A607B70708F48EC080917304FC
:1010800090917404A0917504B091760480936304E8
:1010900090936404A0936504B093660440916B043C
:1010A00050916C0460916D0470916E048091910474
:1010B00090919204892BA1F580916F049091700416
:1010C000A0917104B091720484179507A607B70721
:1010D00039F50E94F80480E02A960FB6F894DEBF36
:1010E0000FBECDBFDF91CF91FF90EF90DF90CF90FB
:1010F000BF90AF909F908F907F906F905F904F9038
:10110000089524EB32EA41E959EBC701B6010E9488
:10111000642387FD35CF8ECFC701B60190584ACFE3
:1011200020917804822F022E000C990BAA0BBB0B86
:10113000840F951FA61FB71F80936B0490936C04B8
:10114000A0936D04B0936E0480917904121614F08C
:1011500091E08927E0919904F0919A048823F9F0AD
:101160008091A0049081892B808380919F04E091DD
:101170009704F09198049081892B808383E190E01B
:101180000197F1F780919F04E0919704F091980402
:10119000908180958923808380917C049DCF80916C
:1011A000A004908180958923DFCFCF93C1E0C093C5
:1011B0007C0410927F04109280041092810410929B
:1011C00082040E94610560936304709364048093B9
:1011D00065049093660460935A0470935B04809353
:1011E0005C0490935D04609356047093570480935D
:1011F00058049093590480917B0481110DC0C093D1
:101200007B0480917D04882339F060917A04809179
:101210006204CF910C947A04CF9108954F925F921B
:101220006F927F928F929F92AF92BF92CF92DF92F6
:10123000EF92FF92CF93DF936B017C01C092870402
:10124000D0928804E0928904F0928A0420E030E091
:10125000A9010E94642318160CF077C024EB32EA2F
:1012600041E959E3C701B6010E94052287FD81C00B
:101270000E94D50880918B0490918C04892B09F4ED
:101280008DC08090670490906804A0906904B0902D
:101290006A04C0908704D0908804E0908904F0909C
:1012A0008A04A7019601C501B4010E940522882382
:1012B000E9F181E080937E04C501B4010E947C22A3
:1012C000EB0177FF04C0CC27DD27C61BD70BC70176
:1012D000B6010E947C22AB0177FF04C0442755274A
:1012E000461B570B9E01C417D5070CF49A01032E19
:1012F000000C440B550B285E334041095109A0E511
:10130000B9EC0E94622128E33AE440E050E00E94F8
:1013100035212856354C4F4F5F4F28393A43DCF57D
:1013200088E99AE39093550480935404DF91CF9118
:10133000FF90EF90DF90CF90BF90AF909F908F90F5
:101340007F906F905F904F90089524EB32EA41E9CF
:1013500059EBC701B6010E94642318160CF088CF20
:1013600020E030E0A901C701B6010E94642387FD97
:101370000DC084EB92EAA1E9B9E3809387049093CE
:101380008804A0938904B0938A0472CF84EB92EA14
:10139000A1E9B9EBF2CF88EE93E0C4CF20E030E0D2
:1013A000A901C701B6010E940522811110C0DF9179
:1013B000CF91FF90EF90DF90CF90BF90AF909F9034
:1013C0008F907F906F905F904F900C94F804C09036
:1013D0008704D0908804E0908904F0908A04C09239
:1013E0006704D0926804E0926904F0926A0420E0F5
:1013F00030E0A901C701B6010E9464231816C4F4A5
:10140000A701960160E074E284E799E40E940A2251
:101410004B015C0120E030E0A9010E94642387FFBA
:101420002DC020E030E040E05FE3C501B40123C0FF
:1014300046015701B7FAB094B7F8B094A5019401EA
:1014400060E074E284E799E40E940A222B013C01E7
:1014500020E030E0A9010E94642387FF2EC0A5018F
:10146000940160E074E284E799E40E940A2220E09B
:1014700030E040E05FE30E94982108C020E030E0C7
:1014800040E05FE3C501B4010E9499210E947C22E3
:1014900060934A0470934B0480934C0490934D04E2
:1014A00020E030E0A901C701B6010E9464231816AC
:1014B0005CF481E08093780439CF20E030E040E0B4
:1014C0005FE3C301B201E0CF8FEFF4CF8F929F9221
:1014D000AF92BF92CF92DF92EF92FF924B015C01ED
:1014E0000E9461056B017C010E9461056C197D09F8
:1014F0008E099F09683E734081059105A8F321E09C
:10150000821A9108A108B10888EEC80E83E0D81E9F
:10151000E11CF11C81149104A104B10429F7FF908E
:10152000EF90DF90CF90BF90AF909F908F900895F5
:101530002FB7F8946091AC037091AD038091AE0326
:101540009091AF032FBF08950F931F93CF93DF9315
:101550001F92CDB7DEB78C01698360E0FC01868DF8
:101560000E947A0441E050E0BE016F5F7F4FF801B6
:10157000838D948D0E94A8040F90DF91CF911F91CD
:101580000F910895CF93C82F883008F0C7E0C0931B
:10159000F70361E287ED93E00E94A40A6C2F60617B
:1015A00087ED93E00E94A40A60E287ED93E0CF917B
:1015B0000C94A40ACF93C82F87FDCFE7C093F603FE
:1015C00061E287ED93E00E94A40A6C2F606887EDCA
:1015D00093E00E94A40A60E287ED93E0CF910C941F
:1015E000A40A8091F40387FD13C061E00E942505E1
:1015F00060E08091F4030E947A0461E070E080E092
:1016000090E00E94660A61E08091F4030E947A04EF
:101610008091F7030E94C20A8091F6030E94DA0AC1
:1016200060E287ED93E00E94A40A6CE087ED93E00E
:101630000C94A40AFF920F931F93CF93DF93909182
:10164000F803992339F08091F9038F5F8917E8F542
:101650008093F903D091FC03D695D695D69584E571
:10166000D89F800111248091FD03869586958695EB
:101670008D1780F16D2F606487ED93E00E94A40ABE
:10168000C091FA03F090FB036C2F606887ED93E044
:101690000E94A40A61E08091F5030E947A044F2D14
:1016A00050E06C2F70E0461B570B4F5F5F4F600F91
:1016B000711F685F7E4F8091F2039091F3030E9447
:1016C000A804DF5F0C5A1F4FCECF1092F9030E947F
:1016D000F10AC0CF60E487ED93E00E94A40A83E59D
:1016E0008093FA031092FB038FE28093FC03109225
:1016F000FD03DF91CF911F910F91FF9008951F93EC
:10170000CF93DF93EC01162F60E20E94A40A6CE0F5
:1017100011116DE0CE01DF91CF911F910C94A40ABD
:10172000DF92EF92FF920F931F93CF93DF93FC0111
:101730008B01EA0177FD46C080859185681779079E
:101740000CF040C057FD3EC082859385481759076D
:10175000CCF58689823009F453C0833009F45AC02D
:10176000813009F05EC08FE290E0861B970B7A0112
:10177000AC0197FF02C0495F5F4F63E05595479505
:101780006A95E1F7A4E5A49FB001A59F700D11240F
:10179000E60EF71EA701485F5E4F7A01DA01DC9082
:1017A00068E070E00E945B2441E050E0BA0102C0B2
:1017B000660F771F8A95E2F7CB01232BA9F18D29BC
:1017C000D7018C939C2F202F83A1081708F4802F1A
:1017D00083A384A1821708F4802F84A385A198177E
:1017E00008F48C2F85A386A1891708F48C2F86A373
:1017F000DF91CF911F910F91FF90EF90DF900895AF
:10180000A3E5EA2EF12CE61AF70A8FE290E0841B9A
:10181000950BAECF73E5E72EF12CE41AF50AC8015B
:10182000A7CFCA017B01A4CF80958D21C9CF089590
:10183000FC016370668B84819581268137816130DC
:1018400039F0633029F091878087338722870895A4
:10185000318720879387828708952F923F924F92F6
:101860005F926F927F928F929F92AF92BF92CF9230
:10187000DF92EF92FF920F931F93CF93DF93CDB739
:10188000DEB76A970FB6F894DEBF0FBECDBF9A8F52
:10189000898F7A8369834A01D22E18870F83370193
:1018A000BC2CDC0159962D913C915A97211531059C
:1018B00009F015C118968D919C91199768177907B1
:1018C0000CF0D7C11A968D919C91481759070CF0CE
:1018D000D0C14C2C512CB6E0CB9E600D711D112453
:1018E0007C876B87161617060CF0C3C1EA2DF0E053
:1018F000FA87E98793E0EE0FFF1F9A95E1F7F88BDF
:10190000EF87CF01840F951F181619060CF0B1C18F
:10191000A98DBA8D58968C91811104C0BFEABD156E
:1019200008F4D394A98DBA8DED91FC91119702849E
:10193000F385E02DCD010995B5E0DB9EC0011124B2
:10194000E981FA81FC83EB83312C212C9C012E53FD
:101950003F4F388F2F8B4A2D50E05E8B4D8BEF8998
:10196000F88DE20DF31D44919E828D82D12CC12C05
:1019700069817A81620D731D7A8B698B842F90E067
:101980009C8B8B8BE98DFA8DA081B18140FF82C049
:10199000F1E0BF126FC0AF126DC01C96ED91FC91CB
:1019A0002F813885A4014C0D5D1D69897A89898D47
:1019B0009A8D0995EB89FC89F595E7954E2F5FEF98
:1019C000C51AD50A6D817E818D899E89680F791F20
:1019D0007E836D8398E0C916D10481F6AFEF2A1A91
:1019E0003A0AEB81FC81E40DF51DFC83EB83F5E005
:1019F0002F16310409F0B3CF2F813885261537050E
:101A0000B9F0A98DBA8DED91FC91B1E0BB1257C030
:101A1000AB1255C069817A816B5F7F4F0088F18975
:101A2000E02D830128E030E0A401898D9A8D09958D
:101A3000A98DBA8DED91FC9111970688F789E02D5B
:101A4000CD016A960FB6F894DEBF0FBECDBFDF9111
:101A5000CF911F910F91FF90EF90DF90CF90BF90AB
:101A6000AF909F908F907F906F905F904F903F903E
:101A70002F9009941E96ED91FC91EF80F8840985D2
:101A80001A8592014D815E816B817C81898D9A8D51
:101A9000099590CF2F8138852615370509F48ACF0F
:101AA00031E0B31207C0A31205C01C96ED91FC9162
:101AB000930178CF1E96ED91FC917301E0CF6B8579
:101AC0007C85641975090684F785E02D73010F85FF
:101AD00018899201A401898D9A8D0995A9CFF901E0
:101AE00034969491329745915491D91AB7E0DB9E80
:101AF000400D511D1124F901259134913C8B2B8B04
:101B0000FA0125903490FA0132967490319634910E
:101B1000398B329664903196449041E04C1518F020
:101B20004A1508F07FC0662D062C000C770B7C83CD
:101B30006B83842D042C000C990B9E838D83A98DBF
:101B4000BA8DED91FC9111970284F385E02DCD01C2
:101B50000995512CD12CC12CEA2DF0E0FA87E987A8
:101B60002B2D30E03C872B87A401440D511D47FCF1
:101B70005A95588F4F8B69817A81660D711D67FC6C
:101B80007A957E876D877989C71608F051CF2C2DFD
:101B900030E04D815E81420F531FA985BA854A9F6F
:101BA000C0014B9F900D5A9F900D1124FC01E80D30
:101BB000F91DF88BEF87852D612C4F89588D420FC9
:101BC000531F5E8B4D8B671408F050C04424439420
:101BD000480E877041F4C1010196EB89FC89E20D42
:101BE000F31DD4901C01D7FE19C0A98DBA8DED91BB
:101BF000FC91662D70E0B1E0BB1219C0AB1217C0AA
:101C00002D853E85620F731F0484F585E02D2F819D
:101C100038854D895E89898D9A8D0995DD0C63948F
:101C2000842DD1CF1E821D821C821B8288CF4B81C6
:101C30005C81640F751FAB85BC856A9FC0016B9F7B
:101C4000900D7A9F900D112469817A81680F791F18
:101C50000684F785E02DEF80F88409851A859D01BB
:101C60004F855889898D9A8D0995D8CF570CC39483
:101C70008ACF6A960FB6F894DEBF0FBECDBFDF9154
:101C8000CF911F910F91FF90EF90DF90CF90BF9079
:101C9000AF909F908F907F906F905F904F903F900C
:101CA0002F9008958F929F92AF92CF92EF92FF92D2
:101CB0000F931F93CF93DF93EC01262F898D9A8D7D
:101CC000009709F051C06A30D1F41D861C868D89B9
:101CD00048E0849F900111248E859F85820F931F79
:101CE0009F878E8781E090E0DF91CF911F910F91C8
:101CF000FF90EF90CF90AF909F908F9008956D30B0
:101D000089F3CC88AD888F898823C1F08C859D8527
:101D100036E0C39E800D911D1124488559854817D2
:101D2000590764F44E855F851D861C8638E0A39EA6
:101D3000C0011124840F951F9F878E87EA88FB8836
:101D4000088919894E855F856C857D85CE010E9445
:101D50002D0C2C898C859D8546E0249F800D911D3E
:101D600011249D878C87BECF6A3069F41D861C863E
:101D7000FC013896E4912D898E859F85E29F800D28
:101D8000911D1124ADCF6D3009F4ACCFFC01349618
:101D90003491631708F4A6CF3296E491E61708F45D
:101DA000A1CFFC01329685909490462F431B342F8F
:101DB00047E0349F800C911C1124F4013296349139
:101DC0003196E4913323A9F1EE2399F1CC88F40103
:101DD0003596E491AD884F89442301F10E2E000C15
:101DE000FF0BE30FF11DCE9EA001CF9E500D1124DD
:101DF0006C857D85460F571F688579856417750743
:101E00006CF44E855F851D861C86FC013896E49136
:101E1000AE9E400D511D11245F874E87EA88FB88D6
:101E2000088919894E855F856C857D85CE010E9464
:101E30002D0CF4013496E4912C898C859D85E29FCC
:101E4000800D911D11248DCF6F927F928F929F9262
:101E5000AF92BF92CF92DF92EF92FF920F931F93B8
:101E6000CF93DF93EC016B015A0139014801E881FE
:101E7000F9810284F385E02D0995E881F9810288D2
:101E8000F389E02D87019301A501B601CE010995E3
:101E9000A501480D591D41505109E881F981028879
:101EA000F389E02D9301B601CE010995E881F9810E
:101EB0000088F189E02D9401A501B601CE010995B4
:101EC000C60CD71CB60161507109E881F981008800
:101ED000F189E02D9401A501CE010995E881F981F0
:101EE0000688F789E02DCE01DF91CF911F910F91E8
:101EF000FF90EF90DF90CF90BF90AF909F908F902A
:101F00007F906F9009946F927F928F929F92AF9281
:101F1000BF92CF92DF92EF92FF920F931F93CF93D6
:101F2000DF935C01EB016A01490138018701DC01A3
:101F3000ED91FC916217730719F5641675062CF084
:101F4000962D872D3A01C92ED82E960126193709CC
:101F50002F5F3F4F048CF58DE02DA301BE01C5011D
:101F60000995DF91CF911F910F91FF90EF90DF9036
:101F7000CF90BF90AF909F908F907F906F9008957B
:101F80004615570591F42617370724F0892D4B0184
:101F9000C22FD82F9E01281939092F5F3F4F068C79
:101FA000F78DE02DA601B401DACF0284F385E02D90
:101FB0000995D501ED91FC910488F589E02D830107
:101FC0009401A601BE01C5010995D501ED91FC91D1
:101FD0000688F789E02DC501DF91CF911F910F9100
:101FE000FF90EF90DF90CF90BF90AF909F908F9039
:101FF0007F906F900994EF92FF920F931F93DC01F3
:102000001A960D911C911B9718962D913C9119973A
:10201000ED91FC9100A0F1A1E02D7B0150E040E0AA
:1020200070E060E009951F910F91FF90EF90089587
:102030004F925F926F927F928F929F92AF92BF92D8
:10204000CF92DF92EF92FF920F931F93CF93DF9384
:102050006C012B015A0139014801DC01ED91FC9121
:102060000284F385E02D0995E201640C751CD6010C
:10207000ED91FC91C615D7055CF40088F189E02D3F
:1020800087019401A501BE01C60109952196EFCFF4
:102090000688F789E02DC601DF91CF911F910F913E
:1020A000FF90EF90DF90CF90BF90AF909F908F9078
:1020B0007F906F905F904F9009948F929F92AF9214
:1020C000BF92CF92DF92EF92FF920F931F93CF9325
:1020D000DF93EC015B014A016901E881F981028427
:1020E000F385E02D099595012C0D3D1D21503109F9
:1020F000E881F9810488F589E02D78018401A40143
:10210000B501CE010995E881F9810688F789E02DAE
:10211000CE01DF91CF911F910F91FF90EF90DF9053
:10212000CF90BF90AF909F908F9009948F929F9285
:10213000AF92BF92CF92DF92EF92FF920F931F93D5
:10214000CF93DF93EC015B014A0169017801E881DB
:10215000F9810284F385E02D0995C80CD91C86010C
:1021600001501109E881F9810488F589E02D950174
:10217000A401B501CE010995E881F9810688F789A6
:10218000E02DCE01DF91CF911F910F91FF90EF9045
:10219000DF90CF90BF90AF909F908F90099408955B
:1021A000EF92FF920F931F93DC01ED91FC9100A041
:1021B000F1A1E02D09951F910F91FF90EF900895E7
:1021C0000F931F93DC01ED91FC91068CF78DE02DB0
:1021D00009951F910F9108950F931F93DC01ED91C5
:1021E000FC91048CF58DE02D09951F910F910895B8
:1021F000DC01ED91FC910084F185E02D09942F9292
:102200003F924F925F926F927F928F929F92AF9286
:10221000BF92CF92DF92EF92FF920F931F93CF93D3
:10222000DF9300D000D000D0CDB7DEB73C016A010B
:102230003E832D83FC82EB825801A41AB50AB7FEB7
:1022400003C0B194A194B1088D809E80861A970A2C
:1022500097FE03C09194819491088A149B045CF0CA
:10226000902F812F0D811E819D838E839C2D8D2D1E
:102270006B01692F782F0C151D055CF09D818E81F7
:102280007E836D83692F782F902F812F8601C92E31
:10229000D82E1601201A310A2B012D813E81421AB7
:1022A000530A57FE03C0519441945108710137FEFF
:1022B00003C03FEFE31AF30AF594E7948D819E8102
:1022C000861797075CF5A1E0B0E0BA83A983C01632
:1022D000D1064CF1D301ED91FC910484F585E02DFC
:1022E0002B813C81A8016D817E818A149B041CF0A6
:1022F0004D815E81B801C3010995E418F508F7FE28
:102300000AC02D813E8189819A81280F391F3E8321
:102310002D83E20CF31C0F5F1F4FD9CF2FEF3FEF40
:102320003A832983D4CF26960FB6F894DEBF0FBE2A
:10233000CDBFDF91CF911F910F91FF90EF90DF9074
:10234000CF90BF90AF909F908F907F906F905F9055
:102350004F903F902F90089520916103260F3327CF
:10236000331F21323105ECF420918503FC0190E00C
:1023700080E0243069F082E00895A091610321910A
:10238000AC014F5B5C4FA40FB52FB11D2C93019690
:10239000861798F380916103680F6093610380E072
:1023A000089581E008958FEF9FEF08958FEF9FEFDD
:1023B000089580913A0390E091958195910908954F
:1023C000CF93DF93CB01EA01642F0E94AC11CE01C1
:1023D000DF91CF910895CF93DF931F92CDB7DEB7F2
:1023E000698361E0CE0101960E94AC1181E090E02A
:1023F0000F90DF91CF910895089590E080E00895C7
:102400000E94980A6856754C8F4F9F4F6093FE0349
:102410007093FF03809300049093010408958F92BA
:102420009F92AF92BF92CF92DF92EF92FF920F9363
:102430001F93CF93DF93EC014A015B01680179019F
:102440008091410481FF5EC085E090E020914304CB
:10245000322F3F703230A1F4207F20934304488113
:1024600059816A817B818C01092E000C220B330B70
:10247000400F511F621F731F488359836A837B83F8
:1024800020914304322F3F70313099F4207F209304
:102490004304092E000CAA0BBB0B488159816A81A9
:1024A0007B81481B590B6A0B7B0B488359836A83DA
:1024B0007B830E94001288819981AA81BB81881543
:1024C0009905AA05BB0524F488829982AA82BB8259
:1024D00088819981AA81BB81C816D906EA06FB06C4
:1024E00024F4C882D982EA82FB82DF91CF911F91C6
:1024F0000F91FF90EF90DF90CF90BF90AF909F90A3
:102500008F90089581E090E0A1CF4F925F926F92FB
:102510007F928F929F92AF92BF92CF92DF92EF9273
:10252000FF92161617061806190654F50E94B422D3
:1025300020E030E040E251E40E940A2224EA35E142
:1025400041E25CE30E940A220E947C220E94B422A3
:1025500020915E0430915F044091600450916104C9
:102560000E94B923FF90EF90DF90CF90BF90AF9083
:102570009F908F907F906F905F904F900C940E097A
:10258000672B682B692B09F0E9C080917C048823B4
:1025900009F4D3C00E9461056093630470936404DE
:1025A000809365049093660460935A0470935B046F
:1025B00080935C0490935D04609356047093570479
:1025C00080935804909359048091910490919204BF
:1025D000892B09F0BFC060917804062E000C770BA0
:1025E000880B990B0E94B4226B017C0160914A0414
:1025F00070914B0480914C0490914D040E94B22242
:102600009B01AC0160E074E284E799E40E940A2235
:10261000A70196010E94B923609367047093680430
:102620008093690490936A0480906B0490906C048A
:10263000A0906D04B0906E049B01AC010E94B92380
:1026400020918D0430918E0440918F04509190041C
:102650000E94B923A70196010E94B9236B017C0156
:10266000C501B4010E94B4229B01AC01C701B601AF
:102670000E9499210E947C226B017C01C0926F0410
:10268000D0927004E0927104F09272048C149D0454
:10269000AE04BF04A9F1409083045090840460907C
:1026A00085047090860480918B0490918C04892B12
:1026B00051F020E030E040EA50E4C301B2010E9452
:1026C000052287FF1BC0A301920160E074E284E74A
:1026D00099E40E940A220E94832260934A04709324
:1026E0004B0480934C0490934D0481E08C149D0422
:1026F000AE04BF040CF08FEF809378040E94D508DD
:10270000C0906704D0906804E0906904F0906A0477
:1027100020E030E0A901C701B6010E946423181629
:1027200024F0F7FAF094F7F8F094C0927F04D09276
:102730008004E0928104F0928204FF90EF90DF9099
:10274000CF90BF90AF909F908F907F906F905F9051
:102750004F90089560E070E0CB0104CFFF90EF90C0
:10276000DF90CF90BF90AF909F908F907F906F90B1
:102770005F904F900C94F80461E08DE00E947A0421
:1027800062E370E080E090E00E94660A60E08DE025
:102790000E947A0462E370E080E090E00C94660AA4
:1027A000E8E0F1E088EF91E0DF019C011D9221500B
:1027B0003040E1F71092FA038091FB03833508F46F
:1027C00083E58093FB031092FC038091FD038F321D
:1027D00008F48FE28093FD031092E4031092E30368
:1027E0001092E6031092E50308950E94AE251F9310
:1027F000CF93DF9385ED8093BC0080913D03909152
:102800003E03A0913F03B09140030796A11DB11D67
:1028100023E0B695A795979587952A95D1F72091AE
:10282000BC0024FD03C01092850352C040913D03BB
:1028300050913E0360913F0370914003452B462B1E
:10284000472B69F30097A105B10541F025E32A95CF
:10285000F1F700000197A109B109E1CF80913C0394
:10286000C1E0C0933B03882399F1D091B800109147
:10287000BA008091BC008A7B8093BC0060E082E15A
:102880000E947A0460E083E10E947A04109285033A
:10289000C09387031092860361E082E10E947A046C
:1028A00061E083E10E947A048091B9008E7F809379
:1028B000B9008091B9008D7F8093B90088E480933E
:1028C000B80085E48093BC001093BA00D093B800A0
:1028D000DF91CF911F9108951F920F920FB60F9223
:1028E00011242F933F938F939F93AF93BF93809126
:1028F000AC039091AD03A091AE03B091AF033091C2
:10290000AB0323E0230F2D3758F50196A11DB11D10
:102910002093AB038093AC039093AD03A093AE03DD
:10292000B093AF038091B0039091B103A091B20333
:10293000B091B3030196A11DB11D8093B003909394
:10294000B103A093B203B093B303BF91AF919F9132
:102950008F913F912F910F900FBE0F901F90189560
:1029600026E8230F0296A11DB11DD2CF1F920F9210
:102970000FB60F9211242F933F934F935F936F9352
:102980007F938F939F93AF93BF93EF93FF93809128
:10299000B900887F803609F44AC0F0F5883209F41E
:1029A000A5C018F5803109F499C0B8F4882309F45A
:1029B000F5C0883009F492C0FF91EF91BF91AF91BB
:1029C0009F918F917F916F915F914F913F912F9147
:1029D0000F900FBE0F901F901895883109F486C094
:1029E000803251F78093840314C0803409F49BC073
:1029F00040F48033B9F38833F9F68093840385EC8F
:102A0000AEC0803509F483C0883509F494C0883499
:102A100099F60E94F713D0CF883909F48AC038F5A7
:102A2000883729F050F4883611F0803729F683E092
:102A3000809385031092830355C0883809F479C0C8
:102A4000803919F0803809F0B7CF80918303803244
:102A500008F06FC0E091830381E08E0F80938303C1
:102A60008091BB00F0E0ED59FC4F80833BC0803B80
:102A700039F0D0F4803A09F477C0883A09F09CCF55
:102A800084E0809385031092620310926103F0E06A
:102A9000E0E009958091610381110FC081E080938E
:102AA00061031092410309C0803C09F4A8CF883C1F
:102AB00009F4A5CF883B09F07FCFE091620381E064
:102AC0008E0F80936203F0E0EF5BFC4F8081809378
:102AD000BB00909162038091610329C08091AA0399
:102AE0008093BB0085EC8093BC0066CF9091A903D6
:102AF0008091A803981758F5E091A90381E08E0F03
:102B00008093A903F0E0E857FC4F8081E9CFE09182
:102B1000A90381E08E0F8093A9038091BB00F0E0B0
:102B2000E857FC4F80839091A9038091A8039817E0
:102B3000C8F285E8D8CFE091A90381E08E0F809399
:102B4000A9038091BB00F0E0E857FC4F808380919F
:102B5000870381115ECF81E08093860384EA8093AE
:102B6000BC001092850328CF85EC8093BC001092A6
:102B7000850380918303803230F4E0918303F0E099
:102B8000ED59FC4F10826091830370E083E693E07F
:102B9000F0E0E0E00995109283030ECF10928403D9
:102BA00038CF1F920F920FB60F9211242F933F939D
:102BB0004F935F936F937F938F939F93AF93BF9345
:102BC000EF93FF930E948605FF91EF91BF91AF9124
:102BD0009F918F917F916F915F914F913F912F9135
:102BE0000F900FBE0F901F90189570E09B01285F0B
:102BF000394FF9014491E42FF0E0EE0FFF1FE2504E
:102C0000FA4FA591B491AC01440F551F465B5B4F41
:102C1000FA01E35BFF4FB183A083F9012491E22F16
:102C2000F0E0EE0FFF1FEA52FA4FA591B4914F5A10
:102C30005F4FFA01B183A08366517A4FFB01649123
:102C4000FC01E156FB4F608380819C91892B8C9322
:102C50000895CF92DF92EF92FF92CF93DF9380E1BE
:102C600097E2A0E0B0E080934A0490934B04A093D5
:102C70004C04B0934D0488E99AE390934F048093F9
:102C80004E0410925004109251041092520410926B
:102C90005304909355048093540410925604109258
:102CA0005704109258041092590410925A0410922A
:102CB0005B0410925C0410925D0484EE98E3AEE035
:102CC000B1E480935E0490935F04A0936004B0939A
:102CD00061048FEF80936204109263041092640485
:102CE00010926504109266041092670410926804B2
:102CF0001092690410926A0410926B0410926C0492
:102D000010926D0410926E0410926F041092700471
:102D10001092710410927204109273041092740451
:102D200010927504109276041092770481E08093DB
:102D300078041092790410927A0410927B04109215
:102D40007C0410927D0410927E0410927F041092F5
:102D500080041092810410928204C12CD12C36E997
:102D6000E32E33E4F32EC0928304D0928404E092E5
:102D70008504F092860410928704109288041092C1
:102D8000890410928A0410928C0410928B04109281
:102D90008D0410928E0410928F0410929004109261
:102DA0009204109291041092940410929304109241
:102DB00096041092950462E090E080E00E94F51580
:102DC00063E081E090E00E94F5158AE08093620460
:102DD00061E00E942505C0928304D0928404E092B1
:102DE0008504F092860480918B0490918C04892B49
:102DF00061F485E09DE0A0E0B0E080934A04909308
:102E00004B04A0934C04B0934D0488EE93E0909350
:102E10004F0480934E048CE291E090938C04809355
:102E20008B048EE094E7AAEDBAE380938D0490932F
:102E30008E04A0938F04B093900482E599E4ADE9E9
:102E4000B9E38093500490935104A0935204B0933B
:102E5000530410923F0410923E04109240041092CA
:102E600042041092410410924704109249041092B7
:102E7000480462E084E00E94250562E08BE00E9445
:102E8000250562E089E00E9425058091410490912A
:102E900042049860909342048093410480914404DA
:102EA0008F77809344048091460480788F6080936C
:102EB00046048091450480788F6080934504109289
:102EC000330410923204109234041092360410929B
:102ED000350410923B0410923D0410923C0462E0D1
:102EE0008BE00E942505809135049091360498600E
:102EF0009093360480933504809138048F778093C3
:102F0000380480913A0480788F6080933A048091ED
:102F1000390480788F6080933904109202041092F3
:102F200003041092040410920504109206041092F7
:102F30000704109208041092090410920A041092D7
:102F40000B0410920C0410920D0410921A041092AB
:102F50001B0410921C0410921D0410922404109261
:102F6000250410922704109226048FEF90E090938E
:102F700029048093280410922A0410922B041092A2
:102F80002C0410922D0410922E0410922F041092F3
:102F90003004109231048DEC9CECACE4BEE38093E1
:102FA000200490932104A0932204B093230488EC7E
:102FB00090E090931F0480931E048DE39AE0ABE4AD
:102FC000B1E480930E0490930F04A0931004B09387
:102FD00011048FE892ECA5E3BFE380931204909371
:102FE0001304A0931404B093150484EA90E7A4E6B4
:102FF000B2E48093160490931704A0931804B0933E
:1030000019040E94980A6093FE037093FF03809353
:103010000004909301041092DA031092D90324E57E
:1030200030E03093DC032093DB0380E390E0909367
:10303000DE038093DD033093E0032093DF0390935E
:10304000E2038093E1031092ED031092E4031092E7
:10305000E3031092E6031092E50381E08093EC0312
:103060008093EB032FEF3FEF3093EA032093E903C4
:103070003093E8032093E7038093EE031092EF036D
:103080001092F1031092F0038AE093E09093D8033A
:103090008093D7038CE190E00E948924EC0180E1C9
:1030A0008B8783E18C878FEF8E8782E18D87E8E1C4
:1030B000F6E0E491F0E0EE0FFF1FE250FA4F859149
:1030C00094919E8B8D8BEAEFF5E0E491EA8FEAE133
:1030D000F6E0E491F0E0EE0FFF1FE250FA4F859129
:1030E0009491988B8F87ECEFF5E0E491EF8BEBE117
:1030F000F6E0E491F0E0EE0FFF1FE250FA4F859109
:1031000094919A8B898BEDEFF5E0E491E98F80E063
:1031100099E0ADE3B0E08C839D83AE83BF8381E013
:1031200090E0998788871A861B8E82E090E00E9443
:10313000892420E5FC01208311829B838A831982E4
:103140001882D093F303C093F20381E18093F503D7
:103150008FE08093F403DF91CF91FF90EF90DF90A9
:10316000CF900895CF93DF93CDB7DEB72D970FB6ED
:10317000F894DEBF0FBECDBF789484B5826084BD65
:1031800084B5816084BD85B5826085BD85B581606B
:1031900085BD80916E00816080936E0010928100E9
:1031A00080918100826080938100809181008160A4
:1031B0008093810080918000816080938000809165
:1031C000B10084608093B1008091B00081608093F1
:1031D000B00080917A00846080937A0080917A00B8
:1031E000826080937A0080917A00816080937A0077
:1031F00080917A00806880937A001092C10061E02B
:103200008DE00E94250562E089E00E94250562E0CC
:103210008BE00E94250562E087E00E94250561E0C1
:1032200086E00E94250581E090E0909392048093CF
:1032300091040E9461056093630470936404809319
:1032400065049093660460935A0470935B048093C2
:103250005C0490935D0460935604709357048093CC
:1032600058049093590481E08093790480937D04FD
:103270008CE291E090938C0480938B048EE094E731
:10328000AAEDBAE380938D0490938E04A0938F04EB
:10329000B093900482E599E4ADE9B9E380935004DA
:1032A00090935104A0935204B093530420E030EA69
:1032B0004EEB54E460915E0470915F048091600471
:1032C000909161040E94B9230E940E09809191049B
:1032D00090919204019709F099C080908704909092
:1032E0008804A0908904B0908A0420E030E0A9010D
:1032F000C501B4010E946423181624F0B7FAB094F3
:10330000B7F8B094C0906704D0906804E090690466
:10331000F0906A0420E030E0A901C701B6010E94E4
:103320006423181624F0F7FAF094F7F8F094A70144
:103330009601C501B4010E94052287FD02C07501F6
:103340006401A701960160E074E284E799E40E94B9
:103350000A220E948322DC01CB01B695A79597959E
:1033600087950097A105B10509F459C0813020E483
:103370009207A105B10520F080E090E4A0E0B0E064
:10338000BC01CD01E4E0660F771F881F991FEA9505
:10339000D1F76F3F71058105910509F008F444C02C
:1033A000611548E074078105910508F421C220E207
:1033B00030E013E0611550E2750781059105F0F0EA
:1033C00020E430E014E06115A0E47A07810591055E
:1033D000A8F020E830E015E06115B0E87B07810532
:1033E000910560F020E031E016E061157105E1E043
:1033F0008E07910518F020E034E017E061157105A3
:10340000F4E08F07910599F420E015C0C090830483
:10341000D0908404E0908504F090860492CF81E0FF
:1034200090E0A0E0B0E0ACCF11E021E030E050E06F
:1034300040E00E9467218091B000807F826080938D
:10344000B0001093B10021502093B3008091B100DF
:1034500087708093B5030E94F804809170008260A9
:10346000809370000E94F80410926B0410926C0418
:1034700010926D0410926E0410926704109268040A
:103480001092690410926A040091F2031091F30300
:1034900061E0D8011B968C910E94250561E0F8013E
:1034A00083850E947A04D8018D919C91892B09F41F
:1034B000A3C1FFB6F8948091B403811127C0E2E163
:1034C000F6E08491E4EFF5E09491E82FF0E0EE0F60
:1034D000FF1FEA52FA4FA591B491EC91E92321F430
:1034E00061E08AE00E947A0461E08AE00E9425059A
:1034F0008CB580618CBD8CB580648CBD61E08DE045
:103500000E94250561E08BE00E9425058091B403AF
:103510008F5F8093B403FFBE81E0F801838F61E089
:103520008091F5030E9425058091F40387FD03C077
:1035300061E00E94250584E08093F70388E2809390
:10354000F6031092F8031092F9030E94F10A109208
:10355000FA038091FB03833508F483E58093FB0332
:103560001092FC038091FD038F3208F48FE2809368
:10357000FD030E941A0B85E20E94DA0A84E00E9491
:10358000C20A0E94D0138091440480648093440452
:103590008091450480788460809345040E94BC1328
:1035A0000E94D01310922704109226048FEF90E00F
:1035B000909329048093280480910401909105013F
:1035C000A0910601B0910701809302049093030437
:1035D000A0930404B093050422242394312C8091F9
:1035E000470481116CC1F1E0F093470429B183B124
:1035F00090E0969587959695879582709927229564
:103600002170282B40914404842F8295837090E090
:10361000622F022E000C770B8617970709F4A1C0C2
:10362000322F33703295307F4F7C342B30934404EB
:10363000880F991F880F991F822B880F41E656E14A
:1036400064E979E404C075956795579547958A951F
:10365000D2F7CA01837090914304492F459545954F
:10366000459545954150840F8295807F9F70892BA9
:1036700080934304233021F037FF73C0211171C0C0
:1036800080914304807F09F46CC00E94980A6B010A
:103690008091430491E087FF92E080914304807F12
:1036A000892B809343042091440426FF08C053E0F3
:1036B000591B952F9F70807F892B809343048091A5
:1036C00043048F708093430480914104909142049D
:1036D00084FD0FC02091450427FD02C090FF09C062
:1036E0002091430432E0320F3F70207F232B209340
:1036F000430420914304622F6F703091460460FBB5
:1037000037F93093460440913E0450913F0420FF26
:103710009EC02FEF3FEF240F351F30933F042093BF
:103720003E04633008F096C0816090934204809319
:1037300041048091410490914204209148043091C9
:103740004904B601621B730B6E31710508F087C026
:1037500082609093420480934104D0924904C092C5
:10376000480483B1869581702091410430914204D0
:1037700033FB992790F9592F58274091450450FB66
:1037800047F940934504981302C037FF96C00E9442
:10379000980A6B0180914804909149049601281B76
:1037A000390B40914504809141049091420447FFB8
:1037B0000BC4FC01F068F0934204E093410483FDE4
:1037C0006AC096FF4EC02333310508F476C0886086
:1037D0009068909342048093410480914304807FD9
:1037E000886080934304D0924904C092480465C025
:1037F00012E028E030E01BCE61E0F80184850E94F1
:103800002505D8011A968C911A978B7FE1F460E018
:103810001C968C910E947A04D8011D968C918F3F42
:1038200041F061E00E94250561E0F80185850E9474
:103830007A04D8011E968C918F3F09F46DCE60E01A
:103840000E94250569CE61E0F8018485E3CF21E07F
:1038500030E061CF653008F06CCF926066CF8D7F2D
:1038600078CF40914304407F40934304AC01506CB7
:1038700050934204409341042139314010F485FFB4
:10388000B2CF109240048F719F7C906C9093420451
:1038900080934104A8CF84FD84C34F77A0E44A9F5E
:1038A000A00111242417350708F070C320914304A8
:1038B0002770846090682111AFC3109247040E9462
:1038C000860580E480937C0080917A0080648093F8
:1038D0007A0080917A0086FDFCCF8091780060911B
:1038E0007900762F682F072E000C880B990B0E9409
:1038F000B4229B01AC0160E070EC8FE794E40E947D
:103900000A2220E030E040E85FE30E9498219B011A
:10391000AC0160E078E98EE196E40E940A2220E0A2
:1039200030E543EC57E40E940A220E94712320E014
:1039300030E249E855E40E940A222FE03FEC4BE5D3
:103940005BE30E9499219B01AC0160E070E080E89C
:103950009FE30E940A2223E333E948E853E40E94EC
:1039600098216B017C018091BE0381110FC04DEC49
:103970005CEC6CE47FE34093BA035093BB03609329
:10398000BC037093BD0351E05093BE034090BA0353
:103990005090BB036090BC037090BD032DEC3CECD9
:1039A0004CE45FE3C301B2010E9499219B01AC0189
:1039B000C301B2010E940A2269877A878B879C879C
:1039C0008090B6039090B703A090B803B090B9036D
:1039D000A5019401C701B6010E94982129853A8565
:1039E0004B855C850E94B923A50194010E94992111
:1039F0006B017C01AC019B01C501B4010E949821BF
:103A00009F772AE037ED43EA5CE30E94B9234B013C
:103A10005C0129853A854B855C8560E070E080E833
:103A20009FE30E949821A30192010E94B9239B0168
:103A3000AC01C501B4010E9499216093BA0370934F
:103A4000BB038093BC039093BD03C092B603D09296
:103A5000B703E092B803F092B903C092D303D092B7
:103A6000D403E092D503F092D603C0920604D0921C
:103A70000704E0920804F09209040E94980A009159
:103A8000CF031091D0032091D1033091D203601B5A
:103A9000710B820B930B6C32714081059105D0F153
:103AA0000E94980A6093CF037093D0038093D10350
:103AB0009093D2030E94D013B1E0B093EB03B09384
:103AC000EC033092EA032092E9033092E80320925B
:103AD000E70344E050E062E373E087ED93E00E9487
:103AE000000442E050E067E373E087ED93E00E945A
:103AF00000040E941A0B60ED77E080E090E00E94E5
:103B0000660A8091CD039091CE0301969093CE03E7
:103B10008093CD038091CD039091CE03813A9F4055
:103B200034F040EA5FE05093CE034093CD03C09061
:103B30000401D0900501E0900601F0900701C70153
:103B4000B6010E947C226D837E838F83988780904C
:103B5000000190900101A0900201B09003018982C0
:103B60009A82AB82BC820E94980A0091FE03109157
:103B7000FF03209100043091010460177107820750
:103B8000930720F01092CC031092CB038091430452
:103B9000982F9F70953001F5807F809343040E9499
:103BA00000128091CB039091CC0301968430910553
:103BB0000CF048C29093CC038093CB038091C9034F
:103BC0009091CA03039741F40E945604892B21F077
:103BD0001092CA031092C90390914304892F8F70E9
:103BE000863011F58091C803907F90934304209113
:103BF000CB033091CC032230310509F428C22330A5
:103C0000310509F43EC22130310571F451E08527B8
:103C10008093C803882341F0C0920204D092030429
:103C2000E0920404F09205048091410490914204D2
:103C300080FF10C08E7F9093420480934104809156
:103C4000CB039091CC038130910509F421C20297F6
:103C500009F42BC269817A818B819C818616970633
:103C6000A806B90669F06093000170930101809382
:103C70000201909303012091C70321110E94851234
:103C80006D817E818F8198850E94B4224B015C01F9
:103C9000AC019B01C701B6010E940522882381F077
:103CA0008092040190920501A0920601B092070152
:103CB0008092020490920304A0920404B09205043E
:103CC0008091C803882309F4ACC20E94980A00912D
:103CD0002E0410912F042091300430913104AB0157
:103CE000BC01401B510B620B730B80911E04909121
:103CF0001F04092E000CAA0BBB0B481759076A07B3
:103D00007B0708F42DC10E94980A60932E047093DB
:103D10002F04809330049093310480900604909097
:103D20000704A0900804B0900904A50194016091D3
:103D300002047091030480910404909105040E9490
:103D400098216B017C01A501940160912A04709176
:103D50002B0480912C0490912D040E949821698756
:103D60007A878B879C8780922A0490922B04A0925A
:103D70002C04B0922D0480912504882369F0F7FA71
:103D8000F094F7F8F09489859A85AB85BC85B05896
:103D900089879A87AB87BC8710912404412C512CCA
:103DA000320111110EC020910E0430910F04409188
:103DB000100450911104C701B6010E94B9232B01D0
:103DC0003C018090200490902104A0902204B090A7
:103DD0002304209116043091170440911804509147
:103DE000190469857A858B859C850E94B923A50174
:103DF00094010E940A22A30192010E9499212B01A1
:103E00003C0120911204309113044091140450910C
:103E10001504C701B6010E94B923A50194010E94AF
:103E2000B92320911A0430911B0440911C04509135
:103E30001D040E9499216B017C01C0921A04D0924A
:103E40001B04E0921C04F0921D041123D1F0209178
:103E50000E0430910F0440911004509111046985B3
:103E60007A858B859C850E94B923A70196010E94C3
:103E7000992160931A0470931B0480931C049093FF
:103E80001D04C0901A04D0901B04E0901C04F09014
:103E90001D046091260470912704072E000C880BE6
:103EA000990B0E94B4224B015C019B01AC01B6014D
:103EB000C7010E94052287FD02C16091280470910C
:103EC0002904072E000C880B990B0E94B4226987E5
:103ED0007D878C019B01AC01B601C7010E94642360
:103EE00018161CF4C984DD847801C601D7018093BB
:103EF0001A0490931B04A0931C04B0931D04960114
:103F0000A701C301B2010E9499217B018C019B0191
:103F1000AC01B401C5010E94642318160CF4D2C090
:103F20006091280470912904072E000C880B990BCE
:103F30000E94B4225B016C019B01AC01B701C80176
:103F40000E946423181614F475018601C701D80174
:103F500080930A0490930B04A0930C04B0930D0477
:103F600060910A0470910B0480910C0490910D04EF
:103F70000E947C226B018B0161E085E00E94250597
:103F8000C114D10409F0A1C060E0A3C082FD95CCAA
:103F900020914304207F266020934304806390682F
:103FA00075CC409146044F77B0E24B9FA00111249D
:103FB0004217530708F081CC20914304207F2760EB
:103FC00020934304906A62CC83FF2FC023333105D2
:103FD000E0F09C0124713327232B59F420914304F2
:103FE000207F256020934304209140042F5F20937D
:103FF0004004D0924904C092480495FD12C0837ECB
:104000009460909342048093410480914104909184
:10401000420496FF52CC9F7B9093420480934104CC
:104020004CCC837E9F7D9461ECCF4091400444232F
:1040300011F085FF02C09F77E4CF2139314028F38A
:10404000806EDFCF3092CC032092CB03B7CD80912E
:10405000C70361E086278093C703882329F0C50141
:10406000B4010E948512E0CD8091C9039091CA03EA
:10407000049721F41092CA031092C9030E94F80415
:10408000D3CD8091C60371E087278093C603CCCD42
:1040900008E111E020E030E048E750E060E070E047
:1040A000CE0105960E940F12D5CD06E910E020E062
:1040B00030E040E050E0BA01CE010196F3CF640158
:1040C000750113CF7401850141CF0F3F110529F40C
:1040D00061E085E00E947A0426C0E7ECF5E0849177
:1040E000833009F484C048F48130C9F0823009F487
:1040F00079C00038110564F747CF873009F481C0D3
:10410000883009F486C08430A1F7809180008062F5
:1041100080938000D0928B00C0928A0004C084B546
:10412000806884BDC7BC0E945604892BF1F443E02B
:1041300050E05093CA034093C9038091C70388237A
:1041400061F08091C803882341F00E94BC130E9453
:10415000BC130E94BC130E94BC131092C7030E94A0
:10416000F8041092C8031092C6038091CD03909179
:10417000CE03893B9B400CF471C0C090D303D09018
:10418000D403E090D503F090D60320E030E04CE873
:1041900053E4C701B6010E94642318160CF046C010
:1041A0003092CA032092C9031092C7030E94F804F8
:1041B0001092C8031092C60320E030E040E251ECB8
:1041C000C701B6010E94052287FD3AC060E086E083
:1041D0000E947A0460E070E0672B09F400CA0E9434
:1041E0000000FDC984B5806284BDC8BC9CCF8091AD
:1041F0008000806880938000D0928900C0928800FF
:1042000092CF8091B00080688093B000C092B300DC
:104210008ACF8091B00080628093B000C092B400D9
:1042200082CF61E085E00E942505AECE20E030E03F
:1042300040E251ECC701B6010E94052287FF0EC083
:1042400082E090E09093CA038093C9031092C70361
:104250000E94F8041092C8031092C6038091C6030E
:10426000882309F4B3CF61E0B2CF052E97FB1EF48B
:1042700000940E944C2157FD07D00E94672107FC43
:1042800003D04EF40C944C215095409530952195D7
:104290003F4F4F4F5F4F0895909580957095619572
:1042A0007F4F8F4F9F4F08950E948921A59F900DAA
:1042B000B49F900DA49F800D911D11240895B7FF08
:1042C0000C9454210E945421821B930B0895A1E267
:1042D0001A2EAA1BBB1BFD010DC0AA1FBB1FEE1F80
:1042E000FF1FA217B307E407F50720F0A21BB30BCB
:1042F000E40BF50B661F771F881F991F1A9469F747
:1043000060957095809590959B01AC01BD01CF01A2
:104310000895A29FB001B39FC001A39F700D811D9E
:104320001124911DB29F700D811D1124911D0895BE
:104330005058BB27AA270E94B0210C942A230E9420
:104340001C2338F00E94232320F039F49F3F19F4F6
:1043500026F40C9419230EF4E095E7FB0C94132338
:10436000E92F0E943B2358F3BA17620773078407AB
:10437000950720F079F4A6F50C945D230EF4E095F2
:104380000B2EBA2FA02D0B01B90190010C01CA010F
:10439000A0011124FF27591B99F0593F50F4503EBA
:1043A00068F11A16F040A22F232F342F4427585FAC
:1043B000F3CF469537952795A795F0405395C9F7C4
:1043C0007EF41F16BA0B620B730B840BBAF091507C
:1043D000A1F0FF0FBB1F661F771F881FC2F70EC01B
:1043E000BA0F621F731F841F48F4879577956795EE
:1043F000B795F7959E3F08F0B0CF9395880F08F0DA
:104400009927EE0F9795879508950E94EF2208F45B
:1044100081E008950E941E220C942A230E942323E7
:1044200058F00E941C2340F029F45F3F29F00C94BF
:10443000132351110C945E230C9419230E943B23E7
:1044400068F39923B1F3552391F3951B550BBB27C3
:10445000AA2762177307840738F09F5F5F4F220F08
:10446000331F441FAA1FA9F335D00E2E3AF0E0E8FF
:1044700032D091505040E695001CCAF72BD0FE2F49
:1044800029D0660F771F881FBB1F261737074807DD
:10449000AB07B0E809F0BB0B802DBF01FF27935895
:1044A0005F4F3AF09E3F510578F00C9413230C9423
:1044B0005E235F3FE4F3983ED4F386957795679546
:1044C000B795F7959F5FC9F7880F911D96958795CA
:1044D00097F90895E1E0660F771F881FBB1F6217E9
:1044E00073078407BA0720F0621B730B840BBA0BA7
:1044F000EE1F88F7E09508950E9483226894B11119
:104500000C945E2308950E94432388F09F5798F0EF
:10451000B92F9927B751B0F0E1F0660F771F881FC8
:10452000991F1AF0BA95C9F714C0B13091F00E94E2
:104530005D23B1E008950C945D23672F782F8827C1
:10454000B85F39F0B93FCCF3869577956795B39509
:10455000D9F73EF490958095709561957F4F8F4F78
:104560009F4F0895E89409C097FB3EF4909580957D
:10457000709561957F4F8F4F9F4F9923A9F0F92F29
:1045800096E9BB279395F695879577956795B795A7
:10459000F111F8CFFAF4BB0F11F460FF1BC06F5F8D
:1045A0007F4F8F4F9F4F16C0882311F096E911C09F
:1045B000772321F09EE8872F762F05C0662371F0C0
:1045C00096E8862F70E060E02AF09A95660F771FD4
:1045D000881FDAF7880F9695879597F90895990FB0
:1045E0000008550FAA0BE0E8FEEF16161706E807BD
:1045F000F907C0F012161306E407F50798F0621BDE
:10460000730B840B950B39F40A2661F0232B242BB2
:10461000252B21F408950A2609F4A140A6958FEFD1
:10462000811D811D089597F99F6780E870E060E023
:1046300008959FEF80EC089500240A94161617063B
:1046400018060906089500240A9412161306140683
:1046500005060895092E0394000C11F4882352F0E6
:10466000BB0F40F4BF2B11F460FF04C06F5F7F4F9E
:104670008F4F9F4F089557FD9058440F551F59F085
:104680005F3F71F04795880F97FB991F61F09F3F3F
:1046900079F087950895121613061406551FF2CF68
:1046A0004695F1DF08C0161617061806991FF1CFB8
:1046B00086957105610508940895E894BB276627DF
:1046C0007727CB0197F908950E94EF2208F48FEF26
:1046D000089516F00C9426240C94192368940C94D5
:1046E00013230E944323A8F39923C1F3AEF3DF936E
:1046F000CF931F930F93FF92C92FDD2788232AF0B2
:104700002197660F771F881FDAF720E030E040E836
:104710005FEB9FE3883920F0803E38F021968F7759
:104720000E949921E8E6F0E004C00E949921E5E9A1
:10473000F0E00E9434248B01BE01EC01FB2E6F5788
:1047400071097595771F880B990B0E94B42228E197
:1047500032E741E35FE30E94CC23AF2D9801AE0125
:10476000FF900F911F91CF91DF910E94B0210C9487
:104770002A230E94CC230C942A230E941C2338F065
:104780000E94232320F0952311F00C9413230C9402
:10479000192311240C945E230E943B2370F3959FF0
:1047A000C1F3950F50E0551F629FF001729FBB2728
:1047B000F00DB11D639FAA27F00DB11DAA1F649FC4
:1047C0006627B00DA11D661F829F2227B00DA11D77
:1047D000621F739FB00DA11D621F839FA00D611DFD
:1047E000221F749F3327A00D611D231F849F600D1E
:1047F000211D822F762F6A2F11249F5750409AF047
:10480000F1F088234AF0EE0FFF1FBB1F661F771FD2
:10481000881F91505040A9F79E3F510580F00C949D
:1048200013230C945E235F3FE4F3983ED4F3869504
:1048300077956795B795F795E7959F5FC1F7FE2B3D
:10484000880F911D9695879597F908959F3F31F0B0
:10485000915020F4879577956795B795880F911DAE
:104860009695879597F90895DF93CF931F930F93AC
:10487000FF92EF92DF927B018C01689406C0DA2EE2
:10488000EF010E94CC23FE01E894A591259135917A
:1048900045915591A6F3EF010E94B021FE019701C9
:1048A000A801DA9469F7DF90EF90FF900F911F91C4
:1048B000CF91DF91089597FB072E16F4009407D04F
:1048C00077FD09D00E946F2407FC05D03EF4909537
:1048D00081959F4F0895709561957F4F0895AA1B0C
:1048E000BB1B51E107C0AA1FBB1FA617B70710F0DB
:1048F000A61BB70B881F991F5A95A9F7809590950D
:10490000BC01CD010895EE0FFF1F0590F491E02D3D
:1049100009940F931F93CF93DF938230910510F486
:1049200082E090E0E091A304F091A40430E020E064
:10493000B0E0A0E0309799F42115310509F44AC0A0
:10494000281B390B24303105D8F58A819B816115EC
:10495000710589F1FB0193838283FE0111C04081BF
:1049600051810281138148175907E0F04817590710
:1049700099F4109761F012960C93129713961C936A
:104980003296CF01DF91CF911F910F91089500933F
:10499000A3041093A404F4CF2115310551F042175C
:1049A000530738F0A901DB019A01BD01DF01F801CD
:1049B000C1CFEF01F9CF9093A4048093A304CDCF8E
:1049C000FE01E20FF31F8193919322503109398345
:1049D0002883D7CF2091A1043091A204232B41F446
:1049E00020910203309103033093A2042093A10489
:1049F00020910003309101032115310541F42DB7B9
:104A00003EB74091040350910503241B350BE09100
:104A1000A104F091A204E217F307A0F42E1B3F0BB0
:104A20002817390778F0AC014E5F5F4F2417350720
:104A300048F04E0F5F1F5093A2044093A10481934E
:104A400091939FCFF0E0E0E09CCFCF93DF9300976E
:104A5000E9F0FC01329713821282A091A304B09175
:104A6000A404ED0130E020E01097A1F42081318111
:104A7000820F931F2091A1043091A20428173907B7
:104A800009F061C0F093A204E093A104DF91CF91FB
:104A90000895EA01CE17DF07E8F54A815B819E01A0
:104AA00041155105B1F7E901FB83EA834991599119
:104AB000C40FD51FEC17FD0761F480819181029628
:104AC000840F951FE90199838883828193819B8359
:104AD0008A83F0E0E0E012968D919C911397009705
:104AE000B9F52D913C911197CD010296820F931F3C
:104AF0002091A1043091A2042817390739F6309784
:104B000051F51092A4041092A304B093A204A093B0
:104B1000A104BCCFD383C28340815181840F951FF0
:104B2000C817D90761F44E5F5F4F88819981480F9C
:104B3000591F518340838A819B81938382832115EE
:104B4000310509F0B0CFF093A404E093A3049ECF05
:104B5000FD01DC01C0CF13821282D7CF81E090E04B
:0A4B6000F8940C94B325F894FFCFED
:104B6A0019000000000034430000000000000000AB
:104B7A00000000000000000000000000000000002B
:104B8A000000000000000000000000000000C0E07B
:104B9A00F0F8FCFCFEFFFCE0000000000000000052
:104BAA0000000000000000000000000000000000FB
:104BBA0000000000000000000000000000000000EB
:104BCA0000000000000000000000000000F8F8F8F3
:104BDA00F8F8F8F8F8F8F8F8F8F0F0E0E0C080C073
:104BEA00FCFFFFFFFF7F3F7FFFFFFFFFFF0000008B
:104BFA0000000000000000000000000000000000AB
:104C0A00000000000000000000000000000000009A
:104C1A00000000000000000000000000000000008A
:104C2A0000000F1F3F7FFFFFFFFFFFFFFFFFE7C7E8
:104C3A00C7878F9F9FFFFFFFC1C0E0FCFFFFFFFFF9
:104C4A00FFFCFCFCFCFEFEFEFCFCF8F8F0E0C0C039
:104C5A00000000000000000000000000000000004A
:104C6A00000000000000000000000000000000003A
:104C7A0000000000000000000080C0E0F1FBFFFF20
:104C8A00FFFFFF7F1F0F0F87E7FFFFFF1F1F3FF980
:104C9A00F8F8F8F8F8F8FDFFFFFFFFFFFFFFFFFF46
:104CAA007F3F0F0701000000000000000000000025
:104CBA0000000000000000000000000000000000EA
:104CCA000000000000000000000000F0FEFFFFFFEF
:104CDA00FFFFFFFFFFFFFFFE7E3F3F0F1FFFFFFFAC
:104CEA00FCF0E0F1FFFFFFFFFFFCF0010101010111
:104CFA0001010100000000000000000000000000A7
:104D0A000000000000000000000000000000000099
:104D1A000000000000000000000000000000000386
:104D2A000303030303030301010101000000000060
:104D3A000000030F1F3F7F7FFFFFFFFF7F7F1F03DF
:104D4A000000000000000000000000000000000059
:104D5A000000000000000000000000000000000049
:104D6A000000A504800000000000520E0004FD119E
:104D7A00FC11900BCF10F810D010EC10E010FF10BF
:104D8A00CF10180C7F0B96105D101810FB0F830FB5
:0A4D9A00240F74657374000D0A0005
:00000001FF
